:100000000C9448050C9470050C9470050C947005C4
:100010000C9470050C9470050C9470050C9470058C
:100020000C9470050C9470050C94180D0C94870DAD
:100030000C9470050C9470050C9470050C9470056C
:100040000C9470050C9470050C9470050C9470055C
:100050000C9470050C9470050C9470050C94B90FF9
:100060000C9470050C9470050C9470050C9470053C
:100070000C9470050C9470050C9470050C9470052C
:100080000C9470050C9470050C9470050C9470051C
:100090000C9470050C9470050C9470050C9470050C
:1000A0000C9470050C9470050C94700548554E54D2
:1000B000210A0000000000003E5B4F5B3E3E6B4F9C
:1000C0006B3E1C3E7C3E1C183C7E3C181C577D57EA
:1000D0001C1C5E7F5E1C00183C1800FFE7C3E7FF96
:1000E0000018241800FFE7DBE7FF30483A060E2629
:1000F00029792926407F050507407F05253F5A3C81
:10010000E73C5A7F3E1C1C08081C1C3E7F14227FC3
:1001100022145F5F005F5F06097F017F006689959B
:100120006A606060606094A2FFA29408047E040884
:1001300010207E201008082A1C08081C2A08081E07
:10014000101010100C1E0C1E0C30383E3830060EED
:100150003E0E06000000000000005F0000000700E7
:100160000700147F147F14242A7F2A1223130864A3
:100170006236495620500008070300001C22410047
:100180000041221C002A1C7F1C2A08083E08080087
:100190008070300008080808080000606000201027
:1001A0000804023E5149453E00427F4000724949E1
:1001B00049462141494D331814127F1027454545C2
:1001C000393C4A49493141211109073649494936E3
:1001D000464949291E000014000000403400000078
:1001E00008142241141414141400412214080201AA
:1001F0005909063E415D594E7C1211127C7F4949D6
:1002000049363E414141227F4141413E7F49494972
:10021000417F090909013E414151737F0808087F68
:1002200000417F41002040413F017F081422417F6F
:10023000404040407F021C027F7F0408107F3E4107
:1002400041413E7F090909063E4151215E7F09195E
:100250002946264949493203017F01033F40404076
:100260003F1F2040201F3F4038403F631408146365
:1002700003047804036159494D43007F4141410221
:1002800004081020004141417F0402010204404063
:10029000404040000307080020545478407F284421
:1002A00044383844444428384444287F385454540B
:1002B0001800087E090218A4A49C787F080404781A
:1002C00000447D40002040403D007F102844000055
:1002D000417F40007C047804787C0804047838442A
:1002E000444438FC1824241818242418FC7C0804DE
:1002F0000408485454542404043F44243C404020FF
:100300007C1C2040201C3C4030403C4428102844A9
:100310004C9090907C4464544C440008364100005A
:1003200000770000004136080002010204023C266A
:1003300023263C1EA1A161123A4040207A38545431
:1003400055592155557941215454784121555478B6
:100350004020545579400C1E52721239555555594A
:10036000395454545939555454580000457C41006F
:1003700002457D420001457C40F0292429F0F02807
:100380002528F07C545545002054547C547C0A099F
:100390007F4932494949323248484832324A48480E
:1003A000303A4141217A3A42402078009DA0A07D18
:1003B00039444444393D4040403D3C24FF242448D6
:1003C0007E4943662B2FFC2F2BFF0929F620C0887E
:1003D0007E090320545479410000447D413048484F
:1003E0004A32384040227A007A0A0A727D0D193169
:1003F0007D2629292F28262929292630484D4020C5
:10040000380808080808080808382F10C8ACBA2FA0
:10041000102834FA00007B000008142A1422221449
:100420002A14089500220095AA005500AAAA55AAE8
:1004300055AA000000FF00101010FF00141414FF54
:10044000001010FF00FF1010F010F0141414FC0046
:100450001414F700FF0000FF00FF1414F404FC1450
:100460001417101F10101F101F1414141F00101049
:1004700010F0000000001F101010101F10101010BE
:10048000F010000000FF101010101010101010FFDE
:1004900010000000FF140000FF00FF00001F1017F5
:1004A0000000FC04F414141710171414F404F400DE
:1004B00000FF00F714141414141414F700F71414A4
:1004C00014171410101F101F141414F4141010F02B
:1004D00010F000001F101F0000001F14000000FC9F
:1004E000140000F010F01010FF10FF141414FF148B
:1004F0001010101F00000000F010FFFFFFFFFFF0C2
:10050000F0F0F0F0FFFFFF0000000000FFFF0F0F12
:100510000F0F0F38444438447C2A2A3E147E0202CE
:100520000606027E027E0263554941633844443C1C
:1005300004407E201E2006027E020299A5E7A599AE
:100540001C2A492A1C4C7201724C304A4D4D3030E5
:1005500048784830BC625A463D3E494949007E01D0
:1005600001017E2A2A2A2A2A44445F444440514AEF
:10057000444040444A51400000FF0103E080FF0036
:100580000008086B6B083612362436060F090F0672
:10059000000018180000001010003040FF0101009A
:1005A0001F01011E00191D1712003C3C3C3C0000BD
:1005B000000000F0F89C8E8783878E9CF8F0000086
:1005C000FEFF0303030303070EFCF80000FEFF0316
:1005D00003030303070EFCF80000FFFF0000000008
:1005E000000000FFFF0000FEFF8383838383C7EECC
:1005F0007C380000F8FC0E07030303070EFCF8002C
:10060000003F7FE0C08080C0E07F3FFFFF0101012D
:1006100001010101FFFF0000FFFF0C0C0C0C1C3E50
:1006200077E3C100007FFFC0C0C0C0C0E0703F1FC3
:1006300000001F3F70E0C0C0C0E0703F1F00007F9F
:10064000FFC1C1C1C1C1E3773E1C00001F3F70E084
:10065000C0C0C0E0703F1F000000000001FFFF01AC
:10066000000000D5F08D14A1C881CFD9F1AF2000D2
:100670004F5054494F4E5300504C4159001010FFF9
:100680007FFBFFFFBFFFFFF7FFFDFFFFF77FFFDFF0
:10069000FFFFFB7FFFFFFFEFFEFFFFFBFF7FFF087A
:1006A00010100810081010100800000000000020B2
:1006B000404020000102020102020102214040FFED
:1006C0001F5B3FEBDDFFF7BBEFFD7FE3CBE3FFFFFE
:1006D000C796C7FFFFEFFDFFE3CBE3FFFF7BFFFF05
:1006E000DF7B3F9F6F77ABDBD7CD5FBF77FFFFFF30
:1006F000C1DCD3AF9FAEB0BBBDBDBAD7CC63FF10DA
:10070000110000F0F8F8FCFCFCFCFCFC7C78F870B4
:10071000000000033737CFEFEFEF2F6C6B0B0C03AC
:1007200000000000000000000000000000000000C9
:10073000000000F0F8F8FCFCFCFCFCFC7C78F87095
:100740000000000317372F4F2F2F2F6C6B6B0C03FC
:100750000000000000000000000000000000000099
:10076000000000F0F8F8FCFCFCFCFCFC7C78F87065
:10077000000000033737CFEFEFEF2F6C6B0B0C034C
:100780000000000000000000000000000000000069
:10079000000000F0F8F8FCFCFCFCFCFC7C78F87035
:1007A0000000003337172FEFEFEFEF2C2B0B2C034C
:1007B0000000000000000000000000000000000039
:1007C000001011000070F8787CFCFCFCFCFCFCF8CC
:1007D000F8F0000000030C0B6B6C2FEFEFEFCF373E
:1007E00037030000000000000000000000000000CF
:1007F000000000000070F8787CFCFCFCFCFCFCF8BD
:10080000F8F0000000032C0B2B2CEFEFEFEF2F176D
:10081000373300000000000000000000000000006E
:10082000000000000070F8787CFCFCFCFCFCFCF88C
:10083000F8F0000000030C0B6B6C2FEFEFEFCF37DD
:10084000370300000000000000000000000000006E
:10085000000000000070F8787CFCFCFCFCFCFCF85C
:10086000F8F0000000030CEBEBEC6F6F8F6F6F770D
:10087000170300000000000000000000000000005E
:1008800000000010100000F0F8F8FCFCFCFCFCFC80
:10089000FCF8F8F00000001B07776F6F2F2F2F6F09
:1008A0006F77071B000000F0F8F8FCFCFCFCFCFC78
:1008B000FCF8F8F00000003B37072F2F2F2F2F6F89
:1008C0006F771703000000F0F8F8FCFCFCFCFCFC60
:1008D000FCF8F8F00000001B07776F6F2F2F2F6FC9
:1008E0006F77071B000000F0F8F8FCFCFCFCFCFC38
:1008F000FCF8F8F00000000317776F6F2F2F2F2FF1
:100900002F07373B0010100000F0F878BCBC7CFCCF
:100910007CBCBC78F8F00000001B07746B6B2C2FBC
:100920002C6B6B74071B000000F0F878BCBC7CFCDF
:100930007CBCBC78F8F00000003B37042B2B2C2F3C
:100940002CEBEBF417030000000000000000000097
:10095000000000000000000000F0F878BCBC7CFC47
:100960007CBCBC78F8F00000000D033A3535161752
:100970001635353A030D00000000000000000000AD
:10098000000000000000000000F0F878BCBC7CFC17
:100990007CBCBC78F8F00000000317F4EBEB2C2FC4
:1009A0002C2B2B04373B000000000000000000004F
:1009B000000000000000001012000000B0B8B8787D
:1009C000F8F8F878B8B0B000000000021D7D7D7E18
:1009D0003F3F3F7E7D7D3D020000000000000000A3
:1009E000000000000000000000000000B4B8B8786B
:1009F000F8F8F878B8B8B400000000021D3D3D3E9C
:100A00001F1F1F3E3D3D1D020000000000000000B2
:100A10000000000000000000004B494C4C533A20FD
:100A200000080B000202020000090400000102029B
:100A30000000052400100105240101010424020620
:100A40000524060001070581031000400904010088
:100A5000020A0000000705020240000007058302A9
:100A60004000000403090412010002EF02014041AA
:100A700023368000010102030141726475696E6FC3
:100A8000204C4C430041726475626F79000036104F
:100A900011241FBECFEFDAE0DEBFCDBF12E0A0E031
:100AA000B1E0ECECF2E302C005900D92A83DB10775
:100AB000D9F727E0A8EDB2E001C01D92AC39B2072A
:100AC000E1F715E0C8E4D5E004C02197FE010E94DB
:100AD0006C17C734D107C9F70E9469100C946419C8
:100AE0000C940000EBE2F3E0A0E0B8E000800EBC64
:100AF0008111012C1197A0FDFDCF0192B9F70DB422
:100B00000895FC0180912A03882311F13FB7F894DE
:100B100082E08093E9002091F200822F90E0181685
:100B2000190614F481E090E0882339F0289844E60F
:100B3000409329034091F1004083222339F0209112
:100B4000F200211103C02BE62093E8003FBF089577
:100B50008FEF9FEF08952FB7F89483E08093E9001B
:100B60009091E800892F807295FF04C09091F20067
:100B700080E4891B2FBF08958091210381110DC04E
:100B800082E080931D0384E080931E031092200373
:100B900010921F0381E0809321038DE193E008957B
:100BA000CF93DF931F92CDB7DEB76983DC01ED9160
:100BB000FC910280F381E02D41E050E0BE016F5FC7
:100BC0007F4F09950F90DF91CF91089583E0809337
:100BD000E9008091F200882319F08AE38093E8000D
:100BE00008950E94AB0590E00895CF93DF931F9284
:100BF000CDB7DEB7FC018485958597FD08C02FEF42
:100C00003FEF358724870F90DF91CF910895CE0174
:100C100001960E948105019719F4898190E0F3CF34
:100C20008FEF9FEFF0CF0F931F93CF93DF931F9220
:100C3000CDB7DEB78C01FC018485958597FF0BC08D
:100C4000CE0101960E948105019771F4898190E09F
:100C5000F80195878487F801848595850F90DF9149
:100C6000CF911F910F9108958FEF9FEFF1CFFC016E
:100C70008485958597FD0BC09FB7F89482E080939B
:100C8000E9008091F2009FBF90E0019608959FB720
:100C9000F89482E08093E9008091F2009FBF90E099
:100CA0000895409117035091180320911503309136
:100CB000160342175307B4F49091E8009570E1F3DE
:100CC0009091E80092FD19C08093F1008091170384
:100CD0009091180301968F739927892B19F48EEF41
:100CE0008093E800809117039091180301969093E8
:100CF00018038093170381E0089580E00895DF9240
:100D0000EF92FF920F931F93CF93DF93D82E8A0118
:100D1000EB017B01E40EF51ECE15DF0559F0D7FE81
:100D200012C0FE0184910E94510621968111F4CFD8
:100D30000FEF1FEFC801DF91CF911F910F91FF902F
:100D4000EF90DF9008958881EECF0F931F93CF939C
:100D5000DF931F92CDB7DEB782E0898342E450E093
:100D600061E27AE080E80E947F060E94BC05DC0117
:100D700012960D911C910115110589F0D801ED9184
:100D8000FC910280F381E02DBE016F5F7F4FC801AF
:100D9000099597FD04C0F80100851185ECCF898184
:100DA0000F90DF91CF911F910F910895615030F016
:100DB0002091F100FC0120830196F8CF289884E669
:100DC000809329030895AF92BF92CF92DF92EF9262
:100DD000FF920F931F93CF93DF936C017B018B01E5
:100DE000040F151FEB015E01AE18BF08C017D10735
:100DF00059F06991D601ED91FC910190F081E02DBF
:100E0000C6010995892B79F7C501DF91CF911F9113
:100E10000F91FF90EF90DF90CF90BF90AF9008952B
:100E20003FB7F8948091DA029091DB02A091DC0246
:100E3000B091DD0226B5A89B05C02F3F19F00196A1
:100E4000A11DB11D3FBFBA2FA92F982F8827BC0124
:100E5000CD01620F711D811D911D42E0660F771F4C
:100E6000881F991F4A95D1F708958F929F92AF924C
:100E7000BF92CF92DF92EF92FF926B017C010E94B2
:100E800010074B015C01C114D104E104F104B9F075
:100E90000E941007681979098A099B09683E734006
:100EA0008105910580F321E0C21AD108E108F1081B
:100EB00088EE880E83E0981EA11CB11CE4CFFF9041
:100EC000EF90DF90CF90BF90AF909F908F9008955C
:100ED0008F929F92AF92BF92CF92DF92EF92FF924A
:100EE0000F931F93CF93DF936C017B018A01809155
:100EF0000D01882309F45CC080912A03882309F43A
:100F000057C080911C0380FF05C08091E000826083
:100F10008093E000E801B12C8AEFA82E93E0892E9F
:100F20002AE3922E209711F4BB20D9F10E94AB0541
:100F300081110AC0AA94AA20D9F161E070E080E092
:100F400090E00E943507EECF8C171D0611F00CF0D3
:100F50008C2F9FB7F8948092E9002091E80025FD3E
:100F600002C09FBFDFCF282F30E0C21BD30BF70199
:100F7000815020F041914093F100FACFE20EF31E30
:100F8000BB2021F09092E800B12CEBCF8091E800DB
:100F900085FDE7CF9092E800BB24B394209709F336
:100FA000F3CF5D9884E680931B03101611063CF086
:100FB00081E090E0F6019383828310E000E0C801B5
:100FC000DF91CF911F910F91FF90EF90DF90CF9025
:100FD000BF90AF909F908F9008957F928F929F9235
:100FE000AF92BF92CF92DF92EF92FF920F931F9337
:100FF000CF93DF93DC01FA01D490319694914E5F48
:101000005F4FCD2DD0E02223E1F001E010E0892FE9
:10101000877011F410E000E0E92FE695E695E6957B
:10102000E00FF12FF11DEC9F8001ED9F100DFC9F53
:10103000100D1124209FF001219FF00D11244E0F5F
:101040005F1F7E01EA0EFB1E1E141F040CF0A6C0DB
:10105000A038B1050CF0A2C09B01290F311D12165A
:1010600013060CF09BC0603471050CF097C041155D
:10107000510509F493C0062F07709B0177FF02C04A
:10108000295F3F4F83E0359527958A95E1F7F22F49
:1010900077FF04C0002311F0FFEFF20F2227332760
:1010A0002A1B3B0BB7FD02C030E020E010E81A1B02
:1010B000712E10E8E116F1040CF47D2C721A6F2FDA
:1010C0000F2E000C770BF62EF094FF3F0CF0F12C56
:1010D000E1E0892F877009F4E0E096959695969562
:1010E0009E0F690F711D6930710514F098E09F1B08
:1010F0009F2C9F0E692D70E8670350011124AA0DE3
:10110000BB1DA20FB31FDF9C200D311D1124420F08
:10111000531FC02E002E000CDD082FEF30E0002EF4
:1011200002C0220F331F0A94E2F720953095832ED8
:101130009F0F991599F1FD01E55DFC4F7F01B12CE1
:10114000A12CA71428F5FA01EA0DFB1D649170E0AB
:101150000C2C02C0660F771F0A94E2F797FC05C0BB
:10116000F70180818223862B8083002351F0F6E0F3
:10117000F9153CF0F701E058FF4F80818821872B5B
:1011800080831FEFA11AB10A6FEFE61AF60AD9CFD2
:1011900093944C0F5D1FA058BF4FCBCFDF91CF91E1
:1011A0001F910F91FF90EF90DF90CF90BF90AF9085
:1011B0009F908F907F9008952D9A0895BC0190E0A4
:1011C00080E00C9435078FB18095807F669B8860A6
:1011D0001C9B8460089520E191E061FD94E060FD36
:1011E000990F62FD9295687F269FD0011124A80F68
:1011F000A55DBC4F8C9140FF03C0892B8C93089553
:1012000090958923FBCFAF92BF92CF92DF92EF925E
:10121000FF920F931F93CF93DF936B01EC015C015F
:10122000A40EB11C7B01E20EF11CCA15DB05E4F42F
:101230008601D7FE02C010E000E0C70121E4E216FB
:10124000F10414F080E490E0081719075CF4C0384A
:10125000D10528F440E0B801CE010E94EB080F5FF1
:101260001F4FEBCF2196E1CFDF91CF911F910F91CF
:10127000FF90EF90DF90CF90BF90AF90089580E007
:10128000EBE2F3E081118FEF00248193819381934E
:1012900081930394D1F710920803109207031092E0
:1012A0000A031092090308952F923F924F925F9282
:1012B0006F927F928F929F92AF92BF92CF92DF9266
:1012C000EF92FF920F931F93CF93DF9300D000D044
:1012D0001F92CDB7DEB76D30C9F04090000160902D
:1012E000070370900803042D10E06A3049F510924E
:1012F0000A031092090383E0000F111F8A95E1F79A
:10130000600E711E709208036092070381E090E006
:101310000F900F900F900F900F90DF91CF911F9132
:101320000F91FF90EF90DF90CF90BF90AF909F9084
:101330008F907F906F905F904F903F902F90089587
:101340002090090330900A03E5E06E9FC00111244C
:101350008D549F4F9D838C836101512CF5E05F1666
:1013600051F18C819D810196EC81FD81F491F9838D
:101370009D838C83430128E02A83898181708B833C
:1013800076018E2D8C198415E0F4B12CA12CA414B7
:10139000A0F490E8E916F10450F4B4016A0D7B1D45
:1013A0006034710520F44B81C7010E94EB08EFEF18
:1013B000AE1ABE0AECCF1982DDCFFFEFEF1AFF0A9B
:1013C000E0CF2981269529838A8181508A83800EE6
:1013D000911E8111D2CF5394C00ED11E96E05912A6
:1013E000BDCFC101459C800D911D112490930A032E
:1013F000809309038BCF0F931F93CF93DF938C01BF
:10140000D0E0C0E0F801EC0FFD1F6491662341F0CD
:1014100084E997E00E945409892B11F02196F2CFBC
:10142000CE01DF91CF911F910F91089590911103FB
:10143000982329F490911203982381E009F480E025
:101440000895CF93C82F0E94E308982F9C2381E032
:101450009C1380E0CF91089580E00C9472053F9238
:101460004F925F926F927F928F929F92AF92BF92B4
:10147000CF92DF92EF92FF920F931F93CF93DF9360
:10148000712CF6E06F2E44244A94542C80918D07E1
:10149000781608F05FC0C72CD12C6C9C90016D9C15
:1014A000300D11242F57384FF90100811181E2804E
:1014B000F380CEEDD2E04801F0E18F0E911C570190
:1014C00082E1A80EB11C488159818C81840F952F2F
:1014D000911D08171907B4F5481559059CF54A815F
:1014E0005B818D81840F952F911DE816F90654F5C7
:1014F0004A155B053CF580918D0740910B03509197
:101500000C034F5F5F4F50930C0340930B035982C2
:1015100048827816B8F4815080938D07A901B601EE
:1015200090E06817790774F46F5F7F4FE6E03E2E16
:10153000FA013696DA0101900D923A94E1F74A5F8A
:101540005F4FEFCF2696E2E0CC3FDE0709F0BBCF3E
:1015500073949CCFDF91CF911F910F91FF90EF90EB
:10156000DF90CF90BF90AF909F908F907F906F90C3
:101570005F904F903F900895EEEDF2E04FEF5FEFF8
:10158000208131812F3F320731F0811104C02F5F5C
:101590003F4F31832083208131812F3F320731F04B
:1015A000882321F02150310931832083208131812A
:1015B0002038310514F051834083369692E0EC3F99
:1015C000F907F1F608950F931F93CF93DF93AC01C2
:1015D0008091D80281110EC0EEEDF2E030E020E003
:1015E00080819181019629F12F5F3F4F36962530FA
:1015F0003105B1F7CEEDD2E00CEF12E08881998190
:101600008F3F980731F06A817B8123E043E00E949D
:10161000030926960C171D0789F78091D8028823A5
:1016200019F081508093D802DF91CF911F910F91D3
:10163000089596E0929FF001939FF00D1124E252DD
:10164000FD4F518340836D5F7F4F7383628390931F
:10165000D802D0CF88E290E090930A0380930903E8
:101660008EE190E0909308038093070382E08093DB
:1016700000018CEA90E00E94FB0988E00E94160AB3
:10168000882329F081E0809300018093100308955E
:10169000089590E080E008958F929F92AF92BF925C
:1016A0000F931F93CF93DF93CDB7DEB7A1970FB6FC
:1016B000F894DEBF0FBECDBF19A2423008F44AE055
:1016C0008E010F5D1F4F842E912CB12CA12CA501F2
:1016D00094010E941317E62FB901CA01EA3044F5BC
:1016E000E05DD801EE938D01232B242B252B79F778
:1016F00090E080E0109769F0FD0101900020E9F78B
:101700003197AF014A1B5B0BBD0184E997E00E9452
:10171000E306A1960FB6F894DEBF0FBECDBFDF91F2
:10172000CF911F910F91BF90AF909F908F90089590
:10173000E95CD7CF8F929F92AF92BF92CF92DF9208
:10174000EF92FF92CF93DF93C0910E01D0910F01E2
:10175000609110017091110183E4882E9924939473
:10176000A12CB12C95E9C92ED12CE12CF12CCE0164
:1017700003978A379105B0F40E941216A5019401CF
:101780000E94AA166256710981099109EB010E9413
:101790001216A70196010E94AA16665271098109C4
:1017A0009109E5CFD0932C07C0932B0770932E0798
:1017B00060932D0784E08093300780918D078230FD
:1017C00079F096E0989FD0011124AF57B84FEBE223
:1017D000F7E001900D929A95E1F78F5F80938D0766
:1017E000DF91CF91FF90EF90DF90CF90BF90AF90BF
:1017F0009F908F900895CF93DF93D0E0C0E08091C9
:1018000012018C171D0679F070F080918D078230DF
:1018100020F40E949A0B2196F2CF809106038F5FED
:1018200080930603F8CF8F5F80931201DF91CF91F1
:1018300008950C9494160F931F93CF93DF93EC01AC
:1018400088819981009759F02A813B8126173707B3
:1018500030F081E0DF91CF911F910F9108958B01BE
:101860006F5F7F4F0E949718009759F09983888384
:101870001B830A832C813D81232B59F7FC011082A5
:10188000E8CF80E0E7CFEF92FF920F931F93CF93C3
:10189000DF93EC017B018A01BA010E941B0C2881B5
:1018A0003981811114C02115310519F0C9010E9437
:1018B0000E18198218821D821C821B821A82CE0188
:1018C000DF91CF911F910F91FF90EF9008951D83AD
:1018D0000C83B701C9010E945D19F1CFCF92DF924D
:1018E000EF92FF920F931F93CF93DF93CDB7DEB7A5
:1018F00067970FB6F894DEBF0FBECDBF84E190E0CE
:1019000090930A03809309038EE190E0909308037B
:101910008093070382E08093000180910B039091F4
:101920000C031B8A1A8A1D8A1C8A1F8A1E8A4AE097
:101930008E010F5F1F4FB8010E946A16F8010190D7
:101940000020E9F73197AF01401B510BB801CE01E0
:1019500042960E94430C1A8219821C821B821E82AC
:101960001D8246E050E06BEC72E0C8010E94430C1F
:10197000CA88DB88C114D10409F44DC0EE88FF8801
:10198000E114F104A9F08D819E81E80EF91EB701E2
:10199000C8010E941B0C8823F1F129813A818D81B5
:1019A0009E81B601820F931F0E945D19FE82ED8217
:1019B0004D815E8169817A8184E997E00E94E30626
:1019C00089819A81009711F00E940E188A899B895B
:1019D000009711F00E940E1888E00E94210A8823C7
:1019E00059F00E943F0910920C0310920B0384E6F9
:1019F000809313011092100367960FB6F894DEBF20
:101A00000FBECDBFDF91CF911F910F91FF90EF904F
:101A1000DF90CF90089589819A81009711F00E94FC
:101A20000E181A8219821E821D821C821B82C0CF50
:101A30001F920F920FB60F9211248F939F93809154
:101A4000E1009091E100937F9093E10083FF0FC04C
:101A50001092E90091E09093EB001092EC0092E379
:101A60009093ED0010922A0398E09093F00082FF8B
:101A700022C093E09093E9009091F200992319F02D
:101A80009AE39093E80090911B03992341F0909181
:101A90001B03915090931B03911101C05D9A90918B
:101AA0002903992341F090912903915090932903A0
:101AB000911101C0289A84FF18C08091E2008E7EA7
:101AC00081608093E2008091E1008F7E8093E1004D
:101AD00080911C038E7E806180931C039F918F9167
:101AE0000F900FBE0F901F90189580FFF7CF809139
:101AF000E2008E7E80618093E2008091E1008E7E24
:101B00008093E10080911C038E7E8160E5CF1F925F
:101B10000F920FB60F921124CF92DF92EF92FF92A5
:101B20000F931F932F933F934F935F936F937F93E5
:101B30008F939F93AF93BF93EF93FF93CF93DF93D5
:101B4000CDB7DEB76C97DEBFCDBF1092E9008091B4
:101B5000E80083FF25C068E0CE0145960E94D606C6
:101B600082EF8093E8008D8987FF39C09091E8006B
:101B700090FFFCCF982F907609F034C19E894F8951
:101B8000588D2F89F88C911131C0803861F5809182
:101B90001A038093F1001092F1008EEF8093E80019
:101BA0006C960FB6F894DEBF0FBECDBFDF91CF911C
:101BB000FF91EF91BF91AF919F918F917F916F9125
:101BC0005F914F913F912F911F910F91FF90EF9057
:101BD000DF90CF900F900FBE0F901F9018959EEF43
:101BE0009093E800C7CF1092F100D5CF913059F40F
:101BF0008111D3CF4130510581F680911A038D7F39
:101C000080931A03CACF933049F48111C6CF413073
:101C1000510519F680911A038260F2CF953041F494
:101C20008091E80080FFFCCF20682093E300B5CFCF
:101C3000963009F0A9C00B8D1C8D22E01092E900AE
:101C40001092180310921703F2122EC0109216036E
:101C5000109215030E94A5061F8299E09983FA82CB
:101C600091E09E8390EA98879AEF998720911703D5
:101C700030911803275F3F4F3C832B838D83109255
:101C8000E9001092180310921703109316030093A3
:101C9000150349E050E0BE016F5F7F4F80E00E9476
:101CA0007F060E94A50679CF1093160300931503B3
:101CB0000E94BC05DC0112960D911C9101151105C5
:101CC00009F451C1D801ED91FC910480F581E02D1A
:101CD000BE016B5E7F4FC8010995009709F03EC1B8
:101CE000F80100851185EACFF3E0FF120EC08F895D
:101CF000882309F440C0823061F440E867E085E859
:101D00009AE00E940310811148CF81E28093EB009A
:101D100047CF813029F440E86BE089E79AE0F1CFC2
:101D2000833099F70E94BC05DC011296ED90FC907F
:101D30008E010F5F1F4F6801E114F10479F0D701A4
:101D4000ED91FC910680F781E02DB801C70109955E
:101D5000080F111DF701E084F184EECFD8011C9229
:101D6000F60101900020E9F73197BF016C197D0958
:101D700040E0C601C6CF63E67AE0FB01449150E043
:101D800080E80E947F0609CF973009F4BECF9830D3
:101D900021F481E08093F10000CF993009F0FDCE6D
:101DA000837009F0B2CFE7EAF2E081E031E096E338
:101DB0002191222371F08093E9003093EB00DF0141
:101DC00011972C912093EC009093ED008F5F87305A
:101DD00079F78EE78093EA001092EA008F8980936A
:101DE0002A03DBCE8B8D9C8D1092E9001092180394
:101DF000109217039093160380931503898D811118
:101E000092C08E899D89913A49F4813209F07DCF43
:101E100047E050E066E071E080E0B3CF913209F036
:101E200074CF833269F48F89988DB0E0A0E08093FD
:101E3000020190930301A0930401B0930501ADCE7C
:101E4000803269F48091E80082FFFCCF67E086E091
:101E500091E00E94D6068BEF8093E8009ECE8232FE
:101E600009F09BCE8F8980930D01EEEFFFE78591FE
:101E700094918B3F9C4D51F1E0E0F8E08091060198
:101E800090910701A0910801B0910901803B944015
:101E9000A105B105F1F480910D0180FD1AC0EE3F5E
:101EA0008AE0F80789F587E797E791838083809137
:101EB00060008093190388E19BE00FB6F894A89521
:101EC000809360000FBE9093600067CEEEEFFAE063
:101ED000D5CF808191818737974709F05ECEA8954D
:101EE00080916000886180936000809119038093E5
:101EF0006000EE3F2AE0F20789F08091FE0A90919F
:101F0000FF0A9183808349CE80819181873798072A
:101F100051F29093FF0A8093FE0AC5CF1092FF0AF8
:101F20001092FE0A3ACE0E94BC05DC0112960D9179
:101F30001C910115110509F4E8CED801ED91FC9131
:101F40000190F081E02DBE016B5E7F4FC8010995C5
:101F5000811123CEF80100851185EBCF18161906E3
:101F60000CF41BCED2CEF1E0FF12BECE67E67AE0D3
:101F700004CF1F920F920FB60F9211242F933F930D
:101F80008F939F93AF93BF938091FC029091FD023A
:101F9000A091FE02B091FF023091D90223E0230FFD
:101FA0002D3758F50196A11DB11D2093D9028093BC
:101FB000FC029093FD02A093FE02B093FF02809179
:101FC000DA029091DB02A091DC02B091DD02019671
:101FD000A11DB11D8093DA029093DB02A093DC0275
:101FE000B093DD02BF91AF919F918F913F912F915F
:101FF0000F900FBE0F901F90189526E8230F0296A2
:10200000A11DB11DD2CFEF92FF920F931F93CF93DB
:10201000DF93F82E192FE62E042F81E0860F880F0C
:102020000E94510683E00E945106CF2DD12FEC0E65
:10203000FD2EF11CCE15DF05B9F007FF13C0FE0120
:1020400084910E945106182F80E00E94510681233E
:1020500021968111EFCFDF91CF911F910F91FF90CA
:10206000EF9008958881EDCF81E0F5CFE1E3F7E0CF
:102070001382128288EE93E0A0E0B0E0848395831F
:10208000A683B78381EB92E0918380838FEF9FEFEC
:1020900095878487E4E9F7E01382128283EC92E06B
:1020A00091838083EEE0F1E0208131818281938110
:1020B000EEE8F7E0318320839383828380E1848399
:1020C00085838CE0E1E8F7E0DF011D928A95E9F76E
:1020D0000895789484B5826084BD84B5816084BDA0
:1020E00085B5826085BD85B5816085BD80916E00B6
:1020F000816080936E0010928100809181008260E7
:102100008093810080918100816080938100809123
:102110008000816080938000809191008260809334
:102120009100809191008160809391008091900056
:102130008160809390008091C10084608093C10091
:102140008091C10082608093C1008091C100816054
:102150008093C1008091C30081608093C30080910F
:10216000C00082608093C0008091C2008160809333
:10217000C20080917A00846080937A0080917A0016
:10218000826080937A0080917A00816080937A00E7
:1021900080917A00806880937A0010922A031092CE
:1021A0001A0310921C038091D70081608093D7009E
:1021B00080EA8093D80089B5806189BD89B5826045
:1021C00089BD09B400FEFDCF61E070E080E090E0E1
:1021D0000E9435078091D8008F7C80618093D80061
:1021E0008091E000807F8093E0008091E1008E7E0E
:1021F0008093E1008DE08093E200559A209A81EC73
:1022000080937C0085B1806F85B984B1877E84B965
:1022100084B1876E84B95E9A5F988AB1806D8AB9FD
:10222000769A6E9881B3806F81BB899880B38D70E8
:1022300080BB80E58CBD81E08DBD85E090E00E9493
:10224000DE085F9A85E090E00E94DE085E985C9868
:10225000E3E6F6E084918EBD00000DB407FEFDCFED
:10226000319606E0E037F007A9F75C9A81E88093A1
:102270006400809165008160809365000E942C0A53
:1022800080E80E94210A8823A9F05C9885EA8EBD27
:1022900000000DB407FEFDCF5C9A2E982F982D9864
:1022A0008091640080628093640081E083BF8895A0
:1022B00013BEFCCF84E00E94210A882309F448C0A1
:1022C0002D9884E80E94210A8823E1F00E94DC080E
:1022D00088EC90E00E94DE082F9882E090E00E9457
:1022E00094168F3F29F06FEF82E090E00E949C16D9
:1022F00084EF91E00E94DE082F9A84E80E94210A70
:102300008111FBCF84E10E94210A8823E1F00E9421
:10231000DC0888EC90E00E94DE082E9882E090E0D5
:102320000E949416882329F060E082E090E00E94E9
:102330009C1684EF91E00E94DE082E9A84E10E94B0
:10234000210A8111FBCF88EC90E00E94DE08B2CF19
:102350000E94DC0882E090E00E94190C882309F4B6
:1023600096C03E9A3F9A81E090E00E94190C182F87
:102370001470712E81FF13C011112E98C1EFDFEF81
:1023800008E010E06CE6E62EF12C80E40E94210AC1
:10239000882309F47FC02E9A2F9A0E94DC0882E3DA
:1023A00090E00E94DE080E94E3088111F8CF80E1EE
:1023B00080930101EEEDF2E02CEF32E04FEF5FEFA2
:1023C00083E0518340838483858336962E173F07AD
:1023D000C1F70E942C0A0E94FB0B809164008E7F43
:1023E0008093640080917A00806480937A00809169
:1023F0007A0086FDFCCFC0917800D09179000E94D0
:102400001007AB01BC01CE01B0E0A0E0DC019927D0
:1024100088278C019D01040F151F261F371FC90136
:10242000B80120916400216020936400611571055A
:102430008105910511F00E9461160E943F0974E127
:10244000872E912CE0E14E2E512CFAE0CF2ED12C8C
:1024500050E5652E712C60E0262E60E0362E8FB799
:10246000F8944091FC025091FD026091FE0270913F
:10247000FF028FBF80910003882309F4C9C0109226
:1024800000032114310459F30E940000E1CF3E986B
:102490003F9869CF772029F0C430D10511F42E9AE6
:1024A0002F9881E00E9472059E01D7FF04C0222769
:1024B00033272C1B3D0B27703327CE01D7FD079602
:1024C00053E0959587955A95E1F7D7FF05C0019799
:1024D000A801421B530B9A01BC017695762F662703
:1024E00077956795655D7C4FB0E0A0E02801421AC2
:1024F000530A8E3F5FEF950709F43CC048E550E072
:10250000FD01E55FF94F5F014B01F0E88F0E911C73
:102510008F3F9807A1F0F501E41BF50BE4916701EB
:10252000C41AD50AC60ED71EF0E01F01022E01C044
:10253000220C0A94EAF7F6016080262820822115F1
:102540003105A9F0F501E41BF50BE4916701C41A0C
:10255000D50AC80CD91CF0E01F01042C02C0359428
:1025600027940A94E2F7F6016080262820824150E1
:10257000510971F60196A85ABF4F60587F4FA03B92
:10258000B10509F0B6CF0E942C0A8FE090E00E94BE
:10259000DE082196C931D10509F0F7CE772011F078
:1025A0002F9A2D9880E991E00E94DE080E94DC08B5
:1025B00081E090E00E94190C80FFF1CE8AE090E06B
:1025C0000E94190C9FEF980F9E3F08F0E8CE22E37F
:1025D00030E030930A032093090328E330E030937E
:1025E000080320930703CBE0D0E0682F84E997E04D
:1025F0000E945409CE010E94190C2196C131D105C7
:10260000A1F70E942C0A88EE93E00E94DE08C7CE54
:1026100080910103142F181B812F9091010119172C
:1026200048F48F5F891708F02CCF81E083BF88952D
:1026300013BE27CF81E08093000340930103809174
:102640000D0390910E03019690930E0380930D035A
:1026500080911203809311030E94E3088093120378
:10266000C0911003C130A1F180F1C43009F45FC002
:102670000E943F0980910D0390910E03B4010E94C6
:102680004417892B49F48091130390911403019608
:102690009093140380931303809113039091140378
:1026A000029724F0109214031092130380911003E8
:1026B000813009F442C0F0F1823009F471C08430F5
:1026C00009F461C20E942C0ADCCE0E942A0BD0CFF2
:1026D00080E10E94160A882331F080910F03811156
:1026E0001DC0C0930F0380E80E94160A882339F0AA
:1026F00080910F038823A9F0815080930F0384E019
:102700000E94160A882309F4B3CF80910F0388230F
:1027100051F0813009F0ACCF83E006C010920F0376
:10272000E2CF81E0EACF82E080931003A1CF0E9444
:102730006E0C9ECF0E942A0BC5CFD0920A03C09286
:10274000090324E030E0309308032093070388E76F
:1027500096E00E94FB09D0920A03C09209034CE064
:1027600050E0509308034093070380E796E00E94EF
:10277000FB0980910F0358E0859FC0011124049646
:10278000E2E0F0E0F0930A03E0930903909308037A
:10279000809307036EE384E997E00E94540992CF87
:1027A000F12CE12C10E000E0D0E0C0E02091020329
:1027B00030910303C90137FD0F9644E09595879545
:1027C0004A95E1F7AE01481B590B4E305105C0F553
:1027D0008091040390910503BC0197FF02C0615FE3
:1027E0007F4FB4E075956795BA95E1F7F801E61B60
:1027F000F70BBF013E9720F5AEE0A69FF001A79F23
:10280000F00D1124E40FF51FEE0FFF1FE25EFE4FE7
:10281000B2010E9458175C01AE0CBF1CC901B20185
:102820000E94581720814DE756E0B501FE01A4E053
:10283000EE0FFF1FAA95E1F78E0F9F1F0E94ED0775
:102840002196C930D10509F0B1CF0F5F1F4FE0E1EC
:10285000EE0EF11C0530110509F0A6CF28E040E38B
:1028600070E060E090E080E00E94030910920A03AB
:10287000109209031092080310920703609113014C
:1028800070E090E080E04AE00E944C0B41E050E0B4
:1028900062ED72E084E997E00E94E30643E050E0D5
:1028A00064ED72E084E997E00E94E30600919007EE
:1028B00010919107C0918E07D0918F0720E045E0DD
:1028C00059E0B801CE010E94ED0780E80E94210A7C
:1028D0008823A1F080910403909105038031910534
:1028E0002CF4019690930503809304032091130325
:1028F00043E858E0B801CE010E94ED0780E10E9454
:10290000210A8823A9F08091040390910503813561
:10291000FFEF9F072CF0019790930503809304032A
:102920002091130345E059E0B801CE010E94ED0764
:1029300080E20E94210A8823A1F0809102039091F5
:102940000303803191052CF4019690930303809347
:1029500002032091130341EC57E0B801CE010E941D
:10296000ED0780E40E94210A8823A9F080910203E8
:102970009091030381352FEF92072CF001979093EC
:10298000030380930203209113034FEF56E0B80135
:10299000CE010E94ED0784E00E94210A8823B1F055
:1029A00080E20E94210A6091100170911101209132
:1029B0000E0130910F01882309F4AFC0C9010E94B4
:1029C000E30A81E00E94BC0A0E942F0A88E00E946C
:1029D000210A882319F084E08093100380918D07E9
:1029E000811102C00E94FB0BC1E8D7E010E000E0BB
:1029F00084E0F82E80918D078017110609F008F405
:102A000091C04C814F5F40932F07288139813093CB
:102A10002C0720932B078A819B8190932E0780930C
:102A20002D07F09230074430C0F110922F076091CB
:102A30000E0170910F01261737073CF4A9014F5F73
:102A40005F4F50932C0740932B0740912B075091D9
:102A50002C076417750734F44150510950932C0723
:102A600040932B0760911001709111018617970711
:102A70003CF4AC014F5F5F4F50932E0740932D07FE
:102A800040912D0750912E076417750734F441507B
:102A9000510950932E0740932D0740918E07509176
:102AA0008F0760919207640F752F711D26173707E6
:102AB000F4F4205F3F4F42175307CCF44091900746
:102AC0005091910720919307240F352F311D8217C4
:102AD00093076CF44296481759074CF48091130100
:102AE000815080931301811102C0F092100386E09F
:102AF000EBE2F7E0DE0101900D928A95E1F76A8141
:102B00007B812091130347EB59E0888199810E94D2
:102B1000ED070F5F1F4F26966DCFC9010E94E30A94
:102B200080E050CF8230C8F4809106038823A9F05A
:102B3000D0E0C0E0809106038C171D0671F06CF0A8
:102B40000E949A0B80910603815080930603809126
:102B50008D07823010F42196EDCF70920A036092B7
:102B60000903109208031092070389E19AE00E947A
:102B7000FB0960910B0370910C0390E080E04AE048
:102B80000E944C0B9FCD0E946E0C9CCD8F929F9209
:102B9000AF92BF92CF92DF92EF92FF92CF93DF93EB
:102BA000EC01688179818A819B81611571058105BC
:102BB000910521F464E279ED8BE597E02DE133EFA7
:102BC00041E050E00E94AA1649015A019B01AC0164
:102BD000A7EAB1E40E94C9166B017C01ACEEB4EF28
:102BE000A50194010E94D716C60ED71EE81EF91E35
:102BF000F7FE06C081E0C81AD108E10880E8F80AAB
:102C0000C882D982EA82FB82C701B6019F77DF9131
:102C1000CF91FF90EF90DF90CF90BF90AF909F90BB
:102C20008F9008958F929F92AF92BF92CF92DF9232
:102C3000EF92FF926091140170911501809116013D
:102C400090911701611571058105910521F464E2E8
:102C500079ED8BE597E02DE133EF41E050E00E9404
:102C6000AA1649015A019B01AC01A7EAB1E40E94EE
:102C7000C9166B017C01ACEEB4EFA50194010E9472
:102C8000D716C60ED71EE81EF91EF7FE06C081E055
:102C9000C81AD108E10880E8F80AC0921401D0925D
:102CA0001501E0921601F0921701C701B6019F7756
:102CB000FF90EF90DF90CF90BF90AF909F908F905C
:102CC00008956093140170931501809316019093F9
:102CD00017010895BB27FB015527AA27880F991FC5
:102CE000AA1FA41710F0A41B83955051B9F7A05D3B
:102CF000AA3308F0A95DA193009779F7B111B193B8
:102D00001192CB010C948416DC01FC01672F7191A8
:102D10007723E1F7329704C07C916D9370836291C1
:102D2000AE17BF07C8F30895F999FECF92BD81BDD4
:102D3000F89A992780B50895262FF999FECF1FBAE2
:102D400092BD81BD20BD0FB6F894FA9AF99A0FBED4
:102D500001960895052E97FB1EF400940E94C1165B
:102D600057FD07D00E94131707FC03D04EF40C94B4
:102D7000C11650954095309521953F4F4F4F5F4F6D
:102D8000089590958095709561957F4F8F4F9F4FD7
:102D900008950E943517A59F900DB49F900DA49F94
:102DA000800D911D11240895B7FF0C94C9160E943F
:102DB000C916821B930B08952F923F924F925F92F8
:102DC0006F927F928F929F92AF92BF92CF92DF923B
:102DD000EF92FF920F931F93CF93DF93CDB7DEB7A0
:102DE000CA1BDB0B0FB6F894DEBF0FBECDBF099434
:102DF0002A88398848885F846E847D848C849B848B
:102E0000AA84B984C884DF80EE80FD800C811B8198
:102E1000AA81B981CE0FD11D0FB6F894DEBF0FBEC7
:102E2000CDBFED010895A1E21A2EAA1BBB1BFD0127
:102E30000DC0AA1FBB1FEE1FFF1FA217B307E40799
:102E4000F50720F0A21BB30BE40BF50B661F771FF1
:102E5000881F991F1A9469F76095709580959095D1
:102E60009B01AC01BD01CF010895A29FB001B39FAA
:102E7000C001A39F700D811D1124911DB29F700D83
:102E8000811D1124911D0895AA1BBB1B51E107C090
:102E9000AA1FBB1FA617B70710F0A61BB70B881FEA
:102EA000991F5A95A9F780959095BC01CD01089579
:102EB00097FB072E16F4009407D077FD09D00E94E7
:102EC000441707FC05D03EF4909581959F4F0895D7
:102ED000709561957F4F0895EE0FFF1F0590F49157
:102EE000E02D09940F931F93CF93DF9382309105C8
:102EF00010F482E090E0E0919A07F0919B0730E0B7
:102F000020E0B0E0A0E0309799F42115310509F4F4
:102F10004AC0281B390B24303105D8F58A819B81A2
:102F20006115710589F1FB0193838283FE0111C054
:102F3000408151810281138148175907E0F04817F9
:102F4000590799F4109761F012960C931297139603
:102F50001C933296CF01DF91CF911F910F9108956D
:102F600000939A0710939B07F4CF2115310551F078
:102F70004217530738F0A901DB019A01BD01DF01B7
:102F8000F801C1CFEF01F9CF90939B0780939A0787
:102F9000CDCFFE01E20FF31F8193919322503109AF
:102FA00039832883D7CF2091980730919907232B15
:102FB00041F420911A0130911B013093990720931D
:102FC000980720911801309119012115310541F41C
:102FD0002DB73EB740911C0150911D01241B350BAC
:102FE000E0919807F0919907E217F307A0F42E1BE0
:102FF0003F0B2817390778F0AC014E5F5F4F24175D
:10300000350748F04E0F5F1F50939907409398077C
:10301000819391939FCFF0E0E0E09CCFCF93DF933B
:103020000097E9F0FC01329713821282A0919A076F
:10303000B0919B07ED0130E020E01097A1F42081D2
:103040003181820F931F209198073091990728179B
:10305000390709F061C0F0939907E0939807DF9171
:10306000CF910895EA01CE17DF07E8F54A815B8129
:103070009E0141155105B1F7E901FB83EA834991AE
:103080005991C40FD51FEC17FD0761F48081918120
:103090000296840F951FE901998388838281938129
:1030A0009B838A83F0E0E0E012968D919C911397C8
:1030B0000097B9F52D913C911197CD010296820FA1
:1030C000931F20919807309199072817390739F6EF
:1030D000309751F510929B0710929A07B093990779
:1030E000A0939807BCCFD383C28340815181840FC2
:1030F000951FC817D90761F44E5F5F4F888199818A
:10310000480F591F518340838A819B819383828317
:103110002115310509F0B0CFF0939B07E0939A0792
:103120009ECFFD01DC01C0CF13821282D7CFB0E069
:10313000A0E0EDE9F8E10C94DE168C01009751F463
:10314000CB010E9472178C01C801CDB7DEB7E0E158
:103150000C94FA16FC01E60FF71F9C01225031096E
:10316000E217F30708F49DC0D901CD91DC911197C6
:10317000C617D70798F0C530D10530F3CE010497B4
:103180008617970708F3C61BD70B2297C193D193D5
:103190006D937C93CF010E940E18D6CF5B01AC1AC1
:1031A000BD0A4C018C0E9D1EA0919A07B0919B0701
:1031B000512C412CF12CE12C109731F5809198077E
:1031C000909199078815990509F05CC04616570635
:1031D00008F058C08091180190911901009741F4AE
:1031E0008DB79EB740911C0150911D01841B950B1A
:1031F000E817F90708F055C0F0939907E09398078E
:10320000F90171836083A0CF8D919C9111971296E3
:103210006C90129713967C901397A815B90559F5E1
:103220006C0142E0C40ED11CCA14DB0420F1AC01D5
:103230004A195B09DA011296159780F0628273824F
:1032400051834083D9016D937C93E114F10471F0B3
:10325000D7011396FC93EE93129776CF22968C0F9C
:103260009D1FF90191838083F301EFCFF0939B07BA
:10327000E0939A0769CF4816590608F42C017D019E
:10328000D3019ACFCB010E9472177C01009749F0BD
:10329000AE01B8010E945419C8010E940E1887019E
:1032A00053CF10E000E050CFFB01DC0102C00190E1
:1032B0000D9241505040D8F70895FB01DC01019078
:0C32C0000D920020E1F70895F894FFCF74
:1032CC000110FFFFFFFF00E10000000000001000F4
:1032DC00100001640100000000009C078000020047
:1032EC0000000000010000000000000002000000CF
:1032FC0000000000000000000200000001000100BE
:10330C0001000000010000000000000000000000AF
:10331C00030000000000000000000000000000009E
:10332C00010003000000000000000200000000008B
:10333C000000030000000000030002000100010077
:10334C00010000000100010000000200000000006C
:10335C00000000000000020000000000000000005F
:10336C00010000000000030002000000000000004B
:10337C000100030000000000020000000200000039
:10338C00000001000100000001000100020000002B
:10339C00010001000300010000000000000000001B
:1033AC000300000002000300020000000100000006
:1033BC0002000000000000000000000000000000FF
:1033CC0002000000030000000000000000000000EC
:1033DC0003000000000000000000000002000000DC
:1033EC0002000000000000000200000000000000CD
:1033FC0000000000000000000200030000000000BC
:10340C0000000000030000000000000000000000AD
:10341C00030000000200000000000000000000009B
:10342C00020000000000000000000000010000008D
:10343C00020000000200000000000000010000007B
:10344C00000000000000000002000000020001006B
:10345C00020000000000000002000000000000005C
:10346C0000000000020000C180810000000000008C
:10347C0000D0056807F105E6053706F505130600CB
:10348C000000005409E306490B480B53636F726547
:08349C0020002F003130300048
:00000001FF
