:100000000C9443060C946B060C946B060C946B06D4
:100010000C946B060C946B060C946B060C946B069C
:100020000C946B060C946B060C94480F0C94B70F51
:100030000C946B060C946B060C946B060C946B067C
:100040000C946B060C946B060C946B060C946B066C
:100050000C946B060C946B060C946B060C94E911D3
:100060000C946B060C946B060C946B060C946B064C
:100070000C946B060C946B060C946B060C946B063C
:100080000C9433120C946B060C946B060C946B0658
:100090000C946B060C946B060C946B060C946B061C
:1000A0000C946B060C946B060C946B0648554E54DE
:1000B000210A0000000000003E5B4F5B3E3E6B4F9C
:1000C0006B3E1C3E7C3E1C183C7E3C181C577D57EA
:1000D0001C1C5E7F5E1C00183C1800FFE7C3E7FF96
:1000E0000018241800FFE7DBE7FF30483A060E2629
:1000F00029792926407F050507407F05253F5A3C81
:10010000E73C5A7F3E1C1C08081C1C3E7F14227FC3
:1001100022145F5F005F5F06097F017F006689959B
:100120006A606060606094A2FFA29408047E040884
:1001300010207E201008082A1C08081C2A08081E07
:10014000101010100C1E0C1E0C30383E3830060EED
:100150003E0E06000000000000005F0000000700E7
:100160000700147F147F14242A7F2A1223130864A3
:100170006236495620500008070300001C22410047
:100180000041221C002A1C7F1C2A08083E08080087
:100190008070300008080808080000606000201027
:1001A0000804023E5149453E00427F4000724949E1
:1001B00049462141494D331814127F1027454545C2
:1001C000393C4A49493141211109073649494936E3
:1001D000464949291E000014000000403400000078
:1001E00008142241141414141400412214080201AA
:1001F0005909063E415D594E7C1211127C7F4949D6
:1002000049363E414141227F4141413E7F49494972
:10021000417F090909013E414151737F0808087F68
:1002200000417F41002040413F017F081422417F6F
:10023000404040407F021C027F7F0408107F3E4107
:1002400041413E7F090909063E4151215E7F09195E
:100250002946264949493203017F01033F40404076
:100260003F1F2040201F3F4038403F631408146365
:1002700003047804036159494D43007F4141410221
:1002800004081020004141417F0402010204404063
:10029000404040000307080020545478407F284421
:1002A00044383844444428384444287F385454540B
:1002B0001800087E090218A4A49C787F080404781A
:1002C00000447D40002040403D007F102844000055
:1002D000417F40007C047804787C0804047838442A
:1002E000444438FC1824241818242418FC7C0804DE
:1002F0000408485454542404043F44243C404020FF
:100300007C1C2040201C3C4030403C4428102844A9
:100310004C9090907C4464544C440008364100005A
:1003200000770000004136080002010204023C266A
:1003300023263C1EA1A161123A4040207A38545431
:1003400055592155557941215454784121555478B6
:100350004020545579400C1E52721239555555594A
:10036000395454545939555454580000457C41006F
:1003700002457D420001457C40F0292429F0F02807
:100380002528F07C545545002054547C547C0A099F
:100390007F4932494949323248484832324A48480E
:1003A000303A4141217A3A42402078009DA0A07D18
:1003B00039444444393D4040403D3C24FF242448D6
:1003C0007E4943662B2FFC2F2BFF0929F620C0887E
:1003D0007E090320545479410000447D413048484F
:1003E0004A32384040227A007A0A0A727D0D193169
:1003F0007D2629292F28262929292630484D4020C5
:10040000380808080808080808382F10C8ACBA2FA0
:10041000102834FA00007B000008142A1422221449
:100420002A14089500220095AA005500AAAA55AAE8
:1004300055AA000000FF00101010FF00141414FF54
:10044000001010FF00FF1010F010F0141414FC0046
:100450001414F700FF0000FF00FF1414F404FC1450
:100460001417101F10101F101F1414141F00101049
:1004700010F0000000001F101010101F10101010BE
:10048000F010000000FF101010101010101010FFDE
:1004900010000000FF140000FF00FF00001F1017F5
:1004A0000000FC04F414141710171414F404F400DE
:1004B00000FF00F714141414141414F700F71414A4
:1004C00014171410101F101F141414F4141010F02B
:1004D00010F000001F101F0000001F14000000FC9F
:1004E000140000F010F01010FF10FF141414FF148B
:1004F0001010101F00000000F010FFFFFFFFFFF0C2
:10050000F0F0F0F0FFFFFF0000000000FFFF0F0F12
:100510000F0F0F38444438447C2A2A3E147E0202CE
:100520000606027E027E0263554941633844443C1C
:1005300004407E201E2006027E020299A5E7A599AE
:100540001C2A492A1C4C7201724C304A4D4D3030E5
:1005500048784830BC625A463D3E494949007E01D0
:1005600001017E2A2A2A2A2A44445F444440514AEF
:10057000444040444A51400000FF0103E080FF0036
:100580000008086B6B083612362436060F090F0672
:10059000000018180000001010003040FF0101009A
:1005A0001F01011E00191D1712003C3C3C3C0000BD
:1005B000000000F0F89C8E8783878E9CF8F0000086
:1005C000FEFF0303030303070EFCF80000FEFF0316
:1005D00003030303070EFCF80000FFFF0000000008
:1005E000000000FFFF0000FEFF8383838383C7EECC
:1005F0007C380000F8FC0E07030303070EFCF8002C
:10060000003F7FE0C08080C0E07F3FFFFF0101012D
:1006100001010101FFFF0000FFFF0C0C0C0C1C3E50
:1006200077E3C100007FFFC0C0C0C0C0E0703F1FC3
:1006300000001F3F70E0C0C0C0E0703F1F00007F9F
:10064000FFC1C1C1C1C1E3773E1C00001F3F70E084
:10065000C0C0C0E0703F1F000000000001FFFF01AC
:10066000000000D5F08D14A1C881CFD9F1AF2000D2
:100670004F5054494F4E5300504C4159001010FFF9
:100680007FFBFFFFBFFFFFF7FFFDFFFFF77FFFDFF0
:10069000FFFFFB7FFFFFFFEFFEFFFFFBFF7FFF087A
:1006A00010100810081010100800000000000020B2
:1006B000404020000102020102020102214040FFED
:1006C0001F5B3FEBDDFFF7BBEFFD7FE3CBE3FFFFFE
:1006D000C796C7FFFFEFFDFFE3CBE3FFFF7BFFFF05
:1006E000DF7B3F9F6F77ABDBD7CD5FBF77FFFFFF30
:1006F000C1DCD3AF9FAEB0BBBDBDBAD7CC63FF10DA
:10070000110000F0F8F8FCFCFCFCFCFC7C78F870B4
:10071000000000033737CFEFEFEF2F6C6B0B0C03AC
:1007200000000000000000000000000000000000C9
:10073000000000F0F8F8FCFCFCFCFCFC7C78F87095
:100740000000000317372F4F2F2F2F6C6B6B0C03FC
:100750000000000000000000000000000000000099
:10076000000000F0F8F8FCFCFCFCFCFC7C78F87065
:10077000000000033737CFEFEFEF2F6C6B0B0C034C
:100780000000000000000000000000000000000069
:10079000000000F0F8F8FCFCFCFCFCFC7C78F87035
:1007A0000000003337172FEFEFEFEF2C2B0B2C034C
:1007B0000000000000000000000000000000000039
:1007C000001011000070F8787CFCFCFCFCFCFCF8CC
:1007D000F8F0000000030C0B6B6C2FEFEFEFCF373E
:1007E00037030000000000000000000000000000CF
:1007F000000000000070F8787CFCFCFCFCFCFCF8BD
:10080000F8F0000000032C0B2B2CEFEFEFEF2F176D
:10081000373300000000000000000000000000006E
:10082000000000000070F8787CFCFCFCFCFCFCF88C
:10083000F8F0000000030C0B6B6C2FEFEFEFCF37DD
:10084000370300000000000000000000000000006E
:10085000000000000070F8787CFCFCFCFCFCFCF85C
:10086000F8F0000000030CEBEBEC6F6F8F6F6F770D
:10087000170300000000000000000000000000005E
:1008800000000010100000F0F8F8FCFCFCFCFCFC80
:10089000FCF8F8F00000001B07776F6F2F2F2F6F09
:1008A0006F77071B000000F0F8F8FCFCFCFCFCFC78
:1008B000FCF8F8F00000003B37072F2F2F2F2F6F89
:1008C0006F771703000000F0F8F8FCFCFCFCFCFC60
:1008D000FCF8F8F00000001B07776F6F2F2F2F6FC9
:1008E0006F77071B000000F0F8F8FCFCFCFCFCFC38
:1008F000FCF8F8F00000000317776F6F2F2F2F2FF1
:100900002F07373B0010100000F0F878BCBC7CFCCF
:100910007CBCBC78F8F00000001B07746B6B2C2FBC
:100920002C6B6B74071B000000F0F878BCBC7CFCDF
:100930007CBCBC78F8F00000003B37042B2B2C2F3C
:100940002CEBEBF417030000000000000000000097
:10095000000000000000000000F0F878BCBC7CFC47
:100960007CBCBC78F8F00000000D033A3535161752
:100970001635353A030D00000000000000000000AD
:10098000000000000000000000F0F878BCBC7CFC17
:100990007CBCBC78F8F00000000317F4EBEB2C2FC4
:1009A0002C2B2B04373B000000000000000000004F
:1009B000000000000000001012000000B0B8B8787D
:1009C000F8F8F878B8B0B000000000021D7D7D7E18
:1009D0003F3F3F7E7D7D3D020000000000000000A3
:1009E000000000000000000000000000B4B8B8786B
:1009F000F8F8F878B8B8B400000000021D3D3D3E9C
:100A00001F1F1F3E3D3D1D020000000000000000B2
:100A100000000000000000000093028900DC038950
:100A20000070038900DC03890010038900DC03895E
:100A300000E4028900DC03890093028900DC038959
:100A4000006E028900DC03890093028900DC0389BF
:100A500000E4028900DC03890093021301EE011314
:100A600001B8011301EE0113014A014C0400804B4F
:100A7000494C4C533A2000536F756E64204F6666A4
:100A800000536F756E64204F6E004A01FA007201C8
:100A9000FA009F0177014A017D0072017D009F01EC
:100AA0007D004A01FA007201FA004A01FA001501BC
:100AB000FA00EE01FA00B801FA009F01FA00720193
:100AC000FA009F01F4017201FA007201FA004A0172
:100AD0007D0072017D009F0177014A017D00720156
:100AE0007D009F017D004A01FA007201FA001501A4
:100AF000FA001501FA00EE01FA00B801FA009F01B0
:100B0000FA007201FA004A01F4010000FA009302AF
:100B1000FA006E02FA003701FA007201FA00EE01E3
:100B2000770137017D007201FA00EE01FA00B80189
:100B30007D00EE017D007201FA009F017D007201CF
:100B40007D009F017D0072017D009F017701720190
:100B50007D009F01FA007201FA004A01FA00720159
:100B60007D004A017D003701FA007201FA00EE01B2
:100B7000770137017D007201FA00EE01FA00B80139
:100B80007D00EE017D007201FA009F01F4012A024E
:100B9000F4019F01F4019302FA006E02FA0037019A
:100BA000FA007201FA00EE01770137017D0072014F
:100BB000FA00EE01FA004A01FA0072017D004A01D2
:100BC0007D003701FA007201FA00EE01770137016A
:100BD0007D007201FA00EE01FA004A01FA0072018A
:100BE0007D004A017D00B8017D009F017D00B801B4
:100BF0007D009F017D00B80177014A017D0037012A
:100C0000770172017D0072017D00EE017D003701E8
:100C1000FA004A01E8030080080B0002020200000B
:100C2000090400000102020000052400100105244F
:100C300001010104240206052406000107058103C1
:100C400010004009040100020A000000070502022A
:100C5000400000070583024000000403090412015C
:100C60000002EF020140412336800001010203012E
:100C700041726475696E6F204C4C4300417264751B
:100C8000626F7900C71211241FBECFEFDAE0DEBF1A
:100C9000CDBF12E0A0E0B1E0E6E1F9E302C00590CB
:100CA0000D92AA3DB107D9F727E0AAEDB2E001C045
:100CB0001D92AE3BB207E1F716E0C3E4D6E004C0F4
:100CC0002197FE010E94911AC234D107C9F70E94F0
:100CD0000A130C94891C0C9400008091E80208957A
:100CE000E9E1F3E0A0E0B8E000800EBC8111012C46
:100CF0001197A0FDFDCF0192B9F70DB40895FC0145
:100D000080911803882311F13FB7F89482E0809313
:100D1000E9002091F200822F90E01816190614F4D1
:100D200081E090E0882339F0289844E64093170347
:100D30004091F1004083222339F02091F2002111EB
:100D400003C02BE62093E8003FBF08958FEF9FEF8D
:100D500008952FB7F89483E08093E9009091E8001C
:100D6000892F807295FF04C09091F20080E4891B66
:100D70002FBF089580910F0381110DC082E08093F1
:100D80000B0384E080930C0310920E0310920D036A
:100D900081E080930F038BE093E00895CF93DF937E
:100DA0001F92CDB7DEB76983DC01ED91FC91028023
:100DB000F381E02D41E050E0BE016F5F7F4F099568
:100DC0000F90DF91CF91089583E08093E9008091A7
:100DD000F200882319F08AE38093E80008950E94C6
:100DE000A90690E00895CF93DF931F92CDB7DEB7A9
:100DF000FC018485958597FD08C02FEF3FEF35876F
:100E000024870F90DF91CF910895CE0101960E9423
:100E10007F06019719F4898190E0F3CF8FEF9FEF60
:100E2000F0CF0F931F93CF93DF931F92CDB7DEB711
:100E30008C01FC018485958597FF0BC0CE0101963E
:100E40000E947F06019771F4898190E0F8019587EF
:100E50008487F801848595850F90DF91CF911F914C
:100E60000F9108958FEF9FEFF1CFFC018485958559
:100E700097FD0BC09FB7F89482E08093E9008091C2
:100E8000F2009FBF90E0019608959FB7F89482E02A
:100E90008093E9008091F2009FBF90E00895409117
:100EA0000503509106032091030330910403421778
:100EB0005307B4F49091E8009570E1F39091E80045
:100EC00092FD19C08093F100809105039091060373
:100ED00001968F739927892B19F48EEF8093E80080
:100EE00080910503909106030196909306038093E9
:100EF000050381E0089580E00895DF92EF92FF926C
:100F00000F931F93CF93DF93D82E8A01EB017B01C0
:100F1000E40EF51ECE15DF0559F0D7FE12C0FE0116
:100F200084910E944F0721968111F4CF0FEF1FEF9C
:100F3000C801DF91CF911F910F91FF90EF90DF904B
:100F400008958881EECF0F931F93CF93DF931F9265
:100F5000CDB7DEB782E0898342E450E068E17CE00F
:100F600080E80E947D070E94BA06DC0112960D916E
:100F70001C910115110589F0D801ED91FC910280B9
:100F8000F381E02DBE016F5F7F4FC801099597FD8A
:100F900004C0F80100851185ECCF89810F90DF91A5
:100FA000CF911F910F910895615030F02091F10081
:100FB000FC0120830196F8CF289884E680931703DC
:100FC0000895AF92BF92CF92DF92EF92FF920F936C
:100FD0001F93CF93DF936C017B018B01040F151FCF
:100FE000EB015E01AE18BF08C017D10759F0699137
:100FF000D601ED91FC910190F081E02DC60109959B
:10100000892B79F7C501DF91CF911F910F91FF9047
:10101000EF90DF90CF90BF90AF9008953FB7F894D6
:101020008091E4029091E502A091E602B091E7027E
:1010300026B5A89B05C02F3F19F00196A11DB11D33
:101040003FBFBA2FA92F982F8827BC01CD01620F6F
:10105000711D811D911D42E0660F771F881F991F2A
:101060004A95D1F708958F929F92AF92BF92CF92F7
:10107000DF92EF92FF926B017C010E940E084B0100
:101080005C01C114D104E104F104B9F00E940E081E
:10109000681979098A099B09683E734081059105A1
:1010A00080F321E0C21AD108E108F10888EE880E29
:1010B00083E0981EA11CB11CE4CFFF90EF90DF905D
:1010C000CF90BF90AF909F908F9008958F929F92F6
:1010D000AF92BF92CF92DF92EF92FF920F931F9346
:1010E000CF93DF936C017B018A0180910D018823EE
:1010F00009F45CC080911803882309F457C08091DB
:101100000A0380FF05C08091E00082608093E000C8
:10111000E801B12C8AEFA82E93E0892E2AE3922EC3
:10112000209711F4BB20D9F10E94A90681110AC0B1
:10113000AA94AA20D9F161E070E080E090E00E94DA
:101140003308EECF8C171D0611F00CF08C2F9FB7D3
:10115000F8948092E9002091E80025FD02C09FBF2D
:10116000DFCF282F30E0C21BD30BF701815020F0D6
:1011700041914093F100FACFE20EF31EBB2021F023
:101180009092E800B12CEBCF8091E80085FDE7CF8D
:101190009092E800BB24B394209709F3F3CF5D98B5
:1011A00084E680930903101611063CF081E090E07C
:1011B000F6019383828310E000E0C801DF91CF91B4
:1011C0001F910F91FF90EF90DF90CF90BF90AF9065
:1011D0009F908F9008957F928F929F92AF92BF922F
:1011E000CF92DF92EF92FF920F931F93CF93DF93F3
:1011F000DC01FA01D490319694914E5F5F4FCD2D72
:10120000D0E02223E1F001E010E0892F877011F493
:1012100010E000E0E92FE695E695E695E00FF12F66
:10122000F11DEC9F8001ED9F100DFC9F100D11240E
:10123000209FF001219FF00D11244E0F5F1F7E01B2
:10124000EA0EFB1E1E141F040CF0A6C0A038B10548
:101250000CF0A2C09B01290F311D121613060CF0D1
:101260009BC0603471050CF097C04115510509F41D
:1012700093C0062F07709B0177FF02C0295F3F4F85
:1012800083E0359527958A95E1F7F22F77FF04C023
:10129000002311F0FFEFF20F222733272A1B3B0B0D
:1012A000B7FD02C030E020E010E81A1B712E10E8F4
:1012B000E116F1040CF47D2C721A6F2F0F2E000C26
:1012C000770BF62EF094FF3F0CF0F12CE1E0892F24
:1012D000877009F4E0E09695969596959E0F690FB4
:1012E000711D6930710514F098E09F1B9F2C9F0EB3
:1012F000692D70E8670350011124AA0DBB1DA20FD0
:10130000B31FDF9C200D311D1124420F531FC02E2F
:10131000002E000CDD082FEF30E0002E02C0220F5F
:10132000331F0A94E2F720953095832E9F0F99156D
:1013300099F1FD01E75EFC4F7F01B12CA12CA714B0
:1013400028F5FA01EA0DFB1D649170E00C2C02C037
:10135000660F771F0A94E2F797FC05C0F7018081BA
:101360008223862B8083002351F0F6E0F9153CF0B0
:10137000F701E058FF4F80818821872B80831FEF82
:10138000A11AB10A6FEFE61AF60AD9CF93944C0F5F
:101390005D1FA058BF4FCBCFDF91CF911F910F9111
:1013A000FF90EF90DF90CF90BF90AF909F908F9085
:1013B0007F9008952D9A0895BC0190E080E00C94F0
:1013C00033088FB18095807F669B88601C9B84600A
:1013D000089520E191E061FD94E060FD990F62FDC8
:1013E0009295687F269FD0011124A80FA75EBC4F5D
:1013F0008C9140FF03C0892B8C930895909589238D
:10140000FBCFAF92BF92CF92DF92EF92FF920F93FA
:101410001F93CF93DF936B01EC015C01A40EB11C11
:101420007B01E20EF11CCA15DB05E4F48601D7FE50
:1014300002C010E000E0C70121E4E216F10414F05C
:1014400080E490E0081719075CF4C038D10528F44F
:1014500040E0B801CE010E94E9090F5F1F4FEBCFBA
:101460002196E1CFDF91CF911F910F91FF90EF90E7
:10147000DF90CF90BF90AF9008950F931F93CF93BD
:10148000DF938091420781110EC0E4E2F7E090E023
:1014900080E0208131812F3F310521F10196369680
:1014A00085309105B1F7C4E2D7E002E417E0888106
:1014B00099818F3F910531F06A817B8123E043E080
:1014C0000E94010A26960C171D0789F78091420792
:1014D000882319F0815080934207DF91CF911F91AB
:1014E0000F91089526E0289FF001299FF00D112407
:1014F000EC5DF84F80910F019091100191838083F2
:10150000809111019091120103969383828381E06F
:1015100080934207C8CF80E0E9E1F3E081118FEFCB
:10152000002481938193819381930394D1F7109246
:10153000F7021092F6021092F9021092F802089542
:101540002F923F924F925F926F927F928F929F92D3
:10155000AF92BF92CF92DF92EF92FF920F931F93C1
:10156000CF93DF9300D000D01F92CDB7DEB76D30A0
:10157000C9F0409000016090F6027090F702042DCF
:1015800010E06A3049F51092F9021092F80283E0F7
:10159000000F111F8A95E1F7600E711E7092F7021D
:1015A0006092F60281E090E00F900F900F900F9004
:1015B0000F90DF91CF911F910F91FF90EF90DF90EF
:1015C000CF90BF90AF909F908F907F906F905F90E3
:1015D0004F903F902F9008952090F8023090F9029C
:1015E000E5E06E9FC00111248D549F4F9D838C8335
:1015F0006101512CF5E05F1651F18C819D810196BE
:10160000EC81FD81F491F9839D838C83430128E073
:101610002A83898181708B8376018E2D8C198415A4
:10162000E0F4B12CA12CA414A0F490E8E916F10484
:1016300050F4B4016A0D7B1D6034710520F44B81B8
:10164000C7010E94E909EFEFAE1ABE0AECCF19827A
:10165000DDCFFFEFEF1AFF0AE0CF2981269529831E
:101660008A8181508A83800E911E8111D2CF53943A
:10167000C00ED11E96E05912BDCFC101459C800D10
:10168000911D11249093F9028093F8028BCF0F9350
:101690001F93CF93DF938C01D0E0C0E0F801EC0FF3
:1016A000FD1F6491662341F089EA97E00E94A00A39
:1016B000892B11F02196F2CFCE01DF91CF911F91AE
:1016C0000F9108959091FF02982329F490910003BF
:1016D000982381E009F480E00895CF93C82F0E94F9
:1016E000E109982F9C2381E09C1380E0CF9108951D
:1016F00080E00C94700620912307E0912107F0917F
:101700002207CF010296909322078093210722237C
:1017100019F0859194910895808191810895E1E770
:10172000F0E080818D7F80831092910046984798E9
:101730001092DC020895CF92DF92EF92FF92CF9346
:10174000DF930E947B0B811520E8920741F4DF9123
:10175000CF91FF90EF90DF90CF900C948F0B21E012
:101760002093DC02813020E8920751F480911F071A
:101770009091200790932207809321070E947B0B72
:1017800097FD05C02091DB02222309F45BC0209164
:10179000DA02211157C021E02093DD02EC01DF774E
:1017A000209709F052C081E08093DE0246983FE91D
:1017B000C32E3FE0D32EE12CF12CCAEFD0E0E09114
:1017C000A107F091A2070995811103C081E08093E0
:1017D000DE028091DD02882329F08091DE028823D9
:1017E00009F446C047980E947B0B009709F444C057
:1017F0009C01DE010E945A1ADC01CB0129E0B5955B
:10180000A795979587952A95D1F7109290002AE091
:1018100020939100D0929900C09298008093DF02AB
:101820009093E002A093E102B093E20280917100F4
:10183000826080937100DF91CF91FF90EF90DF90F5
:10184000CF9008951092DD02A9CF9E0150E040E0B4
:1018500060E472E48FE090E00E94CF1969017A01A0
:1018600081E0C81AD108E108F1081092DE02A7CF82
:101870004699B8CF479AB7CF8FEF9FEFDC01C5CF1E
:101880009C01E1E7F0E090819D7F90831092230717
:10189000E3E9F7E0F0932207E0932107F0932007B4
:1018A000E0931F073183208384E690E09383828353
:1018B00080E090E8958384830C949B0B9C01E1E786
:1018C000F0E090819D7F908381E0809323073093A7
:1018D0002207209321073093200720931F070C94A1
:1018E0009B0B2F923F924F925F926F927F928F92BB
:1018F0009F92AF92BF92CF92DF92EF92FF920F939F
:101900001F93CF93DF93312C86E0282E44244A94F2
:10191000512C8091B907381608F065C0A32CB12C62
:101920002A9C80012B9C100D11240355184FF8019F
:10193000E080F180C280D380C4E2D7E03701F0E1DB
:101940006F0E711C460182E1880E911C288139813D
:101950008C81820F932F911DE816F906E4F5261568
:101960003705CCF52A813B818D81820F932F911D04
:10197000C816D90684F5281539056CF58091F4024E
:101980009091F50201969093F5028093F4025982AA
:1019900048828091FC02882321F083E992E00E9432
:1019A000400C8091B9073816B0F481508093B90784
:1019B0009801A50190E04817590768F44F5F5F4F01
:1019C00066E0F9013696D90101900D926A95E1F72A
:1019D0002A5F3F4FF0CF2696E7E0C234DE0709F0DA
:1019E000B5CF339496CFDF91CF911F910F91FF9098
:1019F000EF90DF90CF90BF90AF909F908F907F90AF
:101A00006F905F904F903F902F900895E4E2F7E041
:101A10004FEF50E0208131812F3F310531F08111AE
:101A200004C02F5F3F4F31832083208131812F3FBE
:101A3000310531F0882321F0215031093183208391
:101A4000208131812038310514F05183408336964E
:101A500097E0E234F907F1F6089588E290E0909378
:101A6000F9028093F8028EE190E09093F702809360
:101A7000F60282E0809300018CEA90E00E94470B1E
:101A800088E00E94620B882329F081E080930001A6
:101A90008093FE020895089590E080E008958F926B
:101AA0009F92AF92BF920F931F93CF93DF93CDB7C7
:101AB000DEB7A1970FB6F894DEBF0FBECDBF19A257
:101AC000423008F44AE08E010F5D1F4F842E912CA6
:101AD000B12CA12CA50194010E94381AE62FB9015E
:101AE000CA01EA3044F5E05DD801EE938D01232B65
:101AF000242B252B79F790E080E0109769F0FD0109
:101B000001900020E9F73197AF014A1B5B0BBD0143
:101B100089EA97E00E94E107A1960FB6F894DEBF2C
:101B20000FBECDBFDF91CF911F910F91BF90AF90AE
:101B30009F908F900895E95CD7CF6F927F928F929C
:101B40009F92AF92BF92CF92DF92EF92FF920F934C
:101B50001F93CF93DF9310E000E083E4C82EDD24D1
:101B6000D394E12CF12C95E9892E912CA12CB12C48
:101B700024E0622E36E0732E80910E01082E000CB8
:101B8000990B081719070CF043C0C0910F01D091B1
:101B900010016091110170911201CE0103978A37F3
:101BA0009105B0F40E943719A70196010E94CF1940
:101BB0006256710981099109EB010E943719A5014B
:101BC00094010E94CF196652710981099109E5CFEC
:101BD000D0931A07C093190770931C0760931B07D3
:101BE00060921E078091B907823079F0789ED0010B
:101BF0001124A355B84FE9E1F7E0972D01900D921C
:101C00009A95E1F78F5F8093B9070F5F1F4FB4CFAD
:101C1000DF91CF911F910F91FF90EF90DF90CF90C8
:101C2000BF90AF909F908F907F906F900895CF93CB
:101C3000DF93D0E0C0E0809113018C171D0679F08E
:101C400070F08091B907823020F40E949D0D21969A
:101C5000F2CF8091F3028F5F8093F302F8CF8F5F12
:101C600080931301DF91CF9108950C94B9190F93CC
:101C70001F93CF93DF93EC0188819981009759F0EE
:101C80002A813B812617370730F081E0DF91CF9121
:101C90001F910F9108958B016F5F7F4F0E94BC1BB6
:101CA000009759F0998388831B830A832C813D8197
:101CB000232B59F7FC011082E8CF80E0E7CFEF92A9
:101CC000FF920F931F93CF93DF93EC017B018A0167
:101CD000BA010E94370E28813981811114C0211563
:101CE000310519F0C9010E94331B198218821D8227
:101CF0001C821B821A82CE01DF91CF911F910F911E
:101D0000FF90EF9008951D830C83B701C9010E94D5
:101D1000821CF1CFCF92DF92EF92FF920F931F932D
:101D2000CF93DF93CDB7DEB767970FB6F894DEBFDA
:101D30000FBECDBF84E190E09093F9028093F8024A
:101D40008EE190E09093F7028093F60282E0809318
:101D500000018091F4029091F5021B8A1A8A1D8A73
:101D60001C8A1F8A1E8A4AE08E010F5F1F4FB8012E
:101D70000E948F19F80101900020E9F73197AF0117
:101D8000401B510BB801CE0142960E945F0E1A8291
:101D900019821C821B821E821D8246E050E06CEC80
:101DA00072E0C8010E945F0ECA88DB88C114D104AA
:101DB00009F461C0EE88FF88E114F104B1F08D816F
:101DC0009E81E80EF91EB701C8010E94370E8823D4
:101DD00009F451C029813A818D819E81B601820F1B
:101DE000931F0E94821CFE82ED824D815E8169817B
:101DF0007A8189EA97E00E94E10789819A810097B8
:101E000011F00E94331B8A899B89009711F00E9470
:101E1000331B88E00E946D0B8823F1F00E948B0A2F
:101E20001092FE021092B9071092F5021092F4027D
:101E300084E68093140180E490E0909310018093F5
:101E40000F0180E290E0909312018093110181E0F4
:101E5000809313010E94170E67960FB6F894DEBFA9
:101E60000FBECDBFDF91CF911F910F91FF90EF90EB
:101E7000DF90CF90089589819A81009711F00E9498
:101E8000331B1A8219821E821D821C821B82ADCFD7
:101E90001F920F920FB60F9211248F939F938091F0
:101EA000E1009091E100937F9093E10083FF0FC0E8
:101EB0001092E90091E09093EB001092EC0092E315
:101EC0009093ED001092180398E09093F00082FF39
:101ED00022C093E09093E9009091F200992319F0C9
:101EE0009AE39093E80090910903992341F090912F
:101EF0000903915090930903911101C05D9A90914B
:101F00001703992341F09091170391509093170371
:101F1000911101C0289A84FF18C08091E2008E7E42
:101F200081608093E2008091E1008F7E8093E100E8
:101F300080910A038E7E806180930A039F918F9126
:101F40000F900FBE0F901F90189580FFF7CF8091D4
:101F5000E2008E7E80618093E2008091E1008E7EBF
:101F60008093E10080910A038E7E8160E5CF1F920D
:101F70000F920FB60F921124CF92DF92EF92FF9241
:101F80000F931F932F933F934F935F936F937F9381
:101F90008F939F93AF93BF93EF93FF93CF93DF9371
:101FA000CDB7DEB76C97DEBFCDBF1092E900809150
:101FB000E80083FF25C068E0CE0145960E94D40763
:101FC00082EF8093E8008D8987FF39C09091E80007
:101FD00090FFFCCF982F907609F034C19E894F89ED
:101FE000588D2F89F88C911131C0803861F580911E
:101FF00008038093F1001092F1008EEF8093E800C7
:102000006C960FB6F894DEBF0FBECDBFDF91CF91B7
:10201000FF91EF91BF91AF919F918F917F916F91C0
:102020005F914F913F912F911F910F91FF90EF90F2
:10203000DF90CF900F900FBE0F901F9018959EEFDE
:102040009093E800C7CF1092F100D5CF913059F4AA
:102050008111D3CF4130510581F6809108038D7FE6
:1020600080930803CACF933049F48111C6CF413021
:10207000510519F6809108038260F2CF953041F442
:102080008091E80080FFFCCF20682093E300B5CF6B
:10209000963009F0A9C00B8D1C8D22E01092E9004A
:1020A0001092060310920503F2122EC01092040340
:1020B000109203030E94A3071F8299E09983FA827A
:1020C00091E09E8390EA98879AEF99872091050383
:1020D00030910603275F3F4F3C832B838D83109203
:1020E000E900109206031092050310930403009375
:1020F000030349E050E0BE016F5F7F4F80E00E9424
:102100007D070E94A30779CF109304030093030374
:102110000E94BA06DC0112960D911C910115110561
:1021200009F451C1D801ED91FC910480F581E02DB5
:10213000BE016B5E7F4FC8010995009709F03EC153
:10214000F80100851185EACFF3E0FF120EC08F89F8
:10215000882309F440C0823061F440E867E08CE7EE
:102160009CE00E949412811148CF81E28093EB00A1
:1021700047CF813029F440E86BE080E79CE0F1CF65
:10218000833099F70E94BA06DC011296ED90FC901C
:102190008E010F5F1F4F6801E114F10479F0D70140
:1021A000ED91FC910680F781E02DB801C7010995FA
:1021B000080F111DF701E084F184EECFD8011C92C5
:1021C000F60101900020E9F73197BF016C197D09F4
:1021D00040E0C601C6CF6AE57CE0FB01449150E0D7
:1021E00080E80E947D0709CF973009F4BECF983070
:1021F00021F481E08093F10000CF993009F0FDCE09
:10220000837009F0B2CFE8EAF2E081E031E096E3D2
:102210002191222371F08093E9003093EB00DF01DC
:1022200011972C912093EC009093ED008F5F8730F5
:1022300079F78EE78093EA001092EA008F89809305
:102240001803DBCE8B8D9C8D1092E9001092060353
:10225000109205039093040380930303898D8111E9
:1022600092C08E899D89913A49F4813209F07DCFDF
:1022700047E050E066E071E080E0B3CF913209F0D2
:1022800074CF833269F48F89988DB0E0A0E0809399
:10229000020190930301A0930401B0930501ADCE18
:1022A000803269F48091E80082FFFCCF67E086E02D
:1022B00091E00E94D4078BEF8093E8009ECE82329B
:1022C00009F09BCE8F8980930D01EEEFFFE785919A
:1022D00094918B3F9C4D51F1E0E0F8E08091060134
:1022E00090910701A0910801B0910901803B9440B1
:1022F000A105B105F1F480910D0180FD1AC0EE3FFA
:102300008AE0F80789F587E797E7918380838091D2
:1023100060008093070388E19BE00FB6F894A895CE
:10232000809360000FBE9093600067CEEEEFFAE0FE
:10233000D5CF808191818737974709F05ECEA895E8
:102340008091600088618093600080910703809392
:102350006000EE3F2AE0F20789F08091FE0A90913A
:10236000FF0A9183808349CE8081918187379807C6
:1023700051F29093FF0A8093FE0AC5CF1092FF0A94
:102380001092FE0A3ACE0E94BA06DC0112960D9116
:102390001C910115110509F4E8CED801ED91FC91CD
:1023A0000190F081E02DBE016B5E7F4FC801099561
:1023B000811123CEF80100851185EBCF181619067F
:1023C0000CF41BCED2CEF1E0FF12BECE6EE57CE067
:1023D00004CF1F920F920FB60F9211242F933F93A9
:1023E0008F939F93AF93BF938091E9029091EA02FC
:1023F000A091EB02B091EC023091E30223E0230FB5
:102400002D3758F50196A11DB11D2093E30280934D
:10241000E9029093EA02A093EB02B093EC02809160
:10242000E4029091E502A091E602B091E7020196E4
:10243000A11DB11D8093E4029093E502A093E602F2
:10244000B093E702BF91AF919F918F913F912F91F0
:102450000F900FBE0F901F90189526E8230F02963D
:10246000A11DB11DD2CF1F920F920FB60F92112452
:102470002F933F934F935F936F937F938F939F938C
:10248000AF93BF93EF93FF938091DF029091E002AF
:10249000A091E102B091E202892B8A2B8B2B09F4E7
:1024A00040C08091DE0281110BC088B190E4892781
:1024B00088B98091DD02882319F088B1805888B9E5
:1024C0008091DF029091E002A091E102B091E202DE
:1024D000181619061A061B069CF48091DF029091CB
:1024E000E002A091E102B091E2020197A109B109D5
:1024F0008093DF029093E002A093E102B093E202A6
:10250000FF91EF91BF91AF919F918F917F916F91CB
:102510005F914F913F912F910F900FBE0F901F90A1
:1025200018950E949B0BECCFEF92FF920F931F9395
:10253000CF93DF93F82E192FE62E042F81E0860F1C
:10254000880F0E944F0783E00E944F07CF2DD12FA5
:10255000EC0EFD2EF11CCE15DF05B9F007FF13C000
:10256000FE0184910E944F07182F80E00E944F07C0
:10257000812321968111EFCFDF91CF911F910F9190
:10258000FF90EF9008958881EDCF81E0F5CFE3E4EF
:10259000F7E01382128288EE93E0A0E0B0E084833B
:1025A0009583A683B78382EB92E0918380838FEF3C
:1025B0009FEF958784878CE0EDEAF7E0DF011D92BD
:1025C0008A95E9F7E9EAF7E01382128284EC92E057
:1025D000918380838DE696E09093A2078093A10774
:1025E00080E090E89093A00780939F0746983E9ADA
:1025F00047983F9AEFE0F1E0208131818281938119
:10260000E3EAF7E0318320839383828380E184834C
:1026100085830895789484B5826084BD84B5816093
:1026200084BD85B5826085BD85B5816085BD80919D
:102630006E00816080936E00109281008091810015
:10264000826080938100809181008160809381000D
:1026500080918000816080938000809191008260F1
:10266000809391008091910081608093910080918E
:1026700090008160809390008091C100846080937D
:10268000C1008091C10082608093C1008091C1002F
:1026900081608093C1008091C30081608093C300FA
:1026A0008091C00082608093C0008091C2008160F0
:1026B0008093C20080917A00846080937A00809138
:1026C0007A00826080937A0080917A0081608093A2
:1026D0007A0080917A00806880937A0010921803C3
:1026E0001092080310920A038091D70081608093B2
:1026F000D70080EA8093D80089B5806189BD89B50B
:10270000826089BD09B400FEFDCF61E070E080E029
:1027100090E00E9433088091D8008F7C8061809384
:10272000D8008091E000807F8093E0008091E100FC
:102730008E7E8093E1008DE08093E200559A209A8E
:1027400081EC80937C0085B1806F85B984B1877EF0
:1027500084B984B1876E84B95E9A5F988AB1806DBE
:102760008AB9769A6E9881B3806F81BB899880B35D
:102770008D7080BB80E58CBD81E08DBD85E090E0F3
:102780000E94DC095F9A85E090E00E94DC095E9877
:102790005C98E3E6F6E080E796E024912EBD000029
:1027A0000DB407FEFDCF31968E179F07B1F75C9AE7
:1027B00081E880936400809165008160809365006A
:1027C0000E94780B80E80E946D0B8823A9F05C982A
:1027D00085EA8EBD00000DB407FEFDCF5C9A2E98F1
:1027E0002F982D988091640080628093640081E02E
:1027F00083BF889513BEFCCF84E00E946D0B8823B5
:1028000009F448C02D9884E80E946D0B8823E1F0FC
:102810000E94DA0988EC90E00E94DC092F9882E09F
:1028200090E00E94B9198F3F29F06FEF82E090E0AD
:102830000E94C11984EF91E00E94DC092F9A84E87C
:102840000E946D0B8111FBCF84E10E946D0B8823E8
:10285000E1F00E94DA0988EC90E00E94DC092E98F1
:1028600082E090E00E94B919882329F060E082E0BC
:1028700090E00E94C11984EF91E00E94DC092E9A39
:1028800084E10E946D0B8111FBCF88EC90E00E94E7
:10289000DC09B2CF0E94DA0982E090E00E94350E96
:1028A000882309F49BC03E9A3F9A81E08093E80216
:1028B00081E090E00E94350E082F0470702E81FF99
:1028C00013C001112E98C1EFDFEF08E010E08CE695
:1028D000E82EF12C80E40E946D0B882309F483C05C
:1028E0002E9A2F9A0E94DA0982E390E00E94DC0976
:1028F0000E94E1098111F8CF80E1809301018AE80B
:102900009AE00E945E0CE4E2F7E02FEF30E083E013
:102910003183208384838583369607E0E234F00791
:10292000B9F70E94780B0E94170E809164008E7F89
:102930008093640080917A00806480937A00809113
:102940007A0086FDFCCFC0917800D09179000E947A
:102950000E08AB01BC01CE01B0E0A0E0DC0199277C
:1029600088278C019D01040F151F261F371FC901E1
:10297000B801209164002160209364006115710505
:102980008105910511F00E9486190E948B0A70E161
:10299000872E912CE4E02E2E312C0AE010E05CE032
:1029A000652E712C62E0462E512C8FB7F894409121
:1029B000E9025091EA026091EB027091EC028FBF44
:1029C0008091ED02882309F4CCC01092ED0280E0E2
:1029D00090E0892B51F30E940000E1CF1092E802B1
:1029E0003E983F9865CF772029F0C430D10511F487
:1029F0002E9A2F9881E00E9470069E01D7FF04C096
:102A0000222733272C1B3D0B27703327CE01D7FD00
:102A10000796B3E095958795BA95E1F7D7FF05C07E
:102A20000197A801421B530B9A01BC017695762FA2
:102A3000662777956795675E7C4FB0E0A0E0280138
:102A4000421A530A8E3F5FEF950709F43CC048E5F0
:102A500050E0FD01E55FF94F5F014B01F0E88F0E9B
:102A6000911C8F3F9807A1F0F501E41BF50BE49151
:102A70006701C41AD50AC60ED71EF0E01F01022E48
:102A800001C0220C0A94EAF7F60160802628208211
:102A900021153105A9F0F501E41BF50BE49167015F
:102AA000C41AD50AC80CD91CF0E01F01042C02C0BE
:102AB000359427940A94E2F7F60160802628208254
:102AC0004150510971F60196A85ABF4F60587F4F87
:102AD000A03BB10509F0B6CF0E94780B8FE090E0E3
:102AE0000E94DC092196C931D10509F0F3CE772087
:102AF00011F02F9A2D9880E991E00E94DC090E9444
:102B0000DA0981E090E00E94350E80FFEDCE8AE088
:102B100090E00E94350E9FEF980F9E3F08F0E4CEA4
:102B200022E330E03093F9022093F80228E330E00A
:102B30003093F7022093F602CBE0D0E0682F89EAC9
:102B400097E00E94A00ACE010E94350E2196C13165
:102B5000D105A1F70E94780B88EE93E00E94DC0972
:102B6000C3CE8091EE02242F281B822F9091010169
:102B7000291748F48F5F891708F029CF81E083BFB8
:102B8000889513BE24CFD1E0D093ED024093EE029E
:102B90008091FA029091FB0201969093FB02809340
:102BA000FA02809100038093FF020E94E109809362
:102BB0000003C091FE02C130C9F1A8F1C33009F48D
:102BC00072C0C43009F4AEC00E948B0A8091FA0230
:102BD0009091FB0264E170E00E94691A892B49F42C
:102BE00080910103909102030196909302038093D8
:102BF00001038091010390910203029724F0109247
:102C00000203109201038091FE02823009F4C6C0D3
:102C100008F08BC0882309F491C0813009F491C079
:102C20000E94780BD4CE0E942D0DCECF80E10E9461
:102C3000620B882331F08091FD0281111FC0C09387
:102C4000FD0280E80E94620B882339F08091FD022A
:102C50008823B9F081508093FD0284E00E94620BCA
:102C6000882309F4B1CF8091FD02882361F081307F
:102C700009F0AACF83E08093FE02A6CF1092FD0256
:102C8000E0CF81E0E8CF82E08093FE0240E450E0B4
:102C90005093100140930F0180E290E09093120155
:102CA0008093110191CF80E10E94620B882331F063
:102CB0008091FD02811124C0D093FD0280E80E9422
:102CC000620B882339F08091FD028823E1F0815066
:102CD0008093FD0284E00E94620B882331F0809192
:102CE000FD02882391F08130C1F088E00E94620BE0
:102CF000882309F469CF0E948B0A1092FE0264CFE8
:102D00001092FD02DBCF81E0E3CF81E08093FC02F3
:102D10008AE89AE00E945E0CE8CF1092FC020E94C2
:102D20008F0BE3CF0E948A0E4FCF833009F434C259
:102D3000843009F075CF0E948A0E72CF0E942D0D4B
:102D40006FCF1093F9020093F8023092F7022092AD
:102D5000F60288E796E00E94470B1093F902009371
:102D6000F8027092F7026092F60280E796E00E9405
:102D7000470B8091FD0258E0859FC0011124049605
:102D80005092F9024092F8029093F7028093F60273
:102D90006EE389EA97E00E94A00A42CFD12CC12CB1
:102DA000F12CE12CD0E0C0E02091EF023091F00254
:102DB000C90137FD0F9644E0959587954A95E1F74F
:102DC000AE01481B590B4E305105C0F58091F10200
:102DD0009091F202BC0197FF02C0615F7F4FB4E0A7
:102DE00075956795BA95E1F7F701E61BF70BBF01FB
:102DF0003E9720F5AEE0A69FF001A79FF00D1124AD
:102E0000E40FF51FEE0FFF1FE15EFE4FB4010E94BD
:102E10007D1A5C01AC0CBD1CC901B4010E947D1A75
:102E200020814DE756E0B501FE01A4E0EE0FFF1F43
:102E3000AA95E1F78E0F9F1F0E94EB082196C930DB
:102E4000D10509F0B1CFEFEFEE1AFE0AF0E1CF0E97
:102E5000D11C25E0E216F10409F0A4CF28E040E3FC
:102E600070E060E090E080E00E94010A1092F902B8
:102E70001092F8021092F7021092F602609114017B
:102E800070E090E080E04AE00E944F0D41E050E0A9
:102E900063ED72E089EA97E00E94E10743E050E0C9
:102EA00065ED72E089EA97E00E94E107E090A507EE
:102EB000F090A607C091A307D091A40720E045E0B9
:102EC00059E0B701CE010E94EB0880E80E946D0B2B
:102ED0008823A1F08091F1029091F2028032910555
:102EE0002CF401969093F2028093F1022091010359
:102EF00043E858E0B701CE010E94EB0880E10E9450
:102F00006D0B8823A9F08091F1029091F202813536
:102F10003FEF93072CF001979093F2028093F10218
:102F20002091010345E059E0B701CE010E94EB0872
:102F300080E20E946D0B8823A1F08091EF029091B6
:102F4000F002803491052CF401969093F002809366
:102F5000EF022091010341EC57E0B701CE010E943E
:102F6000EB0880E40E946D0B8823A9F08091EF02AA
:102F70009091F0028B374FEF94072CF001979093CC
:102F8000F0028093EF02209101034FEF56E0B7016A
:102F9000CE010E94EB0884E00E946D0B8823A9F00B
:102FA0008091FC02882321F086E091E00E94400C91
:102FB00080E20E946D0B882309F4B7C00E943D0A8D
:102FC00081E00E94060D0E94710C88E00E946D0B4A
:102FD000882319F084E08093FE028091B907811163
:102FE00002C00E94170ECDEAD7E0F12CE12C84E05C
:102FF000D82E8091B9078E151F0409F008F499C0E6
:103000004C814F5F40931D072881398130931A0707
:10301000209319078A819B8190931C0780931B073B
:10302000D0921E074430C0F110921D0760910F012D
:1030300070911001261737073CF4A9014F5F5F4FCD
:1030400050931A07409319074091190750911A0796
:103050006417750734F44150510950931A0740938F
:1030600019076091110170911201861797073CF4BE
:10307000AC014F5F5F4F50931C0740931B0740917B
:103080001B0750911C076417750734F44150510910
:1030900050931C0740931B074091A3075091A4072E
:1030A0006091A707640F752F711D2617370734F538
:1030B000205F3F4F421753070CF54091A5075091F1
:1030C000A6072091A807240F352F311D82179307DB
:1030D000ACF44296481759078CF480911401815042
:1030E0008093140181110AC08091FC02882321F091
:1030F00089E19AE00E945E0CD092FE0286E0E9E14E
:10310000F7E0DE0101900D928A95E1F76A817B81FB
:103110002091010347EB59E0888199810E94EB08D7
:103120005FEFE51AF50A269664CF0E943D0A80E01B
:1031300048CF8230C8F48091F3028823A9F0D0E010
:10314000C0E08091F3028C171D0671F06CF00E94B4
:103150009D0D8091F30281508093F3028091B90715
:10316000823010F42196EDCF81E490E09093F90243
:103170008093F8021092F7021092F6028FE69AE01E
:103180000E94470B6091F4027091F50290E080E09C
:103190004AE00E944F0D44CD1093F9020093F802CB
:1031A0003092F7022092F60281E89AE00E94470BE3
:1031B0001093F9020093F8027092F7026092F602FF
:1031C00087E79AE00E94470B8091FD02A8E08A9F62
:1031D000C0011124D4CD8F929F92AF92BF92CF9213
:1031E000DF92EF92FF92CF93DF93EC0168817981B8
:1031F0008A819B81611571058105910521F464E245
:1032000079ED8BE597E02DE133EF41E050E00E944E
:10321000CF1949015A019B01AC01A7EAB1E40E9410
:10322000EE196B017C01ACEEB4EFA50194010E9494
:10323000FC19C60ED71EE81EF91EF7FE06C081E077
:10324000C81AD108E10880E8F80AC882D982EA825F
:10325000FB82C701B6019F77DF91CF91FF90EF907E
:10326000DF90CF90BF90AF909F908F9008958F92F6
:103270009F92AF92BF92CF92DF92EF92FF926091B6
:103280001501709116018091170190911801611537
:1032900071058105910521F464E279ED8BE597E0F4
:1032A0002DE133EF41E050E00E94CF1949015A016E
:1032B0009B01AC01A7EAB1E40E94EE196B017C010D
:1032C000ACEEB4EFA50194010E94FC19C60ED71E06
:1032D000E81EF91EF7FE06C081E0C81AD108E10811
:1032E00080E8F80AC0921501D0921601E092170109
:1032F000F0921801C701B6019F77FF90EF90DF9021
:10330000CF90BF90AF909F908F90089560931501DC
:103310007093160180931701909318010895BB27AD
:10332000FB015527AA27880F991FAA1FA41710F081
:10333000A41B83955051B9F7A05DAA3308F0A95D8D
:10334000A193009779F7B111B1931192CB010C942D
:10335000A919DC01FC01672F71917723E1F73297FE
:1033600004C07C916D9370836291AE17BF07C8F360
:103370000895F999FECF92BD81BDF89A992780B53D
:103380000895262FF999FECF1FBA92BD81BD20BDA9
:103390000FB6F894FA9AF99A0FBE01960895052E81
:1033A00097FB1EF400940E94E61957FD07D00E9477
:1033B000381A07FC03D04EF40C94E619509540954A
:1033C000309521953F4F4F4F5F4F089590958095D1
:1033D000709561957F4F8F4F9F4F08950E945A1AA5
:1033E000A59F900DB49F900DA49F800D911D112459
:1033F0000895B7FF0C94EE190E94EE19821B930BEF
:1034000008952F923F924F925F926F927F928F9288
:103410009F92AF92BF92CF92DF92EF92FF920F9363
:103420001F93CF93DF93CDB7DEB7CA1BDB0B0FB66D
:10343000F894DEBF0FBECDBF09942A88398848882A
:103440005F846E847D848C849B84AA84B984C884C0
:10345000DF80EE80FD800C811B81AA81B981CE0FB7
:10346000D11D0FB6F894DEBF0FBECDBFED0108959C
:10347000A1E21A2EAA1BBB1BFD010DC0AA1FBB1F78
:10348000EE1FFF1FA217B307E407F50720F0A21BEA
:10349000B30BE40BF50B661F771F881F991F1A9457
:1034A00069F760957095809590959B01AC01BD0181
:1034B000CF010895A29FB001B39FC001A39F700DDB
:1034C000811D1124911DB29F700D811D1124911D2C
:1034D0000895AA1BBB1B51E107C0AA1FBB1FA6175B
:1034E000B70710F0A61BB70B881F991F5A95A9F7AD
:1034F00080959095BC01CD01089597FB072E16F499
:10350000009407D077FD09D00E94691A07FC05D006
:103510003EF4909581959F4F0895709561957F4FEA
:103520000895EE0FFF1F0590F491E02D09940F937D
:103530001F93CF93DF938230910510F482E090E0E7
:10354000E091BC07F091BD0730E020E0B0E0A0E0E2
:10355000309799F42115310509F44AC0281B390B1D
:1035600024303105D8F58A819B816115710589F177
:10357000FB0193838283FE0111C04081518102814E
:10358000138148175907E0F04817590799F4109725
:1035900061F012960C93129713961C933296CF01FA
:1035A000DF91CF911F910F9108950093BC07109365
:1035B000BD07F4CF2115310551F04217530738F0FC
:1035C000A901DB019A01BD01DF01F801C1CFEF01C3
:1035D000F9CF9093BD078093BC07CDCFFE01E20FDA
:1035E000F31F819391932250310939832883D7CFD8
:1035F0002091BA073091BB07232B41F420911B0186
:1036000030911C013093BB072093BA072091190118
:1036100030911A012115310541F42DB73EB7409183
:103620001D0150911E01241B350BE091BA07F0914A
:10363000BB07E217F307A0F42E1B3F0B281739072F
:1036400078F0AC014E5F5F4F2417350748F04E0FFE
:103650005F1F5093BB074093BA07819391939FCF0D
:10366000F0E0E0E09CCFCF93DF930097E9F0FC011E
:10367000329713821282A091BC07B091BD07ED0171
:1036800030E020E01097A1F420813181820F931F58
:103690002091BA073091BB072817390709F061C09C
:1036A000F093BB07E093BA07DF91CF910895EA0149
:1036B000CE17DF07E8F54A815B819E014115510570
:1036C000B1F7E901FB83EA8349915991C40FD51FF2
:1036D000EC17FD0761F4808191810296840F951F9C
:1036E000E90199838883828193819B838A83F0E0B7
:1036F000E0E012968D919C9113970097B9F52D916A
:103700003C911197CD010296820F931F2091BA0729
:103710003091BB072817390739F6309751F51092C9
:10372000BD071092BC07B093BB07A093BA07BCCFEC
:10373000D383C28340815181840F951FC817D90755
:1037400061F44E5F5F4F88819981480F591F518303
:1037500040838A819B81938382832115310509F0FF
:10376000B0CFF093BD07E093BC079ECFFD01DC0115
:10377000C0CF13821282D7CFB0E0A0E0E2ECFBE131
:103780000C94031A8C01009751F4CB010E94971AF4
:103790008C01C801CDB7DEB7E0E10C941F1AFC0123
:1037A000E60FF71F9C0122503109E217F30708F4D6
:1037B0009DC0D901CD91DC911197C617D70798F01C
:1037C000C530D10530F3CE0104978617970708F36B
:1037D000C61BD70B2297C193D1936D937C93CF01D6
:1037E0000E94331BD6CF5B01AC1ABD0A4C018C0E74
:1037F0009D1EA091BC07B091BD07512C412CF12C0E
:10380000E12C109731F58091BA079091BB0788158C
:10381000990509F05CC04616570608F058C080911B
:10382000190190911A01009741F48DB79EB740910C
:103830001D0150911E01841B950BE817F90708F034
:1038400055C0F093BB07E093BA07F9017183608319
:10385000A0CF8D919C91119712966C901297139610
:103860007C901397A815B90559F56C0142E0C40E78
:10387000D11CCA14DB0420F1AC014A195B09DA013E
:103880001296159780F06282738251834083D9012A
:103890006D937C93E114F10471F0D7011396FC93BE
:1038A000EE93129776CF22968C0F9D1FF90191838C
:1038B0008083F301EFCFF093BD07E093BC0769CF9E
:1038C0004816590608F42C017D01D3019ACFCB018B
:1038D0000E94971A7C01009749F0AE01B8010E943E
:1038E000791CC8010E94331B870153CF10E000E010
:1038F00050CFFB01DC0102C001900D9241505040BD
:10390000D8F70895FB01DC0101900D920020E1F74A
:063910000895F894FFCFBA
:103916000110FFFFFFFF00E1000000000000014072
:103926000020000164010000000000BE07800002C4
:10393600000000000001000000000000000200007E
:10394600000000000000000000020000000100016D
:10395600000100000001000000000000000000005F
:10396600000300000000000000000000000000004E
:10397600000100030000000000000002000000003B
:103986000000000300000000000300020001000127
:10399600000100000001000100000002000000001C
:1039A600000000000000000200000000000000000F
:1039B60000010000000000030002000000000000FB
:1039C60000010003000000000002000000020000E9
:1039D60000000001000100000001000100020000DB
:1039E60000010001000300010000000000000000CB
:1039F60000030000000200030002000000010000B6
:103A060000020000000000000000000000000000AE
:103A1600000200000003000000000000000000009B
:103A2600000300000000000000000000000200008B
:103A3600000200000000000000020000000000007C
:103A4600000000000000000000020003000000006B
:103A5600000000000003000000000000000000005D
:103A6600000300000002000000000000000000004B
:103A7600000200000000000000000000000100003D
:103A8600000200000002000000000000000100002B
:103A9600000000000000000000020000000200011B
:103AA600000200000000000000020000000000000C
:103AB6000000000000020000C1808100000000003C
:103AC6000000CE066608EF06E4063507F306110782
:103AD60000000000A00AE1074C0D4B0D53636F7206
:0A3AE6006520002F00313030000091
:00000001FF
