:100000000C9444060C946C060C946C060C946C06D0
:100010000C946C060C946C060C946C060C946C0698
:100020000C946C060C946C060C94300F0C949F0F7F
:100030000C946C060C946C060C946C060C946C0678
:100040000C946C060C946C060C946C060C946C0668
:100050000C946C060C946C060C946C060C94D111E8
:100060000C946C060C946C060C946C060C946C0648
:100070000C946C060C946C060C946C060C946C0638
:100080000C941B120C946C060C946C060C946C066D
:100090000C946C060C946C060C946C060C946C0618
:1000A0000C946C060C946C060C946C0648554E54DB
:1000B000210A0000000000003E5B4F5B3E3E6B4F9C
:1000C0006B3E1C3E7C3E1C183C7E3C181C577D57EA
:1000D0001C1C5E7F5E1C00183C1800FFE7C3E7FF96
:1000E0000018241800FFE7DBE7FF30483A060E2629
:1000F00029792926407F050507407F05253F5A3C81
:10010000E73C5A7F3E1C1C08081C1C3E7F14227FC3
:1001100022145F5F005F5F06097F017F006689959B
:100120006A606060606094A2FFA29408047E040884
:1001300010207E201008082A1C08081C2A08081E07
:10014000101010100C1E0C1E0C30383E3830060EED
:100150003E0E06000000000000005F0000000700E7
:100160000700147F147F14242A7F2A1223130864A3
:100170006236495620500008070300001C22410047
:100180000041221C002A1C7F1C2A08083E08080087
:100190008070300008080808080000606000201027
:1001A0000804023E5149453E00427F4000724949E1
:1001B00049462141494D331814127F1027454545C2
:1001C000393C4A49493141211109073649494936E3
:1001D000464949291E000014000000403400000078
:1001E00008142241141414141400412214080201AA
:1001F0005909063E415D594E7C1211127C7F4949D6
:1002000049363E414141227F4141413E7F49494972
:10021000417F090909013E414151737F0808087F68
:1002200000417F41002040413F017F081422417F6F
:10023000404040407F021C027F7F0408107F3E4107
:1002400041413E7F090909063E4151215E7F09195E
:100250002946264949493203017F01033F40404076
:100260003F1F2040201F3F4038403F631408146365
:1002700003047804036159494D43007F4141410221
:1002800004081020004141417F0402010204404063
:10029000404040000307080020545478407F284421
:1002A00044383844444428384444287F385454540B
:1002B0001800087E090218A4A49C787F080404781A
:1002C00000447D40002040403D007F102844000055
:1002D000417F40007C047804787C0804047838442A
:1002E000444438FC1824241818242418FC7C0804DE
:1002F0000408485454542404043F44243C404020FF
:100300007C1C2040201C3C4030403C4428102844A9
:100310004C9090907C4464544C440008364100005A
:1003200000770000004136080002010204023C266A
:1003300023263C1EA1A161123A4040207A38545431
:1003400055592155557941215454784121555478B6
:100350004020545579400C1E52721239555555594A
:10036000395454545939555454580000457C41006F
:1003700002457D420001457C40F0292429F0F02807
:100380002528F07C545545002054547C547C0A099F
:100390007F4932494949323248484832324A48480E
:1003A000303A4141217A3A42402078009DA0A07D18
:1003B00039444444393D4040403D3C24FF242448D6
:1003C0007E4943662B2FFC2F2BFF0929F620C0887E
:1003D0007E090320545479410000447D413048484F
:1003E0004A32384040227A007A0A0A727D0D193169
:1003F0007D2629292F28262929292630484D4020C5
:10040000380808080808080808382F10C8ACBA2FA0
:10041000102834FA00007B000008142A1422221449
:100420002A14089500220095AA005500AAAA55AAE8
:1004300055AA000000FF00101010FF00141414FF54
:10044000001010FF00FF1010F010F0141414FC0046
:100450001414F700FF0000FF00FF1414F404FC1450
:100460001417101F10101F101F1414141F00101049
:1004700010F0000000001F101010101F10101010BE
:10048000F010000000FF101010101010101010FFDE
:1004900010000000FF140000FF00FF00001F1017F5
:1004A0000000FC04F414141710171414F404F400DE
:1004B00000FF00F714141414141414F700F71414A4
:1004C00014171410101F101F141414F4141010F02B
:1004D00010F000001F101F0000001F14000000FC9F
:1004E000140000F010F01010FF10FF141414FF148B
:1004F0001010101F00000000F010FFFFFFFFFFF0C2
:10050000F0F0F0F0FFFFFF0000000000FFFF0F0F12
:100510000F0F0F38444438447C2A2A3E147E0202CE
:100520000606027E027E0263554941633844443C1C
:1005300004407E201E2006027E020299A5E7A599AE
:100540001C2A492A1C4C7201724C304A4D4D3030E5
:1005500048784830BC625A463D3E494949007E01D0
:1005600001017E2A2A2A2A2A44445F444440514AEF
:10057000444040444A51400000FF0103E080FF0036
:100580000008086B6B083612362436060F090F0672
:10059000000018180000001010003040FF0101009A
:1005A0001F01011E00191D1712003C3C3C3C0000BD
:1005B000000000F0F89C8E8783878E9CF8F0000086
:1005C000FEFF0303030303070EFCF80000FEFF0316
:1005D00003030303070EFCF80000FFFF0000000008
:1005E000000000FFFF0000FEFF8383838383C7EECC
:1005F0007C380000F8FC0E07030303070EFCF8002C
:10060000003F7FE0C08080C0E07F3FFFFF0101012D
:1006100001010101FFFF0000FFFF0C0C0C0C1C3E50
:1006200077E3C100007FFFC0C0C0C0C0E0703F1FC3
:1006300000001F3F70E0C0C0C0E0703F1F00007F9F
:10064000FFC1C1C1C1C1E3773E1C00001F3F70E084
:10065000C0C0C0E0703F1F000000000001FFFF01AC
:10066000000000D5F08D14A1C881CFD9F1AF2000D2
:100670004F5054494F4E5300504C4159001010FFF9
:100680007FFBFFFFBFFFFFF7FFFDFFFFF77FFFDFF0
:10069000FFFFFB7FFFFFFFEFFEFFFFFBFF7FFF087A
:1006A00010100810081010100800000000000020B2
:1006B000404020000102020102020102214040FFED
:1006C0001F5B3FEBDDFFF7BBEFFD7FE3CBE3FFFFFE
:1006D000C796C7FFFFEFFDFFE3CBE3FFFF7BFFFF05
:1006E000DF7B3F9F6F77ABDBD7CD5FBF77FFFFFF30
:1006F000C1DCD3AF9FAEB0BBBDBDBAD7CC63FF10DA
:10070000110000F0F8F8FCFCFCFCFCFC7C78F870B4
:10071000000000033737CFEFEFEF2F6C6B0B0C03AC
:1007200000000000000000000000000000000000C9
:10073000000000F0F8F8FCFCFCFCFCFC7C78F87095
:100740000000000317372F4F2F2F2F6C6B6B0C03FC
:100750000000000000000000000000000000000099
:10076000000000F0F8F8FCFCFCFCFCFC7C78F87065
:10077000000000033737CFEFEFEF2F6C6B0B0C034C
:100780000000000000000000000000000000000069
:10079000000000F0F8F8FCFCFCFCFCFC7C78F87035
:1007A0000000003337172FEFEFEFEF2C2B0B2C034C
:1007B0000000000000000000000000000000000039
:1007C000001011000070F8787CFCFCFCFCFCFCF8CC
:1007D000F8F0000000030C0B6B6C2FEFEFEFCF373E
:1007E00037030000000000000000000000000000CF
:1007F000000000000070F8787CFCFCFCFCFCFCF8BD
:10080000F8F0000000032C0B2B2CEFEFEFEF2F176D
:10081000373300000000000000000000000000006E
:10082000000000000070F8787CFCFCFCFCFCFCF88C
:10083000F8F0000000030C0B6B6C2FEFEFEFCF37DD
:10084000370300000000000000000000000000006E
:10085000000000000070F8787CFCFCFCFCFCFCF85C
:10086000F8F0000000030CEBEBEC6F6F8F6F6F770D
:10087000170300000000000000000000000000005E
:1008800000000010100000F0F8F8FCFCFCFCFCFC80
:10089000FCF8F8F00000001B07776F6F2F2F2F6F09
:1008A0006F77071B000000F0F8F8FCFCFCFCFCFC78
:1008B000FCF8F8F00000003B37072F2F2F2F2F6F89
:1008C0006F771703000000F0F8F8FCFCFCFCFCFC60
:1008D000FCF8F8F00000001B07776F6F2F2F2F6FC9
:1008E0006F77071B000000F0F8F8FCFCFCFCFCFC38
:1008F000FCF8F8F00000000317776F6F2F2F2F2FF1
:100900002F07373B0010100000F0F878BCBC7CFCCF
:100910007CBCBC78F8F00000001B07746B6B2C2FBC
:100920002C6B6B74071B000000F0F878BCBC7CFCDF
:100930007CBCBC78F8F00000003B37042B2B2C2F3C
:100940002CEBEBF417030000000000000000000097
:10095000000000000000000000F0F878BCBC7CFC47
:100960007CBCBC78F8F00000000D033A3535161752
:100970001635353A030D00000000000000000000AD
:10098000000000000000000000F0F878BCBC7CFC17
:100990007CBCBC78F8F00000000317F4EBEB2C2FC4
:1009A0002C2B2B04373B000000000000000000004F
:1009B000000000000000001012000000B0B8B8787D
:1009C000F8F8F878B8B0B000000000021D7D7D7E18
:1009D0003F3F3F7E7D7D3D020000000000000000A3
:1009E000000000000000000000000000B4B8B8786B
:1009F000F8F8F878B8B8B400000000021D3D3D3E9C
:100A00001F1F1F3E3D3D1D020000000000000000B2
:100A100000000000000000000093028900DC038950
:100A20000070038900DC03890010038900DC03895E
:100A300000E4028900DC03890093028900DC038959
:100A4000006E028900DC03890093028900DC0389BF
:100A500000E4028900DC03890093021301EE011314
:100A600001B8011301EE0113014A014C0400804B4F
:100A7000494C4C533A2000536F756E64204F6666A4
:100A800000536F756E64204F6E004A01FA007201C8
:100A9000FA009F0177014A017D0072017D009F01EC
:100AA0007D004A01FA007201FA004A01FA001501BC
:100AB000FA00EE01FA00B801FA009F01FA00720193
:100AC000FA009F01F4017201FA007201FA004A0172
:100AD0007D0072017D009F0177014A017D00720156
:100AE0007D009F017D004A01FA007201FA001501A4
:100AF000FA001501FA00EE01FA00B801FA009F01B0
:100B0000FA007201FA004A01F4010000FA009302AF
:100B1000FA006E02FA003701FA007201FA00EE01E3
:100B2000770137017D007201FA00EE01FA00B80189
:100B30007D00EE017D007201FA009F017D007201CF
:100B40007D009F017D0072017D009F017701720190
:100B50007D009F01FA007201FA004A01FA00720159
:100B60007D004A017D003701FA007201FA00EE01B2
:100B7000770137017D007201FA00EE01FA00B80139
:100B80007D00EE017D007201FA009F01F4012A024E
:100B9000F4019F01F4019302FA006E02FA0037019A
:100BA000FA007201FA00EE01770137017D0072014F
:100BB000FA00EE01FA004A01FA0072017D004A01D2
:100BC0007D003701FA007201FA00EE01770137016A
:100BD0007D007201FA00EE01FA004A01FA0072018A
:100BE0007D004A017D00B8017D009F017D00B801B4
:100BF0007D009F017D00B80177014A017D0037012A
:100C0000770172017D0072017D00EE017D003701E8
:100C1000FA004A01E8030080080B0002020200000B
:100C2000090400000102020000052400100105244F
:100C300001010104240206052406000107058103C1
:100C400010004009040100020A000000070502022A
:100C5000400000070583024000000403090412015C
:100C60000002EF020140412336800001010203012E
:100C700041726475696E6F204C4C4300417264751B
:100C8000626F7900AF12F31811241FBECFEFDAE0C4
:100C9000DEBFCDBF12E0A0E0B1E0E2E5F9E302C0C3
:100CA00005900D92A83DB107D9F727E0A8EDB2E075
:100CB00001C01D92A23BB207E1F716E0C3E4D6E003
:100CC00004C02197FE010E94A41AC234D107C9F7BB
:100CD0000E9404130C949C1C0C9400008091E6026A
:100CE0000895E7E1F3E0A0E0B8E000800EBC8111D8
:100CF000012C1197A0FDFDCF0192B9F70DB4089515
:100D0000FC0180911603882311F13FB7F89482E02B
:100D10008093E9002091F200822F90E018161906C6
:100D200014F481E090E0882339F0289844E6409359
:100D300015034091F1004083222339F02091F20005
:100D4000211103C02BE62093E8003FBF08958FEFE9
:100D50009FEF08952FB7F89483E08093E900909176
:100D6000E800892F807295FF04C09091F20080E422
:100D7000891B2FBF089580910D0381110DC082E062
:100D80008093090384E080930A0310920C0310926D
:100D90000B0381E080930D0389E093E00895CF93E6
:100DA000DF931F92CDB7DEB76983DC01ED91FC9133
:100DB0000280F381E02D41E050E0BE016F5F7F4F84
:100DC00009950F90DF91CF91089583E08093E9001A
:100DD0008091F200882319F08AE38093E800089557
:100DE0000E94AA0690E00895CF93DF931F92CDB79B
:100DF000DEB7FC018485958597FD08C02FEF3FEF96
:100E0000358724870F90DF91CF910895CE01019609
:100E10000E948006019719F4898190E0F3CF8FEF4B
:100E20009FEFF0CF0F931F93CF93DF931F92CDB718
:100E3000DEB78C01FC018485958597FF0BC0CE0140
:100E400001960E948006019771F4898190E0F80173
:100E500095878487F801848595850F90DF91CF91E0
:100E60001F910F9108958FEF9FEFF1CFFC018485C3
:100E7000958597FD0BC09FB7F89482E08093E900B9
:100E80008091F2009FBF90E0019608959FB7F8947B
:100E900082E08093E9008091F2009FBF90E0089586
:100EA0004091030350910403209101033091020308
:100EB00042175307B4F49091E8009570E1F39091D4
:100EC000E80092FD19C08093F10080910303909196
:100ED000040301968F739927892B19F48EEF809361
:100EE000E80080910303909104030196909304031A
:100EF0008093030381E0089580E00895DF92EF92EC
:100F0000FF920F931F93CF93DF93D82E8A01EB01AB
:100F10007B01E40EF51ECE15DF0559F0D7FE12C099
:100F2000FE0184910E94500721968111F4CF0FEFAA
:100F30001FEFC801DF91CF911F910F91FF90EF90AC
:100F4000DF9008958881EECF0F931F93CF93DF93A7
:100F50001F92CDB7DEB782E0898342E450E068E1BA
:100F60007CE080E80E947E070E94BB06DC011296AE
:100F70000D911C910115110589F0D801ED91FC919D
:100F80000280F381E02DBE016F5F7F4FC80109959C
:100F900097FD04C0F80100851185ECCF89810F9081
:100FA000DF91CF911F910F910895615030F0209102
:100FB000F100FC0120830196F8CF289884E6809305
:100FC00015030895AF92BF92CF92DF92EF92FF92F6
:100FD0000F931F93CF93DF936C017B018B01040F61
:100FE000151FEB015E01AE18BF08C017D10759F0FD
:100FF0006991D601ED91FC910190F081E02DC6013F
:101000000995892B79F7C501DF91CF911F910F9138
:10101000FF90EF90DF90CF90BF90AF9008953FB7D3
:10102000F8948091E2029091E302A091E402B091E1
:10103000E50226B5A89B05C02F3F19F00196A11D1A
:10104000B11D3FBFBA2FA92F982F8827BC01CD0112
:10105000620F711D811D911D42E0660F771F881F71
:10106000991F4A95D1F708958F929F92AF92BF92A0
:10107000CF92DF92EF92FF926B017C010E940F08EA
:101080004B015C01C114D104E104F104B9F00E94E8
:101090000F08681979098A099B09683E7340810520
:1010A000910580F321E0C21AD108E108F10888EE29
:1010B000880E83E0981EA11CB11CE4CFFF90EF9036
:1010C000DF90CF90BF90AF909F908F9008958F92B8
:1010D0009F92AF92BF92CF92DF92EF92FF920F93C7
:1010E0001F93CF93DF936C017B018A0180910D01E7
:1010F000882309F45CC080911603882309F457C043
:101100008091080380FF05C08091E0008260809399
:10111000E000E801B12C8AEFA82E93E0892E2AE3A3
:10112000922E209711F4BB20D9F10E94AA068111BA
:101130000AC0AA94AA20D9F161E070E080E090E0B2
:101140000E943408EECF8C171D0611F00CF08C2F86
:101150009FB7F8948092E9002091E80025FD02C035
:101160009FBFDFCF282F30E0C21BD30BF701815088
:1011700020F041914093F100FACFE20EF31EBB2024
:1011800021F09092E800B12CEBCF8091E80085FD32
:10119000E7CF9092E800BB24B394209709F3F3CFF4
:1011A0005D9884E680930703101611063CF081E0F9
:1011B00090E0F6019383828310E000E0C801DF91A4
:1011C000CF911F910F91FF90EF90DF90CF90BF9044
:1011D000AF909F908F9008957F928F929F92AF9241
:1011E000BF92CF92DF92EF92FF920F931F93CF9314
:1011F000DF93DC01FA01D490319694914E5F5F4FFA
:10120000CD2DD0E02223E1F001E010E0892F87709E
:1012100011F410E000E0E92FE695E695E695E00F81
:10122000F12FF11DEC9F8001ED9F100DFC9F100D23
:101230001124209FF001219FF00D11244E0F5F1FFC
:101240007E01EA0EFB1E1E141F040CF0A6C0A0387F
:10125000B1050CF0A2C09B01290F311D1216130617
:101260000CF09BC0603471050CF097C0411551051E
:1012700009F493C0062F07709B0177FF02C0295F16
:101280003F4F83E0359527958A95E1F7F22F77FF59
:1012900004C0002311F0FFEFF20F222733272A1B8F
:1012A0003B0BB7FD02C030E020E010E81A1B712EA6
:1012B00010E8E116F1040CF47D2C721A6F2F0F2E3A
:1012C000000C770BF62EF094FF3F0CF0F12CE1E0D0
:1012D000892F877009F4E0E09695969596959E0F74
:1012E000690F711D6930710514F098E09F1B9F2CE8
:1012F0009F0E692D70E8670350011124AA0DBB1DD4
:10130000A20FB31FDF9C200D311D1124420F531F6C
:10131000C02E002E000CDD082FEF30E0002E02C0A2
:10132000220F331F0A94E2F720953095832E9F0FEA
:10133000991599F1FD01E95EFC4F7F01B12CA12CBB
:10134000A71428F5FA01EA0DFB1D649170E00C2C3E
:1013500002C0660F771F0A94E2F797FC05C0F701F9
:1013600080818223862B8083002351F0F6E0F915DB
:101370003CF0F701E058FF4F80818821872B808364
:101380001FEFA11AB10A6FEFE61AF60AD9CF9394AC
:101390004C0F5D1FA058BF4FCBCFDF91CF911F9156
:1013A0000F91FF90EF90DF90CF90BF90AF909F9004
:1013B0008F907F9008952D9A0895BC0190E080E071
:1013C0000C9434088FB18095807F669B88601C9B4D
:1013D0008460089520E191E061FD94E060FD990F43
:1013E00062FD9295687F269FD0011124A80FA95E07
:1013F000BC4F8C9140FF03C0892B8C93089590952E
:101400008923FBCFAF92BF92CF92DF92EF92FF92F0
:101410000F931F93CF93DF936B01EC015C01A40E3C
:10142000B11C7B01E20EF11CCA15DB05E4F4860158
:10143000D7FE02C010E000E0C70121E4E216F1048B
:1014400014F080E490E0081719075CF4C038D10567
:1014500028F440E0B801CE010E94EA090F5F1F4F57
:10146000EBCF2196E1CFDF91CF911F910F91FF90AC
:10147000EF90DF90CF90BF90AF9008950F931F93A0
:10148000CF93DF938091400781110EC0E2E2F7E035
:1014900090E080E0208131812F3F310521F10196DC
:1014A000369685309105B1F7C2E2D7E000E417E047
:1014B000888199818F3F910531F06A817B8123E09A
:1014C00043E00E94020A26960C171D0789F78091B7
:1014D0004007882319F0815080934007DF91CF9116
:1014E0001F910F91089526E0289FF001299FF00D8C
:1014F0001124EE5DF84F80910E0190910F019183C0
:1015000080838091100190911101039693838283CF
:1015100081E080934007C8CF80E0E7E1F3E08111EC
:101520008FEF002481938193819381930394D1F76A
:101530001092F5021092F4021092F7021092F60245
:1015400008952F923F924F925F926F927F928F9267
:101550009F92AF92BF92CF92DF92EF92FF920F9342
:101560001F93CF93DF9300D000D01F92CDB7DEB78B
:101570006D30C9F0409000016090F4027090F50267
:10158000042D10E06A3049F51092F7021092F6022D
:1015900083E0000F111F8A95E1F7600E711E7092B3
:1015A000F5026092F40281E090E00F900F900F90AE
:1015B0000F900F90DF91CF911F910F91FF90EF90BF
:1015C000DF90CF90BF90AF909F908F907F906F9063
:1015D0005F904F903F902F9008952090F6023090AA
:1015E000F702E5E06E9FC00111248D549F4F9D834B
:1015F0008C836101512CF5E05F1651F18C819D8146
:101600000196EC81FD81F491F9839D838C834301E4
:1016100028E02A83898181708B8376018E2D8C1935
:101620008415E0F4B12CA12CA414A0F490E8E916E0
:10163000F10450F4B4016A0D7B1D6034710520F48F
:101640004B81C7010E94EA09EFEFAE1ABE0AECCF48
:101650001982DDCFFFEFEF1AFF0AE0CF298126952F
:1016600029838A8181508A83800E911E8111D2CF75
:101670005394C00ED11E96E05912BDCFC101459CB6
:10168000800D911D11249093F7028093F6028BCF69
:101690000F931F93CF93DF938C01D0E0C0E0F8014C
:1016A000EC0FFD1F6491662341F087EA97E00E94EA
:1016B000A10A892B11F02196F2CFCE01DF91CF91B3
:1016C0001F910F9108959091FD02982329F4909114
:1016D000FE02982381E009F480E00895CF93C82F9B
:1016E0000E94E209982F9C2381E09C1380E0CF9117
:1016F000089580E00C94710620912107E0911F0766
:10170000F0912007CF0102969093200780931F0746
:10171000222319F0859194910895808191810895F3
:10172000E1E7F0E080818D7F808310929100469800
:1017300047981092DA020895CF92DF92EF92FF92CB
:10174000CF93DF930E947C0B811520E8920741F430
:10175000DF91CF91FF90EF90DF90CF900C94900BA2
:1017600021E02093DA02813020E8920751F4809141
:101770001D0790911E079093200780931F070E94DA
:101780007C0B97FD05C02091D902222309F45BC090
:101790002091D802211157C021E02093DB02EC01F7
:1017A000DF77209709F052C081E08093DC024698F1
:1017B0003FE9C32E3FE0D32EE12CF12CCAEFD0E05D
:1017C000E0919F07F091A0070995811103C081E086
:1017D0008093DC028091DB02882329F08091DC0277
:1017E000882309F446C047980E947C0B009709F4AF
:1017F00044C09C01DE010E946D1ADC01CB0129E08E
:10180000B595A795979587952A95D1F71092900051
:101810002AE020939100D0929900C0929800809382
:10182000DD029093DE02A093DF02B093E00280918C
:101830007100826080937100DF91CF91FF90EF90F3
:10184000DF90CF9008951092DB02A9CF9E0150E067
:1018500040E060E472E48FE090E00E94E2196901E8
:101860007A0181E0C81AD108E108F1081092DC027F
:10187000A7CF4699B8CF479AB7CF8FEF9FEFDC013C
:10188000C5CF9C01E1E7F0E090819D7F90831092AD
:101890002107E1E9F7E0F0932007E0931F07F093B9
:1018A0001E07E0931D073183208384E690E0938335
:1018B000828380E090E8958384830C949C0B9C0148
:1018C000E1E7F0E090819D7F908381E080932107A4
:1018D0003093200720931F0730931E0720931D0786
:1018E0000C949C0B2F923F924F925F926F927F923B
:1018F0008F929F92AF92BF92CF92DF92EF92FF9220
:101900000F931F93CF93DF93312C86E0282E44242E
:101910004A94512C8091AB07381608F066C0329C6F
:1019200080011124E091AC07F091AD07E00FF11FA9
:10193000E080F180C280D380380186E0680E711C9F
:10194000C2E2D7E0570190E1A90EB11C460182E145
:10195000880E911C288139818C81820F932F911DD3
:10196000E816F906CCF52A153B05B4F52A813B812A
:101970008D81820F932F911DC816D9066CF52815FD
:10198000390554F58091F2029091F30201969093FB
:10199000F3028093F202598248828091FA028823EE
:1019A00021F083E992E00E94410C8091AB07381648
:1019B00098F481508093AB07381670F4E091AC072F
:1019C000F091AD07DF01A00FB11FE60DF71D86E016
:1019D00001900D928A95E1F7269680E497E08C17A6
:1019E0009D0709F0B7CF339495CFDF91CF911F9129
:1019F0000F91FF90EF90DF90CF90BF90AF909F90AE
:101A00008F907F906F905F904F903F902F900895B0
:101A1000E2E2F7E04FEF50E0208131812F3F3105C6
:101A200031F0811104C02F5F3F4F3183208320812B
:101A300031812F3F310531F0882321F021503109C8
:101A400031832083208131812038310514F0518386
:101A50004083369697E0E034F907F1F6089588E27E
:101A600090E09093F7028093F6028EE190E09093DD
:101A7000F5028093F40282E0809300018CEA90E00A
:101A80000E94480B88E00E94630B882329F081E0C4
:101A9000809300018093FC020895089590E080E017
:101AA00008958F929F92AF92BF920F931F93CF93FF
:101AB000DF93CDB7DEB7A1970FB6F894DEBF0FBEA8
:101AC000CDBF19A2423008F44AE08E010F5D1F4FCE
:101AD000842E912CB12CA12CA50194010E944B1AAB
:101AE000E62FB901CA01EA3044F5E05DD801EE9372
:101AF0008D01232B242B252B79F790E080E0109784
:101B000069F0FD0101900020E9F73197AF014A1B10
:101B10005B0BBD0187EA97E00E94E207A1960FB632
:101B2000F894DEBF0FBECDBFDF91CF911F910F9113
:101B3000BF90AF909F908F900895E95CD7CF8F9220
:101B40009F92AF92BF92CF92DF92EF92FF92CF938C
:101B5000DF9364E170E0C4E1D0E083E4882E99244F
:101B60009394A12CB12C95E9C92ED12CE12CF12C08
:101B7000CE0103978A379105B0F40E944A19A50156
:101B800094010E94E2196256710981099109EB01E1
:101B90000E944A19A70196010E94E2196652710932
:101BA00081099109E5CFD0931807C0931707709367
:101BB0001A076093190784E080931C078091AB0794
:101BC000823091F096E0A091AC07B091AD07899F6B
:101BD000A00DB11D1124E7E1F7E001900D929A9557
:101BE000E1F78F5F8093AB07DF91CF91FF90EF908C
:101BF000DF90CF90BF90AF909F908F900895CF933C
:101C0000DF93D0E0C0E0809112018C171D0679F0BF
:101C100070F08091AB07823020F40E949F0D2196D6
:101C2000F2CF8091F1028F5F8093F102F8CF8F5F46
:101C300080931201DF91CF9108950C94CC190F93EA
:101C40001F93CF93DF93EC0188819981009759F01E
:101C50002A813B812617370730F081E0DF91CF9151
:101C60001F910F9108958B016F5F7F4F0E94CF1BD3
:101C7000009759F0998388831B830A832C813D81C7
:101C8000232B59F7FC011082E8CF80E0E7CFEF92D9
:101C9000FF920F931F93CF93DF93EC017B018A0197
:101CA000BA010E941F0E28813981811114C02115AB
:101CB000310519F0C9010E94461B198218821D8244
:101CC0001C821B821A82CE01DF91CF911F910F914E
:101CD000FF90EF9008951D830C83B701C9010E9406
:101CE000951CF1CFCF92DF92EF92FF920F931F934B
:101CF000CF93DF93CDB7DEB767970FB6F894DEBF0B
:101D00000FBECDBF84E190E09093F7028093F6027E
:101D10008EE190E09093F5028093F40282E080934C
:101D200000018091F2029091F3021B8A1A8A1D8AA7
:101D30001C8A1F8A1E8A4AE08E010F5F1F4FB8015E
:101D40000E94A219F80101900020E9F73197AF0134
:101D5000401B510BB801CE0142960E94470E1A82D9
:101D600019821C821B821E821D8246E050E06BECB1
:101D700072E0C8010E94470ECA88DB88C114D104F2
:101D800009F461C0EE88FF88E114F104B1F08D819F
:101D90009E81E80EF91EB701C8010E941F0E88231C
:101DA00009F451C029813A818D819E81B601820F4B
:101DB000931F0E94951CFE82ED824D815E81698198
:101DC0007A8187EA97E00E94E20789819A810097E9
:101DD00011F00E94461B8A899B89009711F00E948E
:101DE000461B88E00E946E0B8823F1F00E948C0A4B
:101DF0001092FC021092AB071092F3021092F202C2
:101E000084E68093130180E490E090930F01809327
:101E10000E0180E290E0909311018093100181E027
:101E2000809312010E94FF0D67960FB6F894DEBFF3
:101E30000FBECDBFDF91CF911F910F91FF90EF901B
:101E4000DF90CF90089589819A81009711F00E94C8
:101E5000461B1A8219821E821D821C821B82ADCFF4
:101E60001F920F920FB60F9211248F939F93809120
:101E7000E1009091E100937F9093E10083FF0FC018
:101E80001092E90091E09093EB001092EC0092E345
:101E90009093ED001092160398E09093F00082FF6B
:101EA00022C093E09093E9009091F200992319F0F9
:101EB0009AE39093E80090910703992341F0909161
:101EC0000703915090930703911101C05D9A90917F
:101ED0001503992341F090911503915090931503A8
:101EE000911101C0289A84FF18C08091E2008E7E73
:101EF00081608093E2008091E1008F7E8093E10019
:101F0000809108038E7E8061809308039F918F915A
:101F10000F900FBE0F901F90189580FFF7CF809104
:101F2000E2008E7E80618093E2008091E1008E7EEF
:101F30008093E100809108038E7E8160E5CF1F923F
:101F40000F920FB60F921124CF92DF92EF92FF9271
:101F50000F931F932F933F934F935F936F937F93B1
:101F60008F939F93AF93BF93EF93FF93CF93DF93A1
:101F7000CDB7DEB76C97DEBFCDBF1092E900809180
:101F8000E80083FF25C068E0CE0145960E94D50792
:101F900082EF8093E8008D8987FF39C09091E80037
:101FA00090FFFCCF982F907609F034C19E894F891D
:101FB000588D2F89F88C911131C0803861F580914E
:101FC00006038093F1001092F1008EEF8093E800F9
:101FD0006C960FB6F894DEBF0FBECDBFDF91CF91E8
:101FE000FF91EF91BF91AF919F918F917F916F91F1
:101FF0005F914F913F912F911F910F91FF90EF9023
:10200000DF90CF900F900FBE0F901F9018959EEF0E
:102010009093E800C7CF1092F100D5CF913059F4DA
:102020008111D3CF4130510581F6809106038D7F18
:1020300080930603CACF933049F48111C6CF413053
:10204000510519F6809106038260F2CF953041F474
:102050008091E80080FFFCCF20682093E300B5CF9B
:10206000963009F0A9C00B8D1C8D22E01092E9007A
:102070001092040310920303F2122EC01092020376
:10208000109201030E94A4071F8299E09983FA82AB
:1020900091E09E8390EA98879AEF998720910303B5
:1020A00030910403275F3F4F3C832B838D83109235
:1020B000E9001092040310920303109302030093AB
:1020C000010349E050E0BE016F5F7F4F80E00E9456
:1020D0007E070E94A40779CF1093020300930103A7
:1020E0000E94BB06DC0112960D911C910115110591
:1020F00009F451C1D801ED91FC910480F581E02DE6
:10210000BE016B5E7F4FC8010995009709F03EC183
:10211000F80100851185EACFF3E0FF120EC08F8928
:10212000882309F440C0823061F440E867E08CE71E
:102130009CE00E947C12811148CF81E28093EB00E9
:1021400047CF813029F440E86BE080E79CE0F1CF95
:10215000833099F70E94BB06DC011296ED90FC904B
:102160008E010F5F1F4F6801E114F10479F0D70170
:10217000ED91FC910680F781E02DB801C70109952A
:10218000080F111DF701E084F184EECFD8011C92F5
:10219000F60101900020E9F73197BF016C197D0924
:1021A00040E0C601C6CF6AE57CE0FB01449150E007
:1021B00080E80E947E0709CF973009F4BECF98309F
:1021C00021F481E08093F10000CF993009F0FDCE39
:1021D000837009F0B2CFE7EAF2E081E031E096E304
:1021E0002191222371F08093E9003093EB00DF010D
:1021F00011972C912093EC009093ED008F5F873026
:1022000079F78EE78093EA001092EA008F89809335
:102210001603DBCE8B8D9C8D1092E9001092040387
:10222000109203039093020380930103898D81111F
:1022300092C08E899D89913A49F4813209F07DCF0F
:1022400047E050E066E071E080E0B3CF913209F002
:1022500074CF833269F48F89988DB0E0A0E08093C9
:10226000020190930301A0930401B0930501ADCE48
:10227000803269F48091E80082FFFCCF67E086E05D
:1022800091E00E94D5078BEF8093E8009ECE8232CA
:1022900009F09BCE8F8980930D01EEEFFFE78591CA
:1022A00094918B3F9C4D51F1E0E0F8E08091060164
:1022B00090910701A0910801B0910901803B9440E1
:1022C000A105B105F1F480910D0180FD1AC0EE3F2A
:1022D0008AE0F80789F587E797E791838083809103
:1022E00060008093050388E19BE00FB6F894A89501
:1022F000809360000FBE9093600067CEEEEFFAE02F
:10230000D5CF808191818737974709F05ECEA89518
:1023100080916000886180936000809105038093C4
:102320006000EE3F2AE0F20789F08091FE0A90916A
:10233000FF0A9183808349CE8081918187379807F6
:1023400051F29093FF0A8093FE0AC5CF1092FF0AC4
:102350001092FE0A3ACE0E94BB06DC0112960D9145
:102360001C910115110509F4E8CED801ED91FC91FD
:102370000190F081E02DBE016B5E7F4FC801099591
:10238000811123CEF80100851185EBCF18161906AF
:102390000CF41BCED2CEF1E0FF12BECE6EE57CE097
:1023A00004CF1F920F920FB60F9211242F933F93D9
:1023B0008F939F93AF93BF938091E7029091E80230
:1023C000A091E902B091EA023091E10223E0230FEB
:1023D0002D3758F50196A11DB11D2093E102809380
:1023E000E7029093E802A093E902B093EA02809199
:1023F000E2029091E302A091E402B091E50201961D
:10240000A11DB11D8093E2029093E302A093E40228
:10241000B093E502BF91AF919F918F913F912F9122
:102420000F900FBE0F901F90189526E8230F02966D
:10243000A11DB11DD2CF1F920F920FB60F92112482
:102440002F933F934F935F936F937F938F939F93BC
:10245000AF93BF93EF93FF938091DD029091DE02E3
:10246000A091DF02B091E002892B8A2B8B2B09F41B
:1024700040C08091DC0281110BC088B190E48927B3
:1024800088B98091DB02882319F088B1805888B917
:102490008091DD029091DE02A091DF02B091E00216
:1024A000181619061A061B069CF48091DD029091FD
:1024B000DE02A091DF02B091E0020197A109B1090B
:1024C0008093DD029093DE02A093DF02B093E002DE
:1024D000FF91EF91BF91AF919F918F917F916F91FC
:1024E0005F914F913F912F910F900FBE0F901F90D2
:1024F00018950E949C0BECCFEF92FF920F931F93C5
:10250000CF93DF93F82E192FE62E042F81E0860F4C
:10251000880F0E94500783E00E945007CF2DD12FD3
:10252000EC0EFD2EF11CCE15DF05B9F007FF13C030
:10253000FE0184910E945007182F80E00E945007EE
:10254000812321968111EFCFDF91CF911F910F91C0
:10255000FF90EF9008958881EDCF81E0F5CFCF9384
:10256000DF93E1E4F7E01382128288EE93E0A0E0CB
:10257000B0E084839583A683B78381EB92E0918357
:1025800080838FEF9FEF95878487CBEAD7E018820F
:102590008CE090E00E94AA1A26E0DC01E22F1D9256
:1025A000EA95E9F7FC013696DF011D922A95E9F7D5
:1025B0009A838983E7EAF7E01382128283EC92E040
:1025C000918380838EE696E09093A00780939F0787
:1025D00080E090E890939E0780939D0746983E9AEE
:1025E00047983F9AEEE0F1E020813181828193812A
:1025F000E1EAF7E0318320839383828380E184835F
:102600008583DF91CF910895789484B5826084BDED
:1026100084B5816084BD85B5826085BD85B58160E6
:1026200085BD80916E00816080936E001092810064
:10263000809181008260809381008091810081601F
:1026400080938100809180008160809380008091E0
:1026500091008260809391008091910081608093CD
:102660009100809190008160809390008091C100E2
:1026700084608093C1008091C10082608093C1001A
:102680008091C10081608093C1008091C30081600E
:102690008093C3008091C00082608093C0008091CD
:1026A000C20081608093C20080917A008460809330
:1026B0007A0080917A00826080937A0080917A001B
:1026C000816080937A0080917A00806880937A009C
:1026D0001092160310920603109208038091D700FF
:1026E00081608093D70080EA8093D80089B58061AB
:1026F00089BD89B5826089BD09B400FEFDCF61E066
:1027000070E080E090E00E9434088091D8008F7CD7
:1027100080618093D8008091E000807F8093E0000A
:102720008091E1008E7E8093E1008DE08093E20055
:10273000559A209A81EC80937C0085B1806F85B991
:1027400084B1877E84B984B1876E84B95E9A5F98BC
:102750008AB1806D8AB9769A6E9881B3806F81BB99
:10276000899880B38D7080BB80E58CBD81E08DBD84
:1027700085E090E00E94DD095F9A85E090E00E948C
:10278000DD095E985C98E3E6F6E084918EBD00007A
:102790000DB407FEFDCF319606E0E037F007A9F74C
:1027A0005C9A81E8809364008091650081608093E9
:1027B00065000E94790B80E80E946E0B8823A9F0C7
:1027C0005C9885EA8EBD00000DB407FEFDCF5C9AD3
:1027D0002E982F982D9880916400806280936400D9
:1027E00081E083BF889513BEFCCF84E00E946E0B0E
:1027F000882309F448C02D9884E80E946E0B882332
:10280000E1F00E94DB0988EC90E00E94DD092F983E
:1028100082E090E00E94CC198F3F29F06FEF82E0B8
:1028200090E00E94D41984EF91E00E94DD092F9A74
:1028300084E80E946E0B8111FBCF84E10E946E0B35
:102840008823E1F00E94DB0988EC90E00E94DD091A
:102850002E9882E090E00E94CC19882329F060E055
:1028600082E090E00E94D41984EF91E00E94DD099B
:102870002E9A84E10E946E0B8111FBCF88EC90E0D0
:102880000E94DD09B2CF0E94DB0982E090E00E9445
:102890001D0E882309F49CC03E9A3F9A81E08093E4
:1028A000E60281E090E00E941D0E182F1470712E38
:1028B00081FF13C011112E98C1EFDFEF08E010E087
:1028C0008CE6E82EF12C80E40E946E0B882309F43C
:1028D00084C02E9A2F9A0E94DB0982E390E00E9426
:1028E000DD090E94E2098111F8CF80E180930101A6
:1028F0008AE89AE00E945F0CE2E2F7E020E437E029
:102900004FEF50E083E05183408384838583369684
:102910002E173F07C1F70E94790B0E94FF0D80918F
:1029200064008E7F8093640080917A00806480933D
:102930007A0080917A0086FDFCCFC0917800D0911A
:1029400079000E940F08AB01BC01CE01B0E0A0E00D
:10295000DC01992788278C019D01040F151F261F74
:10296000371FC901B80120916400216020936400E1
:10297000611571058105910511F00E9499190E9458
:102980008C0A70E1872E912CE4E02E2E312C0AE087
:1029900010E05CE0652E712C62E0462E512C8FB762
:1029A000F8944091E7025091E8026091E902709139
:1029B000EA028FBF8091EB02882309F4CCC0109209
:1029C000EB0280E090E0892B51F30E940000E1CF00
:1029D0001092E6023E983F9864CF772029F0C430E9
:1029E000D10511F42E9A2F9881E00E9471069E0164
:1029F000D7FF04C0222733272C1B3D0B277033271A
:102A0000CE01D7FD0796B3E095958795BA95E1F786
:102A1000D7FF05C00197A801421B530B9A01BC01C7
:102A20007695762F662777956795695E7C4FB0E03F
:102A3000A0E02801421A530A8E3F5FEF950709F480
:102A40003CC048E550E0FD01E55FF94F5F014B01F7
:102A5000F0E88F0E911C8F3F9807A1F0F501E41B61
:102A6000F50BE4916701C41AD50AC60ED71EF0E033
:102A70001F01022E01C0220C0A94EAF7F6016080C1
:102A80002628208221153105A9F0F501E41BF50B5C
:102A9000E4916701C41AD50AC80CD91CF0E01F01E3
:102AA000042C02C0359427940A94E2F7F601608062
:102AB000262820824150510971F60196A85ABF4F2D
:102AC00060587F4FA03BB10509F0B6CF0E94790B4B
:102AD0008FE090E00E94DD092196C931D10509F00F
:102AE000F2CE772011F02F9A2D9880E991E00E9484
:102AF000DD090E94DB0981E090E00E941D0E80FF4D
:102B0000ECCE8AE090E00E941D0E9FEF980F9E3F52
:102B100008F0E3CE22E330E03093F7022093F60290
:102B200028E330E03093F5022093F402CBE0D0E0CC
:102B3000682F87EA97E00E94A10ACE010E941D0E2D
:102B40002196C131D105A1F70E94790B88EE93E05F
:102B50000E94DD09C2CE8091EC02242F281B822F17
:102B600090910101291748F48F5F891708F029CF48
:102B700081E083BF889513BE24CFD1E0D093EB02D0
:102B80004093EC028091F8029091F90201969093A3
:102B9000F9028093F8028091FE028093FD020E9468
:102BA000E2098093FE02C091FC02C130C9F1A8F194
:102BB000C33009F472C0C43009F4AEC00E948C0A5C
:102BC0008091F8029091F90264E170E00E947C1A11
:102BD000892B49F48091FF02909100030196909314
:102BE00000038093FF028091FF02909100030297FF
:102BF00024F0109200031092FF028091FC028230B8
:102C000009F4C6C008F08BC0882309F491C0813054
:102C100009F491C00E94790BD4CE0E942F0DCECF23
:102C200080E10E94630B882331F08091FB028111C7
:102C30001FC0C093FB0280E80E94630B882339F019
:102C40008091FB028823B9F081508093FB0284E0DD
:102C50000E94630B882309F4B1CF8091FB02882383
:102C600061F0813009F0AACF83E08093FC02A6CF07
:102C70001092FB02E0CF81E0E8CF82E08093FC027B
:102C800040E450E050930F0140930E0180E290E049
:102C9000909311018093100191CF80E10E94630B0A
:102CA000882331F08091FB02811124C0D093FB0274
:102CB00080E80E94630B882339F08091FB0288230F
:102CC000E1F081508093FB0284E00E94630B882333
:102CD00031F08091FB02882391F08130C1F088E0CF
:102CE0000E94630B882309F469CF0E948C0A10921A
:102CF000FC0264CF1092FB02DBCF81E0E3CF81E0E6
:102D00008093FA028AE89AE00E945F0CE8CF109262
:102D1000FA020E94900BE3CF0E94720E4FCF8330D5
:102D200009F442C2843009F075CF0E94720E72CF4E
:102D30000E942F0D6FCF1093F7020093F60230928E
:102D4000F5022092F40288E796E00E94480B109367
:102D5000F7020093F6027092F5026092F40280E7A7
:102D600096E00E94480B8091FB0258E0859FC001CD
:102D7000112404965092F7024092F6029093F502C5
:102D80008093F4026EE387EA97E00E94A10A42CFA3
:102D9000D12CC12CF12CE12CD0E0C0E02091ED022F
:102DA0003091EE02C90137FD0F9644E09595879565
:102DB0004A95E1F7AE01481B590B4E305105C0F55D
:102DC0008091EF029091F002BC0197FF02C0615F19
:102DD0007F4FB4E075956795BA95E1F7F701E61B6B
:102DE000F70BBF013E9720F5AEE0A69FF001A79F2D
:102DF000F00D1124E40FF51FEE0FFF1FE25EFE4FF2
:102E0000B4010E94901A5C01AC0CBD1CC901B40154
:102E10000E94901A20814DE756E0B501FE01A4E022
:102E2000EE0FFF1FAA95E1F78E0F9F1F0E94EC087F
:102E30002196C930D10509F0B1CFEFEFEE1AFE0AA5
:102E4000F0E1CF0ED11C25E0E216F10409F0A4CF89
:102E500028E040E370E060E090E080E00E94020A39
:102E60001092F7021092F6021092F5021092F402FC
:102E70006091130170E090E080E04AE00E94510D03
:102E800041E050E062ED72E087EA97E00E94E207DD
:102E900043E050E064ED72E087EA97E00E94E207C9
:102EA000E090A307F090A407C091A107D091A207DA
:102EB00020E045E059E0B701CE010E94EC0880E82F
:102EC0000E946E0B8823A1F08091EF029091F00296
:102ED000803291052CF401969093F0028093EF02DA
:102EE0002091FF0243E858E0B701CE010E94EC08B0
:102EF00080E10E946E0B8823A9F08091EF029091EF
:102F0000F00281353FEF93072CF001979093F00288
:102F10008093EF022091FF0245E059E0B701CE0116
:102F20000E94EC0880E20E946E0B8823A1F0809141
:102F3000ED029091EE02803491052CF4019690936D
:102F4000EE028093ED022091FF0241EC57E0B701C1
:102F5000CE010E94EC0880E40E946E0B8823A9F049
:102F60008091ED029091EE028B374FEF94072CF099
:102F700001979093EE028093ED022091FF024FEFB4
:102F800056E0B701CE010E94EC0884E00E946E0B6F
:102F90008823A9F08091FA02882321F086E091E04D
:102FA0000E94410C80E20E946E0B882309F4C5C088
:102FB0000E943E0A81E00E94080D0E94720C88E087
:102FC0000E946E0B882319F084E08093FC028091AC
:102FD000AB07811102C00E94FF0DD0E0C0E0F12CD0
:102FE000E12C84E0D82E8091AB078E151F0409F0E8
:102FF00008F4A7C0E091AC07F091AD07EC0FFD1FFE
:10300000A481AF5FA0931B07208131813093180703
:10301000209317078281938190931A078093190751
:10302000D0921C076081718142815381A430A0F14C
:1030300010921B07E0910E01F0910F012E173F0730
:1030400034F42F5F3F4F30931807209317072091D8
:10305000170730911807E217F30734F421503109AC
:103060003093180720931707209110013091110118
:10307000821793072CF4019690931A0780931907EF
:103080008091190790911A07281739072CF4019796
:1030900090931A07809319078091A1079091A20736
:1030A0002091A507280F392F311D621773073CF5B2
:1030B000605F7F4F8617970714F52091A307309123
:1030C000A4078091A607820F932F911D48175907D7
:1030D000B4F44E5E5F4F241735078CF480911301D2
:1030E00081508093130181110AC08091FA028823D4
:1030F00021F089E19AE00E945F0CD092FC0280915D
:10310000AC079091AD078C0F9D1F26E0E7E1F7E03B
:10311000DC0101900D922A95E1F7FC016281738137
:103120002091FF0247EB59E0808191810E94EC08D9
:10313000FFEFEF1AFF0A269656CF0E943E0A80E064
:103140003ACF8230C8F48091F1028823A9F0D0E010
:10315000C0E08091F1028C171D0671F06CF00E94A6
:103160009F0D8091F10281508093F1028091AB0715
:10317000823010F42196EDCF21E430E03093F70255
:103180002093F6021092F5021092F4028FE69AE074
:103190000E94480B6091F2027091F30290E080E08F
:1031A0004AE00E94510D36CD1093F7020093F602CB
:1031B0003092F5022092F40281E89AE00E94480BD6
:1031C0001093F7020093F6027092F5026092F402F7
:1031D00087E79AE00E94480B8091FB0238E0839FCA
:1031E000C0011124C6CD1092AB078091AC0790911D
:1031F000AD07009711F00C94461B08958F929F9293
:10320000AF92BF92CF92DF92EF92FF92CF93DF9374
:10321000EC01688179818A819B8161157105810545
:10322000910521F464E279ED8BE597E02DE133EF30
:1032300041E050E00E94E21949015A019B01AC01B2
:10324000A7EAB1E40E94011A6B017C01ACEEB4EF75
:10325000A50194010E940F1AC60ED71EE81EF91E82
:10326000F7FE06C081E0C81AD108E10880E8F80A34
:10327000C882D982EA82FB82C701B6019F77DF91BB
:10328000CF91FF90EF90DF90CF90BF90AF909F9045
:103290008F9008958F929F92AF92BF92CF92DF92BC
:1032A000EF92FF92609114017091150180911601C7
:1032B00090911701611571058105910521F464E272
:1032C00079ED8BE597E02DE133EF41E050E00E948E
:1032D000E21949015A019B01AC01A7EAB1E40E943D
:1032E000011A6B017C01ACEEB4EFA50194010E94C0
:1032F0000F1AC60ED71EE81EF91EF7FE06C081E0A3
:10330000C81AD108E10880E8F80AC0921401D092E6
:103310001501E0921601F0921701C701B6019F77DF
:10332000FF90EF90DF90CF90BF90AF909F908F90E5
:103330000895609314017093150180931601909382
:1033400017010895BB27FB015527AA27880F991F4E
:10335000AA1FA41710F0A41B83955051B9F7A05DC4
:10336000AA3308F0A95DA193009779F7B111B19341
:103370001192CB010C94BC19DC01FC01672F7191F7
:103380007723E1F7329704C07C916D93708362914B
:10339000AE17BF07C8F30895F999FECF92BD81BD5E
:1033A000F89A992780B50895262FF999FECF1FBA6C
:1033B00092BD81BD20BD0FB6F894FA9AF99A0FBE5E
:1033C00001960895052E97FB1EF400940E94F919AA
:1033D00057FD07D00E944B1A07FC03D04EF40C9403
:1033E000F91950954095309521953F4F4F4F5F4FBC
:1033F000089590958095709561957F4F8F4F9F4F61
:1034000008950E946D1AA59F900DB49F900DA49FE2
:10341000800D911D11240895B7FF0C94011A0E948C
:10342000011A821B930B08952F923F924F925F9245
:103430006F927F928F929F92AF92BF92CF92DF92C4
:10344000EF92FF920F931F93CF93DF93CDB7DEB729
:10345000CA1BDB0B0FB6F894DEBF0FBECDBF0994BD
:103460002A88398848885F846E847D848C849B8414
:10347000AA84B984C884DF80EE80FD800C811B8122
:10348000AA81B981CE0FD11D0FB6F894DEBF0FBE51
:10349000CDBFED010895A1E21A2EAA1BBB1BFD01B1
:1034A0000DC0AA1FBB1FEE1FFF1FA217B307E40723
:1034B000F50720F0A21BB30BE40BF50B661F771F7B
:1034C000881F991F1A9469F760957095809590955B
:1034D0009B01AC01BD01CF010895A29FB001B39F34
:1034E000C001A39F700D811D1124911DB29F700D0D
:1034F000811D1124911D0895AA1BBB1B51E107C01A
:10350000AA1FBB1FA617B70710F0A61BB70B881F73
:10351000991F5A95A9F780959095BC01CD01089502
:1035200097FB072E16F4009407D077FD09D00E9470
:103530007C1A07FC05D03EF4909581959F4F089525
:10354000709561957F4F0895EE0FFF1F0590F491E0
:10355000E02D09940F931F93CF93DF938230910551
:1035600010F482E090E0E091B007F091B10730E014
:1035700020E0B0E0A0E0309799F42115310509F47E
:103580004AC0281B390B24303105D8F58A819B812C
:103590006115710589F1FB0193838283FE0111C0DE
:1035A000408151810281138148175907E0F0481783
:1035B000590799F4109761F012960C93129713968D
:1035C0001C933296CF01DF91CF911F910F910895F7
:1035D0000093B0071093B107F4CF2115310551F0D6
:1035E0004217530738F0A901DB019A01BD01DF0141
:1035F000F801C1CFEF01F9CF9093B1078093B007E5
:10360000CDCFFE01E20FF31F819391932250310938
:1036100039832883D7CF2091AE073091AF07232B72
:1036200041F420911A0130911B013093AF07209390
:10363000AE0720911801309119012115310541F48F
:103640002DB73EB740911C0150911D01241B350B35
:10365000E091AE07F091AF07E217F307A0F42E1B3D
:103660003F0B2817390778F0AC014E5F5F4F2417E6
:10367000350748F04E0F5F1F5093AF074093AE07DA
:10368000819391939FCFF0E0E0E09CCFCF93DF93C5
:103690000097E9F0FC01329713821282A091B007E3
:1036A000B091B107ED0130E020E01097A1F4208146
:1036B0003181820F931F2091AE073091AF072817F9
:1036C000390709F061C0F093AF07E093AE07DF91CF
:1036D000CF910895EA01CE17DF07E8F54A815B81B3
:1036E0009E0141155105B1F7E901FB83EA83499138
:1036F0005991C40FD51FEC17FD0761F480819181AA
:103700000296840F951FE9019983888382819381B2
:103710009B838A83F0E0E0E012968D919C91139751
:103720000097B9F52D913C911197CD010296820F2A
:10373000931F2091AE073091AF072817390739F64C
:10374000309751F51092B1071092B007B093AF07C0
:10375000A093AE07BCCFD383C28340815181840F35
:10376000951FC817D90761F44E5F5F4F8881998113
:10377000480F591F518340838A819B8193838283A1
:103780002115310509F0B0CFF093B107E093B007F0
:103790009ECFFD01DC01C0CF13821282D7CFB0E0F3
:1037A000A0E0E5EDFBE10C94161A8C01009751F4B2
:1037B000CB010E94AA1A8C01C801CDB7DEB7E0E1A7
:1037C0000C94321AFC01E60FF71F9C0122503109BC
:1037D000E217F30708F49DC0D901CD91DC91119750
:1037E000C617D70798F0C530D10530F3CE0104973E
:1037F0008617970708F3C61BD70B2297C193D1935F
:103800006D937C93CF010E94461BD6CF5B01AC1A0F
:10381000BD0A4C018C0E9D1EA091B007B091B1075E
:10382000512C412CF12CE12C109731F58091AE07F1
:103830009091AF078815990509F05CC046165706A8
:1038400008F058C08091180190911901009741F437
:103850008DB79EB740911C0150911D01841B950BA3
:10386000E817F90708F055C0F093AF07E093AE07EB
:10387000F90171836083A0CF8D919C91119712966D
:103880006C90129713967C901397A815B90559F56B
:103890006C0142E0C40ED11CCA14DB0420F1AC015F
:1038A0004A195B09DA011296159780F062827382D9
:1038B00051834083D9016D937C93E114F10471F03D
:1038C000D7011396FC93EE93129776CF22968C0F26
:1038D0009D1FF90191838083F301EFCFF093B1072E
:1038E000E093B00769CF4816590608F42C017D0112
:1038F000D3019ACFCB010E94AA1A7C01009749F00C
:10390000AE01B8010E948C1CC8010E94461B8701B1
:1039100053CF10E000E050CFFB01DC0102C001906A
:103920000D9241505040D8F70895FB01DC01019001
:103930000D920020E1F7089516E0C3E4D6E004C03C
:10394000FE010E94A41A2196C434D107C9F7F89445
:02395000FFCFA7
:103952000110FFFFFFFF00E1000000000000400037
:1039620020000164010000000000B2078000020094
:103972000000000001000000000000000200000042
:103982000000000000000000020000000100010031
:103992000100000001000000000000000000000023
:1039A2000300000000000000000000000000000012
:1039B20001000300000000000000020000000000FF
:1039C20000000300000000000300020001000100EB
:1039D20001000000010001000000020000000000E0
:1039E20000000000000002000000000000000000D3
:1039F20001000000000003000200000000000000BF
:103A020001000300000000000200000002000000AC
:103A1200000001000100000001000100020000009E
:103A2200010001000300010000000000000000008E
:103A32000300000002000300020000000100000079
:103A42000200000000000000000000000000000072
:103A5200020000000300000000000000000000005F
:103A6200030000000000000000000000020000004F
:103A72000200000000000000020000000000000040
:103A8200000000000000000002000300000000002F
:103A92000000000003000000000000000000000021
:103AA200030000000200000000000000000000000F
:103AB2000200000000000000000000000100000001
:103AC20002000000020000000000000001000000EF
:103AD20000000000000000000200000002000100DF
:103AE20002000000000000000200000000000000D0
:103AF20000000000020000C1808100000000000000
:103B020000CF066708F006E5063607F4061207003E
:103B1200000000A10AE2074E0D4D0D53636F72655E
:083B220020002F0031303000BB
:00000001FF
