:100000000C9447050C946F050C946F050C946F05C8
:100010000C946F050C946F050C946F050C946F0590
:100020000C946F050C946F050C941B0D0C948A0DA9
:100030000C946F050C946F050C946F050C946F0570
:100040000C946F050C946F050C946F050C946F0560
:100050000C946F050C946F050C946F050C94BC0FF9
:100060000C946F050C946F050C946F050C946F0540
:100070000C946F050C946F050C946F050C946F0530
:100080000C946F050C946F050C946F050C946F0520
:100090000C946F050C946F050C946F050C946F0510
:1000A0000C946F050C946F050C946F050000000014
:1000B000003E5B4F5B3E3E6B4F6B3E1C3E7C3E1CEE
:1000C000183C7E3C181C577D571C1C5E7F5E1C0034
:1000D000183C1800FFE7C3E7FF0018241800FFE7EB
:1000E000DBE7FF30483A060E2629792926407F05AE
:1000F0000507407F05253F5A3CE73C5A7F3E1C1CC4
:1001000008081C1C3E7F14227F22145F5F005F5F83
:1001100006097F017F006689956A6060606060946F
:10012000A2FFA29408047E040810207E2010080874
:100130002A1C08081C2A08081E101010100C1E0C7F
:100140001E0C30383E3830060E3E0E060000000011
:100150000000005F00000007000700147F147F14F8
:10016000242A7F2A1223130864623649562050003D
:1001700008070300001C2241000041221C002A1C29
:100180007F1C2A08083E0808008070300008080814
:100190000808000060600020100804023E51494534
:1001A0003E00427F400072494949462141494D3352
:1001B0001814127F1027454545393C4A49493141B9
:1001C000211109073649494936464949291E000087
:1001D00014000000403400000008142241141414DC
:1001E0001414004122140802015909063E415D59C8
:1001F0004E7C1211127C7F494949363E41414122D1
:100200007F4141413E7F494949417F090909013EFA
:10021000414151737F0808087F00417F4100204021
:10022000413F017F081422417F404040407F021C33
:10023000027F7F0408107F3E4141413E7F0909094A
:10024000063E4151215E7F09192946264949493216
:1002500003017F01033F4040403F1F2040201F3FDC
:100260004038403F63140814630304780403615961
:10027000494D43007F4141410204081020004141A3
:10028000417F04020102044040404040000307084F
:100290000020545478407F2844443838444444284B
:1002A000384444287F385454541800087E090218F2
:1002B000A4A49C787F0804047800447D400020407A
:1002C000403D007F1028440000417F40007C0478BE
:1002D00004787C080404783844444438FC18242406
:1002E0001818242418FC7C08040408485454542486
:1002F00004043F44243C4040207C1C2040201C3C03
:100300004030403C44281028444C9090907C4464F9
:10031000544C44000836410000007700000041368C
:10032000080002010204023C2623263C1EA1A16112
:10033000123A4040207A3854545559215555794144
:100340002154547841215554784020545579400C1B
:100350001E527212395555555939545454593955FC
:100360005454580000457C410002457D420001453F
:100370007C40F0292429F0F0282528F07C545545AC
:10038000002054547C547C0A097F4932494949323F
:100390003248484832324A4848303A4141217A3A54
:1003A00042402078009DA0A07D39444444393D401E
:1003B00040403D3C24FF2424487E4943662B2FFCCB
:1003C0002F2BFF0929F620C0887E09032054547979
:1003D000410000447D413048484A32384040227A4A
:1003E000007A0A0A727D0D19317D2629292F2826C7
:1003F0002929292630484D402038080808080808CF
:100400000808382F10C8ACBA2F102834FA00007B27
:10041000000008142A142222142A1408950022002D
:1004200095AA005500AAAA55AA55AA000000FF00E7
:10043000101010FF00141414FF001010FF00FF1024
:1004400010F010F0141414FC001414F700FF000056
:10045000FF00FF1414F404FC141417101F10101FD5
:10046000101F1414141F00101010F0000000001FC3
:10047000101010101F10101010F010000000FF10CE
:100480001010101010101010FF10000000FF1400CA
:1004900000FF00FF00001F10170000FC04F41414FC
:1004A0001710171414F404F40000FF00F7141414C8
:1004B00014141414F700F7141414171410101F1048
:1004C0001F141414F4141010F010F000001F101F6B
:1004D0000000001F14000000FC140000F010F010D9
:1004E00010FF10FF141414FF141010101F00000050
:1004F00000F010FFFFFFFFFFF0F0F0F0F0FFFFFF54
:100500000000000000FFFF0F0F0F0F0F38444438AA
:10051000447C2A2A3E147E02020606027E027E02E5
:1005200063554941633844443C04407E201E200604
:10053000027E020299A5E7A5991C2A492A1C4C7241
:1005400001724C304A4D4D303048784830BC625AC8
:10055000463D3E494949007E0101017E2A2A2A2A58
:100560002A44445F444440514A444040444A514034
:100570000000FF0103E080FF000008086B6B0836F5
:1005800012362436060F090F060000181800000066
:100590001010003040FF0101001F01011E00191D55
:1005A0001712003C3C3C3C0000000000F0F89C8E20
:1005B0008783878E9CF8F00000FEFF03030303038C
:1005C000070EFCF80000FEFF0303030303070EFC05
:1005D000F80000FFFF00000000000000FFFF000027
:1005E000FEFF8383838383C7EE7C380000F8FC0E14
:1005F00007030303070EFCF800003F7FE0C0808084
:10060000C0E07F3FFFFF01010101010101FFFF0089
:1006100000FFFF0C0C0C0C1C3E77E3C100007FFFB9
:10062000C0C0C0C0C0E0703F1F00001F3F70E0C0EE
:10063000C0C0E0703F1F00007FFFC1C1C1C1C1E366
:10064000773E1C00001F3F70E0C0C0C0E0703F1F3D
:10065000000000000001FFFF01000000D5F08D1434
:10066000A1C881CFD9F1AF20004F5054494F4E530C
:1006700000504C4159001010FF7FFBFFFFBFFFFFF0
:10068000F7FFFDFFFFF77FFFDFFFFFFB7FFFFFFFB0
:10069000EFFEFFFFFBFF7FFF08101008100810108F
:1006A000100800000000000020404020000102026D
:1006B0000102020102214040FF1F5B3FEBDDFFF71B
:1006C000BBEFFD7FE3CBE3FFFFC796C7FFFFEFFD67
:1006D000FFE3CBE3FFFF7BFFFFDF7B3F9F6F77AB4A
:1006E000DBD7CD5FBF77FFFFFFC1DCD3AF9FAEB0DD
:1006F000BBBDBDBAD7CC63FF10110000F0F8F8FC09
:10070000FCFCFCFCFC7C78F870000000033737CF61
:10071000EFEFEF2F6C6B0B0C0300000000000000EC
:10072000000000000000000000000000F0F8F8FCED
:10073000FCFCFCFCFC7C78F8700000000317372FF1
:100740004F2F2F2F6C6B6B0C03000000000000007C
:10075000000000000000000000000000F0F8F8FCBD
:10076000FCFCFCFCFC7C78F870000000033737CF01
:10077000EFEFEF2F6C6B0B0C03000000000000008C
:10078000000000000000000000000000F0F8F8FC8D
:10079000FCFCFCFCFC7C78F8700000003337172F61
:1007A000EFEFEFEF2C2B0B2C0300000000000000FC
:1007B000000000000000000000001011000070F8B0
:1007C000787CFCFCFCFCFCFCF8F8F0000000030C5E
:1007D0000B6B6C2FEFEFEFCF3737030000000000FB
:1007E000000000000000000000000000000070F8A1
:1007F000787CFCFCFCFCFCFCF8F8F0000000032C0E
:100800000B2B2CEFEFEFEF2F17373300000000001A
:10081000000000000000000000000000000070F870
:10082000787CFCFCFCFCFCFCF8F8F0000000030CFD
:100830000B6B6C2FEFEFEFCF37370300000000009A
:10084000000000000000000000000000000070F840
:10085000787CFCFCFCFCFCFCF8F8F0000000030CCD
:10086000EBEBEC6F6F8F6F6F7717030000000000EA
:100870000000000000000000000000001010000058
:10088000F0F8F8FCFCFCFCFCFCFCF8F8F0000000C4
:100890001B07776F6F2F2F2F6F6F77071B000000DD
:1008A000F0F8F8FCFCFCFCFCFCFCF8F8F0000000A4
:1008B0003B37072F2F2F2F2F6F6F77170300000065
:1008C000F0F8F8FCFCFCFCFCFCFCF8F8F000000084
:1008D0001B07776F6F2F2F2F6F6F77071B0000009D
:1008E000F0F8F8FCFCFCFCFCFCFCF8F8F000000064
:1008F0000317776F6F2F2F2F2F2F07373B00101005
:100900000000F0F878BCBC7CFC7CBCBC78F8F00043
:1009100000001B07746B6B2C2F2C6B6B74071B0078
:100920000000F0F878BCBC7CFC7CBCBC78F8F00023
:1009300000003B37042B2B2C2F2CEBEBF417030080
:1009400000000000000000000000000000000000A7
:100950000000F0F878BCBC7CFC7CBCBC78F8F000F3
:1009600000000D033A353516171635353A030D00DC
:100970000000000000000000000000000000000077
:100980000000F0F878BCBC7CFC7CBCBC78F8F000C3
:1009900000000317F4EBEB2C2F2C2B2B04373B0020
:1009A0000000000000000000000000000000000047
:1009B0001012000000B0B8B878F8F8F878B8B0B005
:1009C00000000000021D7D7D7E3F3F3F7E7D7D3D1E
:1009D0000200000000000000000000000000000015
:1009E0000000000000B4B8B878F8F8F878B8B8B4E7
:1009F00000000000021D3D3D3E1F1F1F3E3D3D1DEE
:100A000002000000000000000000000000000000E4
:100A10000000484954533A200048554E54210A00DA
:100A2000080B00020202000009040000010202009B
:100A3000000524001001052401010104240206051B
:100A4000240600010705810310004009040100028B
:100A50000A0000000705020240000007058302406B
:100A600000000403090412010002EF0201404123C7
:100A7000368000010102030141726475696E6F20C6
:100A80004C4C430041726475626F79003910112437
:100A90001FBECFEFDAE0DEBFCDBF12E0A0E0B1E0D5
:100AA000ECEFF2E302C005900D92A43DB107D9F737
:100AB00027E0A4EDB2E001C01D92AB39B207E1F727
:100AC00015E0C7E4D5E004C02197FE010E94841719
:100AD000C634D107C9F70E946C100C947C190C9491
:100AE000000080E0E7E2F3E081118FEF00248193C2
:100AF0008193819381930394D1F70895E7E2F3E022
:100B0000A0E0B8E000800EBC8111012C1197A0FD7F
:100B1000FDCF0192B9F70DB40895FC018091260331
:100B2000882311F13FB7F89482E08093E900209187
:100B3000F200822F90E01816190614F481E090E07C
:100B4000882339F0289844E6409325034091F1002A
:100B50004083222339F02091F200211103C02BE6BB
:100B60002093E8003FBF08958FEF9FEF08952FB7C0
:100B7000F89483E08093E9009091E800892F8072D7
:100B800095FF04C09091F20080E4891B2FBF089567
:100B900080911D0381110DC082E08093190384E0D0
:100BA00080931A0310921C0310921B0381E0809320
:100BB0001D0389E193E00895CF93DF931F92CDB792
:100BC000DEB76983DC01ED91FC910280F381E02DB9
:100BD00041E050E0BE016F5F7F4F09950F90DF91BC
:100BE000CF91089583E08093E9008091F2008823FB
:100BF00019F08AE38093E80008950E94B70590E019
:100C00000895CF93DF931F92CDB7DEB7FC018485A3
:100C1000958597FD08C02FEF3FEF358724870F900C
:100C2000DF91CF910895CE0101960E948D05019725
:100C300019F4898190E0F3CF8FEF9FEFF0CF0F93FE
:100C40001F93CF93DF931F92CDB7DEB78C01FC01CA
:100C50008485958597FF0BC0CE0101960E948D0576
:100C6000019771F4898190E0F80195878487F801F4
:100C7000848595850F90DF91CF911F910F910895F5
:100C80008FEF9FEFF1CFFC018485958597FD0BC019
:100C90009FB7F89482E08093E9008091F2009FBFB3
:100CA00090E0019608959FB7F89482E08093E90060
:100CB0008091F2009FBF90E00895409113035091FE
:100CC0001403209111033091120342175307B4F417
:100CD0009091E8009570E1F39091E80092FD19C0C1
:100CE0008093F100809113039091140301968F7308
:100CF0009927892B19F48EEF8093E80080911303D4
:100D0000909114030196909314038093130381E050
:100D1000089580E00895DF92EF92FF920F931F9362
:100D2000CF93DF93D82E8A01EB017B01E40EF51EF1
:100D3000CE15DF0559F0D7FE12C0FE0184910E9446
:100D40005D0621968111F4CF0FEF1FEFC801DF91EF
:100D5000CF911F910F91FF90EF90DF9008958881C0
:100D6000EECF0F931F93CF93DF931F92CDB7DEB7D4
:100D700082E0898342E450E060E27AE080E80E9409
:100D80008B060E94C805DC0112960D911C9101157D
:100D9000110589F0D801ED91FC910280F381E02DDD
:100DA000BE016F5F7F4FC801099597FD04C0F80130
:100DB00000851185ECCF89810F90DF91CF911F9134
:100DC0000F910895615030F02091F100FC012083D3
:100DD0000196F8CF289884E6809325030895AF9272
:100DE000BF92CF92DF92EF92FF920F931F93CF9318
:100DF000DF936C017B018B01040F151FEB015E017A
:100E0000AE18BF08C017D10759F06991D601ED910E
:100E1000FC910190F081E02DC6010995892B79F7AD
:100E2000C501DF91CF911F910F91FF90EF90DF905F
:100E3000CF90BF90AF9008953FB7F8948091D602BD
:100E40009091D702A091D802B091D90226B5A89B63
:100E500005C02F3F19F00196A11DB11D3FBFBA2F4C
:100E6000A92F982F8827BC01CD01620F711D811D0C
:100E7000911D42E0660F771F881F991F4A95D1F791
:100E800008958F929F92AF92BF92CF92DF92EF928E
:100E9000FF926B017C010E941C074B015C01C11495
:100EA000D104E104F104B9F00E941C076819790922
:100EB0008A099B09683E73408105910580F321E012
:100EC000C21AD108E108F10888EE880E83E0981E66
:100ED000A11CB11CE4CFFF90EF90DF90CF90BF90AA
:100EE000AF909F908F9008958F929F92AF92BF92F4
:100EF000CF92DF92EF92FF920F931F93CF93DF93E6
:100F00006C017B018A0180910D01882309F45CC08A
:100F100080912603882309F457C08091180380FF2D
:100F200005C08091E00082608093E000E801B12C70
:100F30008AEFA82E93E0892E2AE3922E209711F4AF
:100F4000BB20D9F10E94B70581110AC0AA94AA203A
:100F5000D9F161E070E080E090E00E944107EECFBF
:100F60008C171D0611F00CF08C2F9FB7F89480920F
:100F7000E9002091E80025FD02C09FBFDFCF282FA8
:100F800030E0C21BD30BF701815020F04191409318
:100F9000F100FACFE20EF31EBB2021F09092E800A0
:100FA000B12CEBCF8091E80085FDE7CF9092E8006F
:100FB000BB24B394209709F3F3CF5D9884E6809324
:100FC0001703101611063CF081E090E0F6019383C0
:100FD000828310E000E0C801DF91CF911F910F9153
:100FE000FF90EF90DF90CF90BF90AF909F908F9049
:100FF00008957F928F929F92AF92BF92CF92DF928D
:10100000EF92FF920F931F93CF93DF93DC01FA01CE
:10101000D490319694914E5F5F4FCD2DD0E0222336
:10102000E1F001E010E0892F877011F410E000E09A
:10103000E92FE695E695E695E00FF12FF11DEC9F7F
:101040008001ED9F100DFC9F100D1124209FF001D9
:10105000219FF00D11244E0F5F1F7E01EA0EFB1E33
:101060001E141F040CF0A6C0A038B1050CF0A2C0DD
:101070009B01290F311D121613060CF09BC0603422
:1010800071050CF097C04115510509F493C0062F66
:1010900007709B0177FF02C0295F3F4F83E03595C2
:1010A00027958A95E1F7F22F77FF04C0002311F00E
:1010B000FFEFF20F222733272A1B3B0BB7FD02C09D
:1010C00030E020E010E81A1B712E10E8E116F10460
:1010D0000CF47D2C721A6F2F0F2E000C770BF62E4E
:1010E000F094FF3F0CF0F12CE1E0892F877009F4B8
:1010F000E0E09695969596959E0F690F711D693063
:10110000710514F098E09F1B9F2C9F0E692D70E8CD
:10111000670350011124AA0DBB1DA20FB31FDF9C52
:10112000200D311D1124420F531FC02E002E000C24
:10113000DD082FEF30E0002E02C0220F331F0A948B
:10114000E2F720953095832E9F0F991599F1FD01B7
:10115000E95DFC4F7F01B12CA12CA71428F5FA0101
:10116000EA0DFB1D649170E00C2C02C0660F771F26
:101170000A94E2F797FC05C0F70180818223862B51
:101180008083002351F0F6E0F9153CF0F701E058B8
:10119000FF4F80818821872B80831FEFA11AB10A1E
:1011A0006FEFE61AF60AD9CF93944C0F5D1FA05843
:1011B000BF4FCBCFDF91CF911F910F91FF90EF9059
:1011C000DF90CF90BF90AF909F908F907F900895C9
:1011D0002D9A0895BC0190E080E00C9441078FB1F6
:1011E0008095807F669B88601C9B8460089520E1C9
:1011F00091E061FD94E060FD990F62FD9295687F3A
:10120000269FD0011124A80FA95DBC4F8C9140FFEF
:1012100003C0892B8C93089590958923FBCFAF92BF
:10122000BF92CF92DF92EF92FF920F931F93CF93D3
:10123000DF936B01EC015C01A40EB11C7B01E20E9B
:10124000F11CCA15DB05E4F48601D7FE02C010E0EC
:1012500000E0C70121E4E216F10414F080E490E01C
:10126000081719075CF4C038D10528F440E0B8012C
:10127000CE010E94F7080F5F1F4FEBCF2196E1CF01
:10128000DF91CF911F910F91FF90EF90DF90CF9062
:10129000BF90AF9008952F923F924F925F926F92BE
:1012A0007F928F929F92AF92BF92CF92DF92EF92F6
:1012B000FF920F931F93CF93DF9300D000D01F9224
:1012C000CDB7DEB76D30C9F04090010160900B03DF
:1012D00070900C03042D10E06A3049F510920A0357
:1012E0001092090383E0000F111F8A95E1F7600E49
:1012F000711E70920C0360920B0381E090E00F90DE
:101300000F900F900F900F90DF91CF911F910F9141
:10131000FF90EF90DF90CF90BF90AF909F908F9015
:101320007F906F905F904F903F902F900895209006
:10133000090330900A03E5E06E9FC0011124845533
:101340009F4F9D838C836101512CF5E05F1651F115
:101350008C819D810196EC81FD81F491F9839D83BF
:101360008C83430128E02A83898181708B837601F5
:101370008E2D8C198415E0F4B12CA12CA414A0F4AA
:1013800090E8E916F10450F4B4016A0D7B1D603455
:10139000710520F44B81C7010E94F708EFEFAE1AE8
:1013A000BE0AECCF1982DDCFFFEFEF1AFF0AE0CFC4
:1013B0002981269529838A8181508A83800E911EF6
:1013C0008111D2CF5394C00ED11E96E05912BDCFD9
:1013D000C101459C800D911D112490930A038093B7
:1013E00009038BCF0F931F93CF93DF938C01D0E032
:1013F000C0E0F801EC0FFD1F6491662341F083E922
:1014000097E00E944B09892B11F02196F2CFCE0173
:10141000DF91CF911F910F91089590910D03982323
:1014200029F490910E03982381E009F480E0089557
:10143000CF93C82F0E94EF08982F9C2381E09C1324
:1014400080E0CF91089580E00C947E053F924F920A
:101450005F926F927F928F929F92AF92BF92CF9244
:10146000DF92EF92FF920F931F93CF93DF93712C34
:10147000F7E06F2E44244A94542C80918C07781600
:1014800008F05FC0C72CD12C6C9C90016D9C300D76
:1014900011242258384FF90100811181E280F38034
:1014A000CAEDD2E04801F0E18F0E911C570182E1B4
:1014B000A80EB11C488159818C81840F952F911DF4
:1014C00008171907B4F5481559059CF54A815B8141
:1014D0008D81840F952F911DE816F90654F54A1554
:1014E0005B053CF580918C07409103035091040308
:1014F0004F5F5F4F50930403409303035982488228
:101500007816B8F4815080938C07A901B60190E059
:101510006817790774F46F5F7F4FE7E03E2EFA019A
:101520003796DA0101900D923A94E1F7495F5F4FE7
:10153000EFCF2696E2E0C83FDE0709F0BBCF7394F9
:101540009CCFDF91CF911F910F91FF90EF90DF9093
:10155000CF90BF90AF909F908F907F906F905F9053
:101560004F903F900895EAEDF2E04FEF5FEF20815A
:1015700031812F3F320731F0811104C02F5F3F4F7F
:1015800031832083208131812F3F320731F088233E
:1015900021F021503109318320832081318120388D
:1015A000310514F051834083369692E0E83FF90705
:1015B000F1F608950F931F93CF93DF93AC018091C1
:1015C000D40281110EC0EAEDF2E030E020E080812B
:1015D0009181019629F12F5F3F4F369625303105D5
:1015E000B1F7CAEDD2E008EF12E0888199818F3F10
:1015F000980731F06A817B8123E043E00E940F0964
:1016000026960C171D0789F78091D402882319F0BC
:1016100081508093D402DF91CF911F910F91089553
:1016200096E0929FF001939FF00D1124E652FD4F3A
:10163000518340836D5F7F4F738362839093D402A5
:10164000D0CF089590E080E008958F929F92AF925E
:10165000BF920F931F93CF93DF93CDB7DEB7A197C0
:101660000FB6F894DEBF0FBECDBF19A2423008F40A
:101670004AE08E010F5D1F4F842E912CB12CA12CBE
:10168000A50194010E942B17E62FB901CA01EA3087
:1016900044F5E05DD801EE938D01232B242B252BFF
:1016A00079F790E080E0109769F0FD01019000204B
:1016B000E9F73197AF014A1B5B0BBD0183E997E066
:1016C0000E94EF06A1960FB6F894DEBF0FBECDBF05
:1016D000DF91CF911F910F91BF90AF909F908F900E
:1016E0000895E95CD7CFCF92DF92EF92FF92CF932C
:1016F000DF936C01990FEE08FF08F7FE19C06DE249
:1017000083E997E00E944B09EC0166277727CB011C
:101710006C197D098E099F094AE00E94250B8C0FE8
:101720009D1FDF91CF91FF90EF90DF90CF900895B4
:101730004AE0C701B601DF91CF91FF90EF90DF90B3
:10174000CF900C94250B8F929F92AF92BF92CF9225
:10175000DF92EF92FF92CF93DF93C0910E01D09171
:101760000F01609110017091110183E4882E99247A
:101770009394A12CB12C95E9C92ED12CE12CF12CFC
:10178000CE0103978A379105D0F4CB010D97C0970E
:10179000B0F40E942A16A50194010E94C216625656
:1017A000710981099109EB010E942A16A70196018E
:1017B0000E94C2166652710981099109E1CFD09346
:1017C0002807C093270770932A076093290784E0AE
:1017D00080932C0780918C07823079F097E0989F56
:1017E000D0011124A258B84FE7E2F7E001900D9222
:1017F0009A95E1F78F5F80938C07DF91CF91FF90EF
:10180000EF90DF90CF90BF90AF909F908F90089512
:10181000CF93DF93D0E0C0E0809112018C171D06BA
:1018200079F070F080918C07823020F40E94A30B35
:101830002196F2CF809102038F5F80930203F8CF4D
:101840008F5F80931201DF91CF9108950C94AC16B5
:101850000F931F93CF93DF93EC01888199810097B9
:1018600059F02A813B812617370730F081E0DF915C
:10187000CF911F910F9108958B016F5F7F4F0E9451
:10188000AF18009759F0998388831B830A832C81B2
:101890003D81232B59F7FC011082E8CF80E0E7CF90
:1018A000EF92FF920F931F93CF93DF93EC017B0195
:1018B0008A01BA010E94280C28813981811114C043
:1018C0002115310519F0C9010E94261819821882C4
:1018D0001D821C821B821A82CE01DF91CF911F9143
:1018E0000F91FF90EF9008951D830C83B701C901FC
:1018F0000E947519F1CFCF92DF92EF92FF920F9372
:101900001F93CF93DF93CDB7DEB767970FB6F894E9
:10191000DEBF0FBECDBF84E190E090930A038093B9
:1019200009038EE190E090930C0380930B0382E017
:101930008093010180910303909104031B8A1A8A0A
:101940001D8A1C8A1F8A1E8A4AE08E010F5F1F4F64
:10195000B8010E948216F80101900020E9F7319742
:10196000AF01401B510BB801CE0142960E94500CB2
:101970001A8219821C821B821E821D8246E050E060
:101980006AEC72E0C8010E94500CCA88DB88C1145E
:10199000D10409F443C0EE88FF88E114F104A9F0F2
:1019A0008D819E81E80EF91EB701C8010E94280CA6
:1019B0008823A1F129813A818D819E81B601820F10
:1019C000931F0E947519FE82ED824D815E816981AF
:1019D0007A8183E997E00E94EF0689819A810097D6
:1019E00011F00E9426188A899B89009711F00E94A5
:1019F000261884E00E94180A811110920603679647
:101A00000FB6F894DEBF0FBECDBFDF91CF911F910F
:101A10000F91FF90EF90DF90CF90089589819A8188
:101A2000009711F00E9426181A8219821E821D82C8
:101A30001C821B82CACF1F920F920FB60F921124E5
:101A40008F939F938091E1009091E100937F909319
:101A5000E10083FF0FC01092E90091E09093EB004A
:101A60001092EC0092E39093ED001092260398E020
:101A70009093F00082FF22C093E09093E900909150
:101A8000F200992319F09AE39093E80090911703DC
:101A9000992341F09091170391509093170391115E
:101AA00001C05D9A90912503992341F090912503FF
:101AB000915090932503911101C0289A84FF18C07A
:101AC0008091E2008E7E81608093E2008091E1004F
:101AD0008F7E8093E100809118038E7E80618093D9
:101AE00018039F918F910F900FBE0F901F90189524
:101AF00080FFF7CF8091E2008E7E80618093E200CC
:101B00008091E1008E7E8093E100809118038E7EAB
:101B10008160E5CF1F920F920FB60F921124CF92E2
:101B2000DF92EF92FF920F931F932F933F934F9368
:101B30005F936F937F938F939F93AF93BF93EF9335
:101B4000FF93CF93DF93CDB7DEB76C97DEBFCDBFEA
:101B50001092E9008091E80083FF25C068E0CE0183
:101B600045960E94E20682EF8093E8008D8987FF08
:101B700039C09091E80090FFFCCF982F907609F043
:101B800034C19E894F89588D2F89F88C911131C0AD
:101B9000803861F5809116038093F1001092F10076
:101BA0008EEF8093E8006C960FB6F894DEBF0FBE00
:101BB000CDBFDF91CF91FF91EF91BF91AF919F91F9
:101BC0008F917F916F915F914F913F912F911F91D5
:101BD0000F91FF90EF90DF90CF900F900FBE0F907E
:101BE0001F9018959EEF9093E800C7CF1092F100D8
:101BF000D5CF913059F48111D3CF4130510581F6C1
:101C0000809116038D7F80931603CACF933049F4D9
:101C10008111C6CF4130510519F6809116038260BB
:101C2000F2CF953041F48091E80080FFFCCF20682E
:101C30002093E300B5CF963009F0A9C00B8D1C8D21
:101C400022E01092E9001092140310921303F21292
:101C50002EC010921203109211030E94B1061F822F
:101C600099E09983FA8291E09E8390EA98879AEFAF
:101C700099872091130330911403275F3F4F3C83D2
:101C80002B838D831092E90010921403109213039A
:101C9000109312030093110349E050E0BE016F5FFF
:101CA0007F4F80E00E948B060E94B10679CF10938F
:101CB0001203009311030E94C805DC0112960D91D6
:101CC0001C910115110509F451C1D801ED91FC9148
:101CD0000480F581E02DBE016B5E7F4FC801099540
:101CE000009709F03EC1F80100851185EACFF3E0C5
:101CF000FF120EC08F89882309F440C0823061F43E
:101D000040E867E084E89AE00E940610811148CF1D
:101D100081E28093EB0047CF813029F440E86BE00B
:101D200088E79AE0F1CF833099F70E94C805DC017B
:101D30001296ED90FC908E010F5F1F4F6801E11429
:101D4000F10479F0D701ED91FC910680F781E02D47
:101D5000B801C7010995080F111DF701E084F1844E
:101D6000EECFD8011C92F60101900020E9F73197DF
:101D7000BF016C197D0940E0C601C6CF62E67AE07A
:101D8000FB01449150E080E80E948B0609CF973018
:101D900009F4BECF983021F481E08093F10000CFA8
:101DA000993009F0FDCE837009F0B2CFE6EAF2E097
:101DB00081E031E096E32191222371F08093E900E4
:101DC0003093EB00DF0111972C912093EC0090935E
:101DD000ED008F5F873079F78EE78093EA001092ED
:101DE000EA008F8980932603DBCE8B8D9C8D109229
:101DF000E90010921403109213039093120380933E
:101E00001103898D811192C08E899D89913A49F47F
:101E1000813209F07DCF47E050E066E071E080E07C
:101E2000B3CF913209F074CF833269F48F89988DE2
:101E3000B0E0A0E08093020190930301A09304011D
:101E4000B0930501ADCE803269F48091E80082FF45
:101E5000FCCF67E086E091E00E94E2068BEF809382
:101E6000E8009ECE823209F09BCE8F8980930D01CF
:101E7000EEEFFFE7859194918B3F9C4D51F1E0E0AF
:101E8000F8E08091060190910701A0910801B091BE
:101E90000901803B9440A105B105F1F480910D0149
:101EA00080FD1AC0EE3F8AE0F80789F587E797E7DB
:101EB00091838083809160008093150388E19BE08B
:101EC0000FB6F894A895809360000FBE90936000C1
:101ED00067CEEEEFFAE0D5CF8081918187379747C3
:101EE00009F05ECEA89580916000886180936000C3
:101EF0008091150380936000EE3F2AE0F20789F09D
:101F00008091FE0A9091FF0A9183808349CE80815F
:101F100091818737980751F29093FF0A8093FE0AC8
:101F2000C5CF1092FF0A1092FE0A3ACE0E94C80551
:101F3000DC0112960D911C910115110509F4E8CEF2
:101F4000D801ED91FC910190F081E02DBE016B5E16
:101F50007F4FC8010995811123CEF80100851185B5
:101F6000EBCF181619060CF41BCED2CEF1E0FF12FF
:101F7000BECE66E67AE004CF1F920F920FB60F92A4
:101F800011242F933F938F939F93AF93BF9380918F
:101F9000F8029091F902A091FA02B091FB023091FF
:101FA000D50223E0230F2D3758F50196A11DB11D51
:101FB0002093D5028093F8029093F902A093FA023D
:101FC000B093FB028091D6029091D702A091D802E3
:101FD000B091D9020196A11DB11D8093D6029093B4
:101FE000D702A093D802B093D902BF91AF919F912D
:101FF0008F913F912F910F900FBE0F901F901895CA
:1020000026E8230F0296A11DB11DD2CFEF92FF92B9
:102010000F931F93CF93DF93F82E192FE62E042FE3
:1020200081E0860F880F0E945D0683E00E945D06B6
:10203000CF2DD12FEC0EFD2EF11CCE15DF05B9F002
:1020400007FF13C0FE0184910E945D06182F80E0F7
:102050000E945D06812321968111EFCFDF91CF9100
:102060001F910F91FF90EF9008958881EDCF81E04F
:10207000F5CFEEE2F7E01382128288EE93E0A0E063
:10208000B0E084839583A683B78380EB92E091834D
:1020900080838FEF9FEF95878487E3E9F7E01382D2
:1020A000128282EC92E091838083EEE0F1E0208165
:1020B000318182819381EDE8F7E03183208393833E
:1020C000828380E1848385838EE0EEE7F7E0DF01A1
:1020D0001D928A95E9F70895789484B5826084BD4D
:1020E00084B5816084BD85B5826085BD85B581601C
:1020F00085BD80916E00816080936E00109281009A
:102100008091810082608093810080918100816054
:102110008093810080918000816080938000809115
:102120009100826080939100809191008160809302
:102130009100809190008160809390008091C10017
:1021400084608093C1008091C10082608093C1004F
:102150008091C10081608093C1008091C300816043
:102160008093C3008091C00082608093C000809102
:10217000C20081608093C20080917A008460809365
:102180007A0080917A00826080937A0080917A0050
:10219000816080937A0080917A00806880937A00D1
:1021A0001092260310921603109218038091D70004
:1021B00081608093D70080EA8093D80089B58061E0
:1021C00089BD89B5826089BD09B400FEFDCF61E09B
:1021D00070E080E090E00E9441078091D8008F7C01
:1021E00080618093D8008091E000807F8093E00040
:1021F0008091E1008E7E8093E1008DE08093E2008B
:10220000559A209A81EC80937C0085B1806F85B9C6
:1022100084B1877E84B984B1876E84B95E9A5F98F1
:102220008AB1806D8AB9769A6E9881B3806F81BBCE
:10223000899880B38D7080BB80E58CBD81E08DBDB9
:1022400085E090E00E94EA085F9A85E090E00E94B5
:10225000EA085E985C98ECE5F6E089E696E0249161
:102260002EBD00000DB407FEFDCF31968E179F07DF
:10227000B1F75C9A81E88093640080916500816089
:10228000809365000E94230A80E80E94180A882330
:10229000A9F05C9885EA8EBD00000DB407FEFDCF65
:1022A0005C9A2E982F982D9880916400806280937C
:1022B000640081E083BF889513BEFCCF84E00E9458
:1022C000180A882309F448C02D9884E80E94180A47
:1022D0008823E1F00E94E80888EC90E00E94EA0878
:1022E0002F9882E090E00E94AC168F3F29F06FEFAC
:1022F00082E090E00E94B41684EF91E00E94EA0828
:102300002F9A84E80E94180A8111FBCF84E10E9471
:10231000180A8823E1F00E94E80888EC90E00E9407
:10232000EA082E9882E090E00E94AC16882329F0FB
:1023300060E082E090E00E94B41684EF91E00E9499
:10234000EA082E9A84E10E94180A8111FBCF88ECDA
:1023500090E00E94EA08B2CF0E94E80882E090E094
:102360000E94260C882309F49BC03E9A3F9A81E084
:1023700090E00E94260C082F0470702E81FF13C07D
:1023800001112E98C1EFDFEF08E010E06CE6E62EB9
:10239000F12C80E40E94180A882309F484C02E9A44
:1023A0002F9A0E94E80882E390E00E94EA080E94C7
:1023B000EF088111F8CF80E180930001EAEDF2E0AF
:1023C00028EF32E04FEF5FEF83E051834083848357
:1023D000858336962E173F07C1F70E94230A0E9475
:1023E000080C809164008E7F8093640080917A0055
:1023F000806480937A0080917A0086FDFCCFC09142
:102400007800D09179000E941C07AB01BC01CE017D
:10241000B0E0A0E0DC01992788278C019D01040F22
:10242000151F261F371FC901B801209164002160C4
:1024300020936400611571058105910511F00E94DA
:1024400079160E94710510920C0310920B031092E2
:102450000A0310920903F4E16F2E712CA0E14A2EB9
:10246000512CBAE0AB2EB12CE8E22E2E312C8FB7D6
:10247000F8944091F8025091F9026091FA0270913B
:10248000FB028FBF8091FC02882309F4CAC010921E
:10249000FC0280E090E0892B51F30E940000E4CF21
:1024A0003E983F9864CF772029F0C430D10511F4CD
:1024B0002E9A2F9881E00E947E059E01D7FF04C0CE
:1024C000222733272C1B3D0B27703327CE01D7FD46
:1024D000079653E0959587955A95E1F7D7FF05C084
:1024E0000197A801421B530B9A01BC017695762FE8
:1024F000662777956795695D7C4FB0E0A0E028017D
:10250000421A530A8E3F5FEF950709F43CC048E535
:1025100050E0FD01EC5FF94F5F014B01F0E88F0ED9
:10252000911C8F3F9807A1F0F501E41BF50BE49196
:102530006701C41AD50AC60ED71EF0E01F01022E8D
:1025400001C0220C0A94EAF7F60130802328208289
:1025500021153105A9F0F501E41BF50BE4916701A4
:10256000C41AD50AC80CD91CF0E01F01042C02C003
:10257000359427940A94E2F7F601308023282082CC
:102580004150510971F60196A85ABF4F60587F4FCC
:10259000A03BB10509F0B6CF0E94230A8FE090E07E
:1025A0000E94EA082196C931D10509F0F2CE7720C0
:1025B00011F02F9A2D9880E991E00E94EA080E947C
:1025C000E80881E090E00E94260C80FFECCE8AE0D3
:1025D00090E00E94260C9FEF980F9E3F08F0E3CEFC
:1025E00022E330E030930A032093090328E330E02C
:1025F00030930C0320930B03CBE0D0E0682F83E9EA
:1026000097E00E944B09CE010E94260C2196C13111
:10261000D105A1F70E94230A88EE93E00E94EA0800
:10262000C2CE8091FD02142F181B812F90910001C2
:10263000191748F48F5F891708F02BCF81E083BF0B
:10264000889513BE26CF81E08093FC024093FD0263
:10265000C0910703D09108032196D0930803C0933B
:10266000070380910E0380930D030E94EF0880936F
:102670000E030E94710510920C0310920B0310922E
:102680000A0310920903CE01B3010E945C17892B43
:1026900049F480910F0390911003019690931003D9
:1026A00080930F0380910F0390911003029724F001
:1026B0001092100310920F03C0910603C13009F469
:1026C00060C008F442C0C43009F488C08091060399
:1026D000823009F486C0843009F46DC2813091F5EE
:1026E000B0920A03A092090324E030E030930C0377
:1026F00020930B0381E796E00E94F209B0920A034F
:10270000A09209034CE050E050930C0340930B035C
:1027100089E696E00E94F2098091050358E0859FC2
:10272000C0011124049662E070E070930A03609384
:10273000090390930C0380930B036EE383E997E006
:102740000E944B090E94230AA4CE30920A032092D1
:1027500009038EE190E090930C0380930B0382E0D9
:102760008093010189E19AE00E94F20988E00E94C9
:102770000D0A882339F381E08093010180930603D9
:10278000A5CF80E10E940D0A882331F080910503D6
:1027900081111DC0C093050380E80E940D0A8823A3
:1027A00039F0809105038823A9F0815080930503B7
:1027B00084E00E940D0A882309F492CF80910503DA
:1027C000882351F0813009F081CF83E0D7CF109278
:1027D0000503E2CF81E0EACF82E0D0CF0E947B0CFC
:1027E00075CFD12CC12CF12CE12C10E000E0C09170
:1027F000FE02D091FF02CE01D7FD0F9674E09595B1
:1028000087957A95E1F7A801481B590B4E30510581
:10281000C0F580910003909101039C0197FF02C0D5
:10282000215F3F4F64E0359527956A95E1F7F70101
:10283000E21BF30B9F013E9720F56EE0629FF001D3
:10284000639FF00D1124E40FF51FEE0FFF1FE35EF1
:10285000FE4FB2010E9470174C018C0C9D1CCE01E2
:10286000B2010E947017208146E756E0B401F801DA
:1028700034E0EE0FFF1F3A95E1F78E0F9F1F0E9485
:10288000F9070F5F1F4F0930110509F0B0CF7FEF37
:10289000E71AF70A80E1C80ED11C95E0E916F104A9
:1028A00009F0A3CF28E040E370E060E090E080E032
:1028B0000E940F0910920A031092090310920C0350
:1028C00010920B03CE010E94730B41E050E061EDCA
:1028D00072E083E997E00E94EF06809100039091F7
:1028E00001030E94730B00918F0710919007C09114
:1028F0008D07D0918E0720E04EEF58E0B801CE0151
:102900000E94F90780E80E94180A8823A1F08091AC
:10291000000390910103803191052CF4019690936E
:1029200001038093000320910F034CE758E0B801A6
:10293000CE010E94F90780E10E94180A8823A9F0BD
:1029400080910003909101038135EFEF9E072CF0F9
:102950000197909301038093000320910F034EEFA2
:1029600058E0B801CE010E94F90780E20E94180ADF
:102970008823A1F08091FE029091FF0280319105A1
:102980002CF401969093FF028093FE0220910F0396
:102990004AEB57E0B801CE010E94F90780E40E949B
:1029A000180A8823A9F08091FE029091FF028135D8
:1029B000FFEF9F072CF001979093FF028093FE0298
:1029C00020910F0348EF56E0B801CE010E94F907AD
:1029D00084E00E94180A8823B9F060911001709178
:1029E000110180910E0190910F012091FE02309112
:1029F000FF02203131050CF0A7C00E94DA0A81E005
:102A00000E94B30A0E94260A88E00E94180A8823BE
:102A100019F084E08093060380918C07811102C035
:102A20000E94080CCEE7D7E010E000E084E0F82E2A
:102A300080918C078017110609F008F489C04C8139
:102A40004F5F40932B0728813981309328072093CB
:102A500027078A819B8190932A0780932907F09208
:102A60002C074430C0F110922B0760910E01709139
:102A70000F01261737073CF4A9014F5F5F4F5093B2
:102A8000280740932707409127075091280764178C
:102A9000750734F441505109509328074093270794
:102AA0006091100170911101861797073CF4AC01F9
:102AB0004F5F5F4F50932A074093290740912907A2
:102AC00050912A076417750734F441505109509307
:102AD0002A074093290740918D0750918E076091F6
:102AE0009107640F752F711D26173707BCF4205FFF
:102AF0003F4F4217530794F440918F07509190072E
:102B000020919207240F352F311D8217930734F43B
:102B100042964817590714F4F092060387E0E7E25B
:102B2000F7E0DE0101900D928A95E1F76A817B81E1
:102B300020910F0340EB59E0888199810E94F907A9
:102B40000F5F1F4F279674CF0E94DA0A80E058CF9C
:102B50008230C8F4809102038823A9F0D0E0C0E05D
:102B6000809102038C171D0671F06CF00E94A30B7C
:102B70008091020381508093020380918C07823000
:102B800010F42196EDCF00E510E010930A030093B6
:102B9000090310920C0310920B0382E19AE00E9449
:102BA000F209609103037091040390E080E04AE031
:102BB0000E94250BC7CD0E947B0CC4CD8F929F92A3
:102BC000AF92BF92CF92DF92EF92FF92CF93DF93BB
:102BD000EC01688179818A819B816115710581058C
:102BE000910521F464E279ED8BE597E02DE133EF77
:102BF00041E050E00E94C21649015A019B01AC011C
:102C0000A7EAB1E40E94E1166B017C01ACEEB4EFDF
:102C1000A50194010E94EF16C60ED71EE81EF91EEC
:102C2000F7FE06C081E0C81AD108E10880E8F80A7A
:102C3000C882D982EA82FB82C701B6019F77DF9101
:102C4000CF91FF90EF90DF90CF90BF90AF909F908B
:102C50008F9008958F929F92AF92BF92CF92DF9202
:102C6000EF92FF9260911301709114018091150110
:102C700090911601611571058105910521F464E2B9
:102C800079ED8BE597E02DE133EF41E050E00E94D4
:102C9000C21649015A019B01AC01A7EAB1E40E94A6
:102CA000E1166B017C01ACEEB4EFA50194010E942A
:102CB000EF16C60ED71EE81EF91EF7FE06C081E00D
:102CC000C81AD108E10880E8F80AC0921301D0922E
:102CD0001401E0921501F0921601C701B6019F7729
:102CE000FF90EF90DF90CF90BF90AF909F908F902C
:102CF00008956093130170931401809315019093CC
:102D000016010895BB27FB015527AA27880F991F95
:102D1000AA1FA41710F0A41B83955051B9F7A05D0A
:102D2000AA3308F0A95DA193009779F7B111B19387
:102D30001192CB010C949C16DC01FC01672F719160
:102D40007723E1F7329704C07C916D937083629191
:102D5000AE17BF07C8F30895F999FECF92BD81BDA4
:102D6000F89A992780B50895262FF999FECF1FBAB2
:102D700092BD81BD20BD0FB6F894FA9AF99A0FBEA4
:102D800001960895052E97FB1EF400940E94D91613
:102D900057FD07D00E942B1707FC03D04EF40C946C
:102DA000D91650954095309521953F4F4F4F5F4F25
:102DB000089590958095709561957F4F8F4F9F4FA7
:102DC00008950E944D17A59F900DB49F900DA49F4C
:102DD000800D911D11240895B7FF0C94E1160E94F7
:102DE000E116821B930B08952F923F924F925F92B0
:102DF0006F927F928F929F92AF92BF92CF92DF920B
:102E0000EF92FF920F931F93CF93DF93CDB7DEB76F
:102E1000CA1BDB0B0FB6F894DEBF0FBECDBF099403
:102E20002A88398848885F846E847D848C849B845A
:102E3000AA84B984C884DF80EE80FD800C811B8168
:102E4000AA81B981CE0FD11D0FB6F894DEBF0FBE97
:102E5000CDBFED010895A1E21A2EAA1BBB1BFD01F7
:102E60000DC0AA1FBB1FEE1FFF1FA217B307E40769
:102E7000F50720F0A21BB30BE40BF50B661F771FC1
:102E8000881F991F1A9469F76095709580959095A1
:102E90009B01AC01BD01CF010895A29FB001B39F7A
:102EA000C001A39F700D811D1124911DB29F700D53
:102EB000811D1124911D0895AA1BBB1B51E107C060
:102EC000AA1FBB1FA617B70710F0A61BB70B881FBA
:102ED000991F5A95A9F780959095BC01CD01089549
:102EE00097FB072E16F4009407D077FD09D00E94B7
:102EF0005C1707FC05D03EF4909581959F4F08958F
:102F0000709561957F4F0895EE0FFF1F0590F49126
:102F1000E02D09940F931F93CF93DF938230910597
:102F200010F482E090E0E0919907F0919A0730E088
:102F300020E0B0E0A0E0309799F42115310509F4C4
:102F40004AC0281B390B24303105D8F58A819B8172
:102F50006115710589F1FB0193838283FE0111C024
:102F6000408151810281138148175907E0F04817C9
:102F7000590799F4109761F012960C9312971396D3
:102F80001C933296CF01DF91CF911F910F9108953D
:102F90000093990710939A07F4CF2115310551F04A
:102FA0004217530738F0A901DB019A01BD01DF0187
:102FB000F801C1CFEF01F9CF90939A078093990759
:102FC000CDCFFE01E20FF31F81939193225031097F
:102FD00039832883D7CF2091970730919807232BE7
:102FE00041F42091190130911A01309398072093F0
:102FF000970720911701309118012115310541F4EF
:103000002DB73EB740911B0150911C01241B350B7D
:10301000E0919707F0919807E217F307A0F42E1BB1
:103020003F0B2817390778F0AC014E5F5F4F24172C
:10303000350748F04E0F5F1F50939807409397074E
:10304000819391939FCFF0E0E0E09CCFCF93DF930B
:103050000097E9F0FC01329713821282A091990740
:10306000B0919A07ED0130E020E01097A1F42081A3
:103070003181820F931F209197073091980728176D
:10308000390709F061C0F0939807E0939707DF9143
:10309000CF910895EA01CE17DF07E8F54A815B81F9
:1030A0009E0141155105B1F7E901FB83EA8349917E
:1030B0005991C40FD51FEC17FD0761F480819181F0
:1030C0000296840F951FE9019983888382819381F9
:1030D0009B838A83F0E0E0E012968D919C91139798
:1030E0000097B9F52D913C911197CD010296820F71
:1030F000931F20919707309198072817390739F6C1
:10310000309751F510929A0710929907B09398074B
:10311000A0939707BCCFD383C28340815181840F92
:10312000951FC817D90761F44E5F5F4F8881998159
:10313000480F591F518340838A819B8193838283E7
:103140002115310509F0B0CFF0939A07E093990764
:103150009ECFFD01DC01C0CF13821282D7CFB0E039
:10316000A0E0E5EBF8E10C94F6168C01009751F421
:10317000CB010E948A178C01C801CDB7DEB7E0E110
:103180000C941217FC01E60FF71F9C012250310925
:10319000E217F30708F49DC0D901CD91DC91119796
:1031A000C617D70798F0C530D10530F3CE01049784
:1031B0008617970708F3C61BD70B2297C193D193A5
:1031C0006D937C93CF010E942618D6CF5B01AC1A79
:1031D000BD0A4C018C0E9D1EA0919907B0919A07D3
:1031E000512C412CF12CE12C109731F5809197074F
:1031F000909198078815990509F05CC04616570606
:1032000008F058C08091170190911801009741F47F
:103210008DB79EB740911B0150911C01841B950BEB
:10322000E817F90708F055C0F0939807E09397075F
:10323000F90171836083A0CF8D919C9111971296B3
:103240006C90129713967C901397A815B90559F5B1
:103250006C0142E0C40ED11CCA14DB0420F1AC01A5
:103260004A195B09DA011296159780F0628273821F
:1032700051834083D9016D937C93E114F10471F083
:10328000D7011396FC93EE93129776CF22968C0F6C
:103290009D1FF90191838083F301EFCFF0939A078B
:1032A000E093990769CF4816590608F42C017D016F
:1032B000D3019ACFCB010E948A177C01009749F075
:1032C000AE01B8010E946C19C8010E94261887013E
:1032D00053CF10E000E050CFFB01DC0102C00190B1
:1032E0000D9241505040D8F70895FB01DC01019048
:0C32F0000D920020E1F70895F894FFCF44
:1032FC001001FFFFFFFF00E1000000000000400094
:10330C002000010100000000009B0780000200006B
:10331C00000000010000000000000002000000009E
:10332C00000000000000000200000001000100018C
:10333C00000000010000000000000000000000037D
:10334C000000000000000000000000000000000170
:10335C00000300000000000000020000000000005C
:10336C000003000000000003000200010001000146
:10337C00000000010001000000020000000000003D
:10338C00000000000002000000000000000000012E
:10339C00000000000003000200000000000000011B
:1033AC00000300000000000200000002000000000A
:1033BC0000010001000000010001000200000001FA
:1033CC0000010003000100000000000000000003E9
:1033DC0000000002000300020000000100000002D7
:1033EC0000000000000000000000000000000002CF
:1033FC0000000003000000000000000000000003BB
:10340C0000000000000000000000000200000002AC
:10341C00000000000000000200000000000000009E
:10342C00000000000000000200030000000000008B
:10343C00000000030000000000000000000000037A
:10344C00000000020000000000000000000000026C
:10345C00000000000000000000000001000000025D
:10346C00000000020000000000000001000000004D
:10347C000000000000000002000000020001000239
:10348C00000000000000000200000000000000002E
:10349C00000000020000C18081000000000000005C
:1034AC00DC057407FD05F205430601061F06000046
:1034BC0000004B09EF06220B210B53636F72652042
:0434CC00002C0000D0
:00000001FF
