:100000000C9443060C946B060C946B060C946B06D4
:100010000C946B060C946B060C946B060C946B069C
:100020000C946B060C946B060C94F40E0C94630FFA
:100030000C946B060C946B060C946B060C946B067C
:100040000C946B060C946B060C946B060C946B066C
:100050000C946B060C946B060C946B060C94951127
:100060000C946B060C946B060C946B060C946B064C
:100070000C946B060C946B060C946B060C946B063C
:100080000C94DF110C946B060C946B060C946B06AD
:100090000C946B060C946B060C946B060C946B061C
:1000A0000C946B060C946B060C946B0648554E54DE
:1000B000210A0000000000003E5B4F5B3E3E6B4F9C
:1000C0006B3E1C3E7C3E1C183C7E3C181C577D57EA
:1000D0001C1C5E7F5E1C00183C1800FFE7C3E7FF96
:1000E0000018241800FFE7DBE7FF30483A060E2629
:1000F00029792926407F050507407F05253F5A3C81
:10010000E73C5A7F3E1C1C08081C1C3E7F14227FC3
:1001100022145F5F005F5F06097F017F006689959B
:100120006A606060606094A2FFA29408047E040884
:1001300010207E201008082A1C08081C2A08081E07
:10014000101010100C1E0C1E0C30383E3830060EED
:100150003E0E06000000000000005F0000000700E7
:100160000700147F147F14242A7F2A1223130864A3
:100170006236495620500008070300001C22410047
:100180000041221C002A1C7F1C2A08083E08080087
:100190008070300008080808080000606000201027
:1001A0000804023E5149453E00427F4000724949E1
:1001B00049462141494D331814127F1027454545C2
:1001C000393C4A49493141211109073649494936E3
:1001D000464949291E000014000000403400000078
:1001E00008142241141414141400412214080201AA
:1001F0005909063E415D594E7C1211127C7F4949D6
:1002000049363E414141227F4141413E7F49494972
:10021000417F090909013E414151737F0808087F68
:1002200000417F41002040413F017F081422417F6F
:10023000404040407F021C027F7F0408107F3E4107
:1002400041413E7F090909063E4151215E7F09195E
:100250002946264949493203017F01033F40404076
:100260003F1F2040201F3F4038403F631408146365
:1002700003047804036159494D43007F4141410221
:1002800004081020004141417F0402010204404063
:10029000404040000307080020545478407F284421
:1002A00044383844444428384444287F385454540B
:1002B0001800087E090218A4A49C787F080404781A
:1002C00000447D40002040403D007F102844000055
:1002D000417F40007C047804787C0804047838442A
:1002E000444438FC1824241818242418FC7C0804DE
:1002F0000408485454542404043F44243C404020FF
:100300007C1C2040201C3C4030403C4428102844A9
:100310004C9090907C4464544C440008364100005A
:1003200000770000004136080002010204023C266A
:1003300023263C1EA1A161123A4040207A38545431
:1003400055592155557941215454784121555478B6
:100350004020545579400C1E52721239555555594A
:10036000395454545939555454580000457C41006F
:1003700002457D420001457C40F0292429F0F02807
:100380002528F07C545545002054547C547C0A099F
:100390007F4932494949323248484832324A48480E
:1003A000303A4141217A3A42402078009DA0A07D18
:1003B00039444444393D4040403D3C24FF242448D6
:1003C0007E4943662B2FFC2F2BFF0929F620C0887E
:1003D0007E090320545479410000447D413048484F
:1003E0004A32384040227A007A0A0A727D0D193169
:1003F0007D2629292F28262929292630484D4020C5
:10040000380808080808080808382F10C8ACBA2FA0
:10041000102834FA00007B000008142A1422221449
:100420002A14089500220095AA005500AAAA55AAE8
:1004300055AA000000FF00101010FF00141414FF54
:10044000001010FF00FF1010F010F0141414FC0046
:100450001414F700FF0000FF00FF1414F404FC1450
:100460001417101F10101F101F1414141F00101049
:1004700010F0000000001F101010101F10101010BE
:10048000F010000000FF101010101010101010FFDE
:1004900010000000FF140000FF00FF00001F1017F5
:1004A0000000FC04F414141710171414F404F400DE
:1004B00000FF00F714141414141414F700F71414A4
:1004C00014171410101F101F141414F4141010F02B
:1004D00010F000001F101F0000001F14000000FC9F
:1004E000140000F010F01010FF10FF141414FF148B
:1004F0001010101F00000000F010FFFFFFFFFFF0C2
:10050000F0F0F0F0FFFFFF0000000000FFFF0F0F12
:100510000F0F0F38444438447C2A2A3E147E0202CE
:100520000606027E027E0263554941633844443C1C
:1005300004407E201E2006027E020299A5E7A599AE
:100540001C2A492A1C4C7201724C304A4D4D3030E5
:1005500048784830BC625A463D3E494949007E01D0
:1005600001017E2A2A2A2A2A44445F444440514AEF
:10057000444040444A51400000FF0103E080FF0036
:100580000008086B6B083612362436060F090F0672
:10059000000018180000001010003040FF0101009A
:1005A0001F01011E00191D1712003C3C3C3C0000BD
:1005B000000000F0F89C8E8783878E9CF8F0000086
:1005C000FEFF0303030303070EFCF80000FEFF0316
:1005D00003030303070EFCF80000FFFF0000000008
:1005E000000000FFFF0000FEFF8383838383C7EECC
:1005F0007C380000F8FC0E07030303070EFCF8002C
:10060000003F7FE0C08080C0E07F3FFFFF0101012D
:1006100001010101FFFF0000FFFF0C0C0C0C1C3E50
:1006200077E3C100007FFFC0C0C0C0C0E0703F1FC3
:1006300000001F3F70E0C0C0C0E0703F1F00007F9F
:10064000FFC1C1C1C1C1E3773E1C00001F3F70E084
:10065000C0C0C0E0703F1F000000000001FFFF01AC
:10066000000000D5F08D14A1C881CFD9F1AF2000D2
:100670004A01FA007201FA009F0177014A017D00E8
:1006800072017D009F017D004A01FA007201FA00AB
:100690004A01FA001501FA00EE01FA00B801FA0069
:1006A0009F01FA007201FA009F01F4017201FA0041
:1006B0007201FA004A017D0072017D009F017701FD
:1006C0004A017D0072017D009F017D004A01FA0010
:1006D0007201FA001501FA001501FA00EE01FA00A4
:1006E000B801FA009F01FA007201FA004A01F40110
:1006F0000000FA009302FA006E02FA003701FA00D5
:100700007201FA00EE01770137017D007201FA00F3
:10071000EE01FA00B8017D00EE017D007201FA00E1
:100720009F017D0072017D009F017D0072017D00AF
:100730009F01770172017D009F01FA007201FA00AA
:100740004A01FA0072017D004A017D003701FA007A
:100750007201FA00EE01770137017D007201FA00A3
:10076000EE01FA00B8017D00EE017D007201FA0091
:100770009F01F4012A02F4019F01F4019302FA009F
:100780006E02FA003701FA007201FA00EE017701F9
:1007900037017D007201FA00EE01FA004A01FA0009
:1007A00072017D004A017D003701FA007201FA00F2
:1007B000EE01770137017D007201FA00EE01FA00C7
:1007C0004A01FA0072017D004A017D00B8017D00F6
:1007D0009F017D00B8017D009F017D00B801770178
:1007E0004A017D003701770172017D0072017D00B1
:1007F000EE017D003701FA004A01E80300804F5006
:1008000054494F4E5300504C4159001010FF7FFB8C
:10081000FFFFBFFFFFF7FFFDFFFFF77FFFDFFFFFDA
:10082000FB7FFFFFFFEFFEFFFFFBFF7FFF081010C6
:1008300008100810101008000000000000204040C0
:1008400020000102020102020102214040FF1F5B61
:100850003FEBDDFFF7BBEFFD7FE3CBE3FFFFC79689
:10086000C7FFFFEFFDFFE3CBE3FFFF7BFFFFDF7B76
:100870003F9F6F77ABDBD7CD5FBF77FFFFFFC1DC5B
:10088000D3AF9FAEB0BBBDBDBAD7CC63FF101100D4
:1008900000F0F8F8FCFCFCFCFCFC7C78F870000034
:1008A00000033737CFEFEFEF2F6C6B0B0C0300001B
:1008B0000000000000000000000000000000000038
:1008C00000F0F8F8FCFCFCFCFCFC7C78F870000004
:1008D000000317372F4F2F2F2F6C6B6B0C0300006B
:1008E0000000000000000000000000000000000008
:1008F00000F0F8F8FCFCFCFCFCFC7C78F8700000D4
:1009000000033737CFEFEFEF2F6C6B0B0C030000BA
:1009100000000000000000000000000000000000D7
:1009200000F0F8F8FCFCFCFCFCFC7C78F8700000A3
:10093000003337172FEFEFEFEF2C2B0B2C030000BA
:100940000000000000000000000000000000001097
:1009500011000070F8787CFCFCFCFCFCFCF8F8F062
:10096000000000030C0B6B6C2FEFEFEFCF3737035A
:100970000000000000000000000000000000000077
:1009800000000070F8787CFCFCFCFCFCFCF8F8F043
:10099000000000032C0B2B2CEFEFEFEF2F1737335A
:1009A0000000000000000000000000000000000047
:1009B00000000070F8787CFCFCFCFCFCFCF8F8F013
:1009C000000000030C0B6B6C2FEFEFEFCF373703FA
:1009D0000000000000000000000000000000000017
:1009E00000000070F8787CFCFCFCFCFCFCF8F8F0E3
:1009F000000000030CEBEBEC6F6F8F6F6F7717034A
:100A000000000000000000000000000000000000E6
:100A10000010100000F0F8F8FCFCFCFCFCFCFCF8FA
:100A2000F8F00000001B07776F6F2F2F2F6F6F7785
:100A3000071B000000F0F8F8FCFCFCFCFCFCFCF8D8
:100A4000F8F00000003B37072F2F2F2F2F6F6F7705
:100A50001703000000F0F8F8FCFCFCFCFCFCFCF8C0
:100A6000F8F00000001B07776F6F2F2F2F6F6F7745
:100A7000071B000000F0F8F8FCFCFCFCFCFCFCF898
:100A8000F8F00000000317776F6F2F2F2F2F2F071D
:100A9000373B0010100000F0F878BCBC7CFC7CBC3C
:100AA000BC78F8F00000001B07746B6B2C2F2C6BCC
:100AB0006B74071B000000F0F878BCBC7CFC7CBCAD
:100AC000BC78F8F00000003B37042B2B2C2F2CEBCC
:100AD000EBF417030000000000000000000000001D
:100AE00000000000000000F0F878BCBC7CFC7CBC7E
:100AF000BC78F8F00000000D033A353516171635AE
:100B0000353A030D00000000000000000000000066
:100B100000000000000000F0F878BCBC7CFC7CBC4D
:100B2000BC78F8F00000000317F4EBEB2C2F2C2B13
:100B30002B04373B00000000000000000000000014
:100B400000000000001012000000B0B8B878F8F8FB
:100B5000F878B8B0B000000000021D7D7D7E3F3FF8
:100B60003F7E7D7D3D02000000000000000000008F
:100B700000000000000000000000B4B8B878F8F8E9
:100B8000F878B8B8B400000000021D3D3D3E1F1FBC
:100B90001F3E3D3D1D02000000000000000000005F
:100BA0000000000000000093028900DC038900704F
:100BB000038900DC03890010038900DC038900E459
:100BC000028900DC03890093028900DC0389006E3E
:100BD000028900DC03890093028900DC038900E4B8
:100BE000028900DC03890093021301EE011301B8AE
:100BF000011301EE0113014A014C0400804B494CE2
:100C00004C533A2000536F756E64204F6666005354
:100C10006F756E64204F6E00080B00020202000028
:100C2000090400000102020000052400100105244F
:100C300001010104240206052406000107058103C1
:100C400010004009040100020A000000070502022A
:100C5000400000070583024000000403090412015C
:100C60000002EF020140412336800001010203012E
:100C700041726475696E6F204C4C4300417264751B
:100C8000626F7900731211241FBECFEFDAE0DEBF6E
:100C9000CDBF12E0A0E0B1E0ECE6F8E302C00590C1
:100CA0000D92A83DB107D9F727E0A8EDB2E001C049
:100CB0001D92AB3BB207E1F716E0C3E4D6E004C0F7
:100CC0002197FE010E943C1AC234D107C9F70E9445
:100CD000B6120C94341C0C9400008091E702089525
:100CE000E5E3F3E0A0E0B8E000800EBC8111012C48
:100CF0001197A0FDFDCF0192B9F70DB40895FC0145
:100D000080913403882311F13FB7F89482E08093F7
:100D1000E9002091F200822F90E01816190614F4D1
:100D200081E090E0882339F0289844E6409333032B
:100D30004091F1004083222339F02091F2002111EB
:100D400003C02BE62093E8003FBF08958FEF9FEF8D
:100D500008952FB7F89483E08093E9009091E8001C
:100D6000892F807295FF04C09091F20080E4891B66
:100D70002FBF089580912B0381110DC082E08093D5
:100D8000270384E08093280310922A0310922903FA
:100D900081E080932B0387E293E00895CF93DF9364
:100DA0001F92CDB7DEB76983DC01ED91FC91028023
:100DB000F381E02D41E050E0BE016F5F7F4F099568
:100DC0000F90DF91CF91089583E08093E9008091A7
:100DD000F200882319F08AE38093E80008950E94C6
:100DE000A90690E00895CF93DF931F92CDB7DEB7A9
:100DF000FC018485958597FD08C02FEF3FEF35876F
:100E000024870F90DF91CF910895CE0101960E9423
:100E10007F06019719F4898190E0F3CF8FEF9FEF60
:100E2000F0CF0F931F93CF93DF931F92CDB7DEB711
:100E30008C01FC018485958597FF0BC0CE0101963E
:100E40000E947F06019771F4898190E0F8019587EF
:100E50008487F801848595850F90DF91CF911F914C
:100E60000F9108958FEF9FEFF1CFFC018485958559
:100E700097FD0BC09FB7F89482E08093E9008091C2
:100E8000F2009FBF90E0019608959FB7F89482E02A
:100E90008093E9008091F2009FBF90E00895409117
:100EA00021035091220320911F0330912003421708
:100EB0005307B4F49091E8009570E1F39091E80045
:100EC00092FD19C08093F10080912103909122033B
:100ED00001968F739927892B19F48EEF8093E80080
:100EE0008091210390912203019690932203809395
:100EF000210381E0089580E00895DF92EF92FF9250
:100F00000F931F93CF93DF93D82E8A01EB017B01C0
:100F1000E40EF51ECE15DF0559F0D7FE12C0FE0116
:100F200084910E944F0721968111F4CF0FEF1FEF9C
:100F3000C801DF91CF911F910F91FF90EF90DF904B
:100F400008958881EECF0F931F93CF93DF931F9265
:100F5000CDB7DEB782E0898342E450E068E17CE00F
:100F600080E80E947D070E94BA06DC0112960D916E
:100F70001C910115110589F0D801ED91FC910280B9
:100F8000F381E02DBE016F5F7F4FC801099597FD8A
:100F900004C0F80100851185ECCF89810F90DF91A5
:100FA000CF911F910F910895615030F02091F10081
:100FB000FC0120830196F8CF289884E680933303C0
:100FC0000895AF92BF92CF92DF92EF92FF920F936C
:100FD0001F93CF93DF936C017B018B01040F151FCF
:100FE000EB015E01AE18BF08C017D10759F0699137
:100FF000D601ED91FC910190F081E02DC60109959B
:10100000892B79F7C501DF91CF911F910F91FF9047
:10101000EF90DF90CF90BF90AF9008953FB7F894D6
:101020008091E3029091E402A091E502B091E60282
:1010300026B5A89B05C02F3F19F00196A11DB11D33
:101040003FBFBA2FA92F982F8827BC01CD01620F6F
:10105000711D811D911D42E0660F771F881F991F2A
:101060004A95D1F708958F929F92AF92BF92CF92F7
:10107000DF92EF92FF926B017C010E940E084B0100
:101080005C01C114D104E104F104B9F00E940E081E
:10109000681979098A099B09683E734081059105A1
:1010A00080F321E0C21AD108E108F10888EE880E29
:1010B00083E0981EA11CB11CE4CFFF90EF90DF905D
:1010C000CF90BF90AF909F908F9008958F929F92F6
:1010D000AF92BF92CF92DF92EF92FF920F931F9346
:1010E000CF93DF936C017B018A0180910D018823EE
:1010F00009F45CC080913403882309F457C08091BF
:10110000260380FF05C08091E00082608093E000AC
:10111000E801B12C8AEFA82E93E0892E2AE3922EC3
:10112000209711F4BB20D9F10E94A90681110AC0B1
:10113000AA94AA20D9F161E070E080E090E00E94DA
:101140003308EECF8C171D0611F00CF08C2F9FB7D3
:10115000F8948092E9002091E80025FD02C09FBF2D
:10116000DFCF282F30E0C21BD30BF701815020F0D6
:1011700041914093F100FACFE20EF31EBB2021F023
:101180009092E800B12CEBCF8091E80085FDE7CF8D
:101190009092E800BB24B394209709F3F3CF5D98B5
:1011A00084E680932503101611063CF081E090E060
:1011B000F6019383828310E000E0C801DF91CF91B4
:1011C0001F910F91FF90EF90DF90CF90BF90AF9065
:1011D0009F908F9008957F928F929F92AF92BF922F
:1011E000CF92DF92EF92FF920F931F93CF93DF93F3
:1011F000DC01FA01D490319694914E5F5F4FCD2D72
:10120000D0E02223E1F001E010E0892F877011F493
:1012100010E000E0E92FE695E695E695E00FF12F66
:10122000F11DEC9F8001ED9F100DFC9F100D11240E
:10123000209FF001219FF00D11244E0F5F1F7E01B2
:10124000EA0EFB1E1E141F040CF0A6C0A038B10548
:101250000CF0A2C09B01290F311D121613060CF0D1
:101260009BC0603471050CF097C04115510509F41D
:1012700093C0062F07709B0177FF02C0295F3F4F85
:1012800083E0359527958A95E1F7F22F77FF04C023
:10129000002311F0FFEFF20F222733272A1B3B0B0D
:1012A000B7FD02C030E020E010E81A1B712E10E8F4
:1012B000E116F1040CF47D2C721A6F2F0F2E000C26
:1012C000770BF62EF094FF3F0CF0F12CE1E0892F24
:1012D000877009F4E0E09695969596959E0F690FB4
:1012E000711D6930710514F098E09F1B9F2C9F0EB3
:1012F000692D70E8670350011124AA0DBB1DA20FD0
:10130000B31FDF9C200D311D1124420F531FC02E2F
:10131000002E000CDD082FEF30E0002E02C0220F5F
:10132000331F0A94E2F720953095832E9F0F99156D
:1013300099F1FD01EB5CFC4F7F01B12CA12CA714AE
:1013400028F5FA01EA0DFB1D649170E00C2C02C037
:10135000660F771F0A94E2F797FC05C0F7018081BA
:101360008223862B8083002351F0F6E0F9153CF0B0
:10137000F701E058FF4F80818821872B80831FEF82
:10138000A11AB10A6FEFE61AF60AD9CF93944C0F5F
:101390005D1FA058BF4FCBCFDF91CF911F910F9111
:1013A000FF90EF90DF90CF90BF90AF909F908F9085
:1013B0007F9008952D9A0895BC0190E080E00C94F0
:1013C00033088FB18095807F669B88601C9B84600A
:1013D000089520E191E061FD94E060FD990F62FDC8
:1013E0009295687F269FD0011124A80FAB5CBC4F5B
:1013F0008C9140FF03C0892B8C930895909589238D
:10140000FBCFAF92BF92CF92DF92EF92FF920F93FA
:101410001F93CF93DF936B01EC015C01A40EB11C11
:101420007B01E20EF11CCA15DB05E4F48601D7FE50
:1014300002C010E000E0C70121E4E216F10414F05C
:1014400080E490E0081719075CF4C038D10528F44F
:1014500040E0B801CE010E94E9090F5F1F4FEBCFBA
:101460002196E1CFDF91CF911F910F91FF90EF90E7
:10147000DF90CF90BF90AF90089580E0E5E3F3E078
:1014800081118FEF00248193819381938193039441
:10149000D1F71092140310921303109216031092B6
:1014A000150308952F923F924F925F926F927F9211
:1014B0008F929F92AF92BF92CF92DF92EF92FF9264
:1014C0000F931F93CF93DF9300D000D01F92CDB71F
:1014D000DEB76D30C9F0409000016090130370904A
:1014E0001403042D10E06A3049F51092160310928F
:1014F000150383E0000F111F8A95E1F7600E711E3E
:10150000709214036092130381E090E00F900F90AB
:101510000F900F900F90DF91CF911F910F91FF903F
:10152000EF90DF90CF90BF90AF909F908F907F9083
:101530006F905F904F903F902F90089520901503EB
:1015400030901603E5E06E9FC00111248D549F4F2B
:101550009D838C836101512CF5E05F1651F18C81E4
:101560009D810196EC81FD81F491F9839D838C83AB
:10157000430128E02A83898181708B8376018E2D37
:101580008C198415E0F4B12CA12CA414A0F490E8DB
:10159000E916F10450F4B4016A0D7B1D6034710545
:1015A00020F44B81C7010E94E909EFEFAE1ABE0A91
:1015B000ECCF1982DDCFFFEFEF1AFF0AE0CF2981D0
:1015C000269529838A8181508A83800E911E8111FC
:1015D000D2CF5394C00ED11E96E05912BDCFC10197
:1015E000459C800D911D1124909316038093150343
:1015F0008BCF0F931F93CF93DF938C01D0E0C0E08C
:10160000F801EC0FFD1F6491662341F083EB97E036
:101610000E94520A892B11F02196F2CFCE01DF9160
:10162000CF911F910F91089590911B03982329F456
:1016300090911C03982381E009F480E00895CF93F2
:10164000C82F0E94E109982F9C2381E09C1380E021
:10165000CF91089580E00C94700620913F07E091AF
:101660003D07F0913E07CF01029690933E0780938D
:101670003D07222319F085919491089580819181ED
:101680000895CF92DF92EF92FF92CF93DF930E9463
:101690002D0B811520E8920791F4809171008D7FC8
:1016A0008093710010929100469847981092DB0247
:1016B000DF91CF91FF90EF90DF90CF90089521E0E0
:1016C0002093DB02813020E8920751F480913B07A0
:1016D00090913C0790933E0780933D070E942D0B0D
:1016E00097FD05C02091DA02222309F454C020910D
:1016F000D902211150C021E02093DC02EC01DF77F8
:10170000209709F04BC081E08093DD0246983FE9C5
:10171000C32E3FE0D32EE12CF12CCAEFD0E0E091B4
:101720009E07F0919F070995811103C081E0809386
:10173000DD028091DC02882329F08091DD0288237C
:1017400009F43FC047980E942D0B0097F1F19C01CE
:10175000DE010E94051ADC01CB0129E0B595A795B1
:10176000979587952A95D1F7109290002AE02093BB
:101770009100D0929900C09298008093DE029093DD
:10178000DF02A093E002B093E102809171008260D9
:10179000809371008DCF1092DC02B0CF9E0150E09B
:1017A00040E060E472E48FE090E00E947A19690101
:1017B0007A0181E0C81AD108E108F1081092DD022F
:1017C000AECF4699BFCF479ABECF8FEF9FEFDC01D8
:1017D000CBCF9C01E1E7F0E090819D7F9083109258
:1017E0003F07E0E9F7E0F0933E07E0933D07F09311
:1017F0003C07E0933B073183208384E690E09383AA
:10180000828380E090E8958384830C94410B2F922F
:101810003F924F925F926F927F928F929F92AF9280
:10182000BF92CF92DF92EF92FF920F931F93CF93CD
:10183000DF93312C86E0282E44244A94542C809146
:10184000AC07381608F061C0A32CB12C2A9C80018B
:101850002B9C100D11240056184FF801E080F180E8
:10186000C280D380C8EED2E03701F0E16F0E711C68
:10187000460182E1880E911C288139818C81820F7A
:10188000932F911DE816F906C4F526153705ACF51A
:101890002A813B818D81820F932F911DC816D90615
:1018A00064F5281539054CF58091110390911203C8
:1018B000019690931203809311035982488283E921
:1018C00092E00E94E90B8091AC073816B0F4815089
:1018D0008093AC079801A50190E0481759076CF474
:1018E0004F5F5F4F66E0F9013696D90101900D9286
:1018F0006A95E1F72A5F3F4FF0CF2696E3E0C630C6
:10190000DE0709F0B9CF33949ACFDF91CF911F91C1
:101910000F91FF90EF90DF90CF90BF90AF909F908E
:101920008F907F906F905F904F903F902F90089591
:10193000E8EEF2E04FEF5FEF208131812F3F320779
:1019400031F0811104C02F5F3F4F3183208320810C
:1019500031812F3F320731F0882321F021503109A6
:1019600031832083208131812038310514F0518367
:101970004083369693E0E630F907F1F608950F9329
:101980001F93CF93DF93AC018091D80281110EC0D9
:10199000E8EEF2E030E020E080819181019629F1CB
:1019A0002F5F3F4F369625303105B1F7C8EED2E0B4
:1019B00006E013E0888199818F3F980731F06A81B2
:1019C0007B8123E043E00E94010A26960C171D0745
:1019D00089F78091D802882319F081508093D8022A
:1019E000DF91CF911F910F91089596E0929FF001A2
:1019F000939FF00D1124E851FD4F518340836D5F9B
:101A00007F4F738362839093D802D0CF88E290E0B7
:101A100090931603809315038EE190E09093140346
:101A20008093130382E0809300018CEA90E00E948F
:101A3000F90A88E00E94140B882329F081E0809342
:101A4000000180931A030895089590E080E00895BE
:101A50008F929F92AF92BF920F931F93CF93DF937A
:101A6000CDB7DEB7A1970FB6F894DEBF0FBECDBFDE
:101A700019A2423008F44AE08E010F5D1F4F842EF8
:101A8000912CB12CA12CA50194010E94E319E62F01
:101A9000B901CA01EA3044F5E05DD801EE938D0149
:101AA000232B242B252B79F790E080E0109769F009
:101AB000FD0101900020E9F73197AF014A1B5B0B54
:101AC000BD0183EB97E00E94E107A1960FB6F89461
:101AD000DEBF0FBECDBFDF91CF911F910F91BF90A1
:101AE000AF909F908F900895E95CD7CF8F929F928F
:101AF000AF92BF92CF92DF92EF92FF92CF93DF939C
:101B0000C0910E01D0910F016091100170911101EF
:101B100083E4882E99249394A12CB12C95E9C92EA5
:101B2000D12CE12CF12CCE0103978A379105B0F42A
:101B30000E94E218A50194010E947A196256710967
:101B400081099109EB010E94E218A70196010E9408
:101B50007A196652710981099109E5CFD093360748
:101B6000C0933507709338076093370784E08093FC
:101B70003A078091AC07823079F096E0989FD001C7
:101B80001124A056B84FE5E3F7E001900D929A9525
:101B9000E1F78F5F8093AC07DF91CF91FF90EF90DB
:101BA000DF90CF90BF90AF909F908F900895CF938C
:101BB000DF93D0E0C0E0809112018C171D0679F010
:101BC00070F08091AC07823020F40E94760D21964F
:101BD000F2CF809110038F5F80931003F8CF8F5F57
:101BE00080931201DF91CF9108950C9464190F93A3
:101BF0001F93CF93DF93EC0188819981009759F06F
:101C00002A813B812617370730F081E0DF91CF91A1
:101C10001F910F9108958B016F5F7F4F0E94671B8B
:101C2000009759F0998388831B830A832C813D8117
:101C3000232B59F7FC011082E8CF80E0E7CFEF9229
:101C4000FF920F931F93CF93DF93EC017B018A01E7
:101C5000BA010E94F70D28813981811114C0211524
:101C6000310519F0C9010E94DE1A198218821D82FD
:101C70001C821B821A82CE01DF91CF911F910F919E
:101C8000FF90EF9008951D830C83B701C9010E9456
:101C90002D1CF1CFCF92DF92EF92FF920F931F9303
:101CA000CF93DF93CDB7DEB767970FB6F894DEBF5B
:101CB0000FBECDBF84E190E090931603809315038F
:101CC0008EE190E0909314038093130382E080935D
:101CD000000180911103909112031B8A1A8A1D8AB8
:101CE0001C8A1F8A1E8A4AE08E010F5F1F4FB801AF
:101CF0000E943A19F80101900020E9F73197AF01ED
:101D0000401B510BB801CE0142960E941F0E1A8251
:101D100019821C821B821E821D8246E050E06BEC01
:101D200072E0C8010E941F0ECA88DB88C114D1046A
:101D300009F44DC0EE88FF88E114F104A9F08D810B
:101D40009E81E80EF91EB701C8010E94F70D882395
:101D5000F1F129813A818D819E81B601820F931F15
:101D60000E942D1CFE82ED824D815E8169817A8107
:101D700083EB97E00E94E10789819A81009711F037
:101D80000E94DE1A8A899B89009711F00E94DE1A50
:101D900088E00E941F0B882359F00E943D0A109290
:101DA00012031092110384E68093130110921A0318
:101DB00067960FB6F894DEBF0FBECDBFDF91CF910F
:101DC0001F910F91FF90EF90DF90CF900895898140
:101DD0009A81009711F00E94DE1A1A8219821E82DF
:101DE0001D821C821B82C0CF1F920F920FB60F92D2
:101DF00011248F939F938091E1009091E100937F54
:101E00009093E10083FF0FC01092E90091E090935E
:101E1000EB001092EC0092E39093ED0010923403EB
:101E200098E09093F00082FF22C093E09093E90045
:101E30009091F200992319F09AE39093E800909121
:101E40002503992341F09091250391509093250308
:101E5000911101C05D9A90913303992341F09091C3
:101E60003303915090933303911101C0289A84FF5A
:101E700018C08091E2008E7E81608093E2008091A4
:101E8000E1008F7E8093E100809126038E7E806149
:101E9000809326039F918F910F900FBE0F901F90FC
:101EA000189580FFF7CF8091E2008E7E806180934D
:101EB000E2008091E1008E7E8093E1008091260314
:101EC0008E7E8160E5CF1F920F920FB60F92112484
:101ED000CF92DF92EF92FF920F931F932F933F9336
:101EE0004F935F936F937F938F939F93AF93BF9322
:101EF000EF93FF93CF93DF93CDB7DEB76C97DEBF41
:101F0000CDBF1092E9008091E80083FF25C068E012
:101F1000CE0145960E94D40782EF8093E8008D8918
:101F200087FF39C09091E80090FFFCCF982F907602
:101F300009F034C19E894F89588D2F89F88C9111F1
:101F400031C0803861F5809124038093F1001092B4
:101F5000F1008EEF8093E8006C960FB6F894DEBF28
:101F60000FBECDBFDF91CF91FF91EF91BF91AF91A8
:101F70009F918F917F916F915F914F913F912F91A1
:101F80001F910F91FF90EF90DF90CF900F900FBEB9
:101F90000F901F9018959EEF9093E800C7CF109276
:101FA000F100D5CF913059F48111D3CF4130510593
:101FB00081F6809124038D7F80932403CACF9330D0
:101FC00049F48111C6CF4130510519F6809124039F
:101FD0008260F2CF953041F48091E80080FFFCCF21
:101FE00020682093E300B5CF963009F0A9C00B8D8F
:101FF0001C8D22E01092E90010922203109221031E
:10200000F2122EC01092200310921F030E94A30709
:102010001F8299E09983FA8291E09E8390EA9887E3
:102020009AEF99872091210330912203275F3F4F38
:102030003C832B838D831092E9001092220310922F
:1020400021031093200300931F0349E050E0BE01D9
:102050006F5F7F4F80E00E947D070E94A30779CFCA
:102060001093200300931F030E94BA06DC0112960E
:102070000D911C910115110509F451C1D801ED9183
:10208000FC910480F581E02DBE016B5E7F4FC8019D
:102090000995009709F03EC1F80100851185EACF46
:1020A000F3E0FF120EC08F89882309F440C082300C
:1020B00061F440E867E08CE79CE00E9440128111E7
:1020C00048CF81E28093EB0047CF813029F440E88C
:1020D0006BE080E79CE0F1CF833099F70E94BA066D
:1020E000DC011296ED90FC908E010F5F1F4F68018E
:1020F000E114F10479F0D701ED91FC910680F781AC
:10210000E02DB801C7010995080F111DF701E08402
:10211000F184EECFD8011C92F60101900020E9F77E
:102120003197BF016C197D0940E0C601C6CF6AE551
:102130007CE0FB01449150E080E80E947D0709CFDC
:10214000973009F4BECF983021F481E08093F100FC
:1021500000CF993009F0FDCE837009F0B2CFE7EAE5
:10216000F2E081E031E096E32191222371F0809347
:10217000E9003093EB00DF0111972C912093EC00E4
:102180009093ED008F5F873079F78EE78093EA00B8
:102190001092EA008F8980933403DBCE8B8D9C8D67
:1021A0001092E900109222031092210390932003D1
:1021B00080931F03898D811192C08E899D89913AE8
:1021C00049F4813209F07DCF47E050E066E071E0EC
:1021D00080E0B3CF913209F074CF833269F48F89F4
:1021E000988DB0E0A0E08093020190930301A0934A
:1021F0000401B0930501ADCE803269F48091E8000E
:1022000082FFFCCF67E086E091E00E94D4078BEF6D
:102210008093E8009ECE823209F09BCE8F89809316
:102220000D01EEEFFFE7859194918B3F9C4D51F1AD
:10223000E0E0F8E08091060190910701A09108018B
:10224000B0910901803B9440A105B105F1F4809162
:102250000D0180FD1AC0EE3F8AE0F80789F587E797
:1022600097E791838083809160008093230388E1C6
:102270009BE00FB6F894A895809360000FBE9093F2
:10228000600067CEEEEFFAE0D5CF8081918187378D
:10229000974709F05ECEA895809160008861809391
:1022A00060008091230380936000EE3F2AE0F207F4
:1022B00089F08091FE0A9091FF0A9183808349CE34
:1022C000808191818737980751F29093FF0A80931C
:1022D000FE0AC5CF1092FF0A1092FE0A3ACE0E9463
:1022E000BA06DC0112960D911C910115110509F435
:1022F000E8CED801ED91FC910190F081E02DBE0176
:102300006B5E7F4FC8010995811123CEF8010085CE
:102310001185EBCF181619060CF41BCED2CEF1E0C6
:10232000FF12BECE6EE57CE004CF1F920F920FB677
:102330000F9211242F933F938F939F93AF93BF934B
:102340008091060390910703A0910803B0910903BF
:102350003091E20223E0230F2D3758F50196A11D9D
:10236000B11D2093E2028093060390930703A0938C
:102370000803B09309038091E3029091E402A091D5
:10238000E502B091E6020196A11DB11D8093E30222
:102390009093E402A093E502B093E602BF91AF915F
:1023A0009F918F913F912F910F900FBE0F901F9093
:1023B000189526E8230F0296A11DB11DD2CF1F92BA
:1023C0000F920FB60F9211242F933F934F935F9369
:1023D0006F937F938F939F93AF93BF93EF93FF93ED
:1023E0008091DE029091DF02A091E002B091E102C3
:1023F000892B8A2B8B2B09F440C08091DD0281113F
:102400000BC088B190E4892788B98091DC028823C9
:1024100019F088B1805888B98091DE029091DF026E
:10242000A091E002B091E102181619061A061B06E7
:102430009CF48091DE029091DF02A091E002B091C5
:10244000E1020197A109B1098093DE029093DF02B6
:10245000A093E002B093E102FF91EF91BF91AF91A1
:102460009F918F917F916F915F914F913F912F91AC
:102470000F900FBE0F901F9018950E94410BECCF4C
:10248000EF92FF920F931F93CF93DF93F82E192FA4
:10249000E62E042F81E0860F880F0E944F0783E00D
:1024A0000E944F07CF2DD12FEC0EFD2EF11CCE1523
:1024B000DF05B9F007FF13C0FE0184910E944F07AA
:1024C000182F80E00E944F07812321968111EFCFC2
:1024D000DF91CF911F910F91FF90EF900895888128
:1024E000EDCF81E0F5CFE0E4F7E01382128288EED1
:1024F00093E0A0E0B0E084839583A683B78381EB6B
:1025000092E0918380838FEF9FEF95878487E3EB41
:10251000F7E01382128283EC92E0918380838DE650
:1025200096E090939F0780939E0780E090E89093B9
:102530009D0780939C0746983E9A47983F9AEEE005
:10254000F1E02081318182819381EDEAF7E03183EE
:1025500020839383828380E1848385838CE0E0EA17
:10256000F7E0DF011D928A95E9F70895789484B524
:10257000826084BD84B5816084BD85B5826085BD7F
:1025800085B5816085BD80916E00816080936E000D
:1025900010928100809181008260809381008091FF
:1025A00081008160809381008091800081608093B0
:1025B00080008091910082608093910080919100D1
:1025C0008160809391008091900081608093900061
:1025D0008091C10084608093C1008091C1008260BD
:1025E0008093C1008091C10081608093C10080917F
:1025F000C30081608093C3008091C000826080939B
:10260000C0008091C20081608093C20080917A00F6
:10261000846080937A0080917A00826080937A004F
:1026200080917A00816080937A0080917A0080683E
:1026300080937A00109234031092240310922603A0
:102640008091D70081608093D70080EA8093D80082
:1026500089B5806189BD89B5826089BD09B400FEF4
:10266000FDCF61E070E080E090E00E94330880914F
:10267000D8008F7C80618093D8008091E000807FBB
:102680008093E0008091E1008E7E8093E1008DE0F8
:102690008093E200559A209A81EC80937C0085B16A
:1026A000806F85B984B1877E84B984B1876E84B91F
:1026B0005E9A5F988AB1806D8AB9769A6E9881B376
:1026C000806F81BB899880B38D7080BB80E58CBDA5
:1026D00081E08DBD85E090E00E94DC095F9A85E095
:1026E00090E00E94DC095E985C98E3E6F6E0849155
:1026F0008EBD00000DB407FEFDCF319606E0E03739
:10270000F007A9F75C9A81E88093640080916500E6
:102710008160809365000E942A0B80E80E941F0B55
:102720008823A9F05C9885EA8EBD00000DB407FEF1
:10273000FDCF5C9A2E982F982D988091640080622E
:102740008093640081E083BF889513BEFCCF84E052
:102750000E941F0B882309F448C02D9884E80E942A
:102760001F0B8823E1F00E94DA0988EC90E00E94B8
:10277000DC092F9882E090E00E9464198F3F29F0D5
:102780006FEF82E090E00E946C1984EF91E00E946C
:10279000DC092F9A84E80E941F0B8111FBCF84E192
:1027A0000E941F0B8823E1F00E94DA0988EC90E078
:1027B0000E94DC092E9882E090E00E946419882330
:1027C00029F060E082E090E00E946C1984EF91E0D3
:1027D0000E94DC092E9A84E10E941F0B8111FBCF1D
:1027E00088EC90E00E94DC09B2CF0E94DA0982E016
:1027F00090E00E94F50D882309F4ADC03E9A3F9AFF
:1028000081E08093E70281E090E00E94F50D182FAF
:102810001470712E81FF13C011112E98C1EFDFEFDC
:1028200008E010E0BCE6EB2EF12C80E40E941F0BC8
:10283000882309F495C02E9A2F9A0E94DA0982E320
:1028400090E00E94DC090E94E1098111F8CF80E14B
:1028500080930101809171008D7F8093710081E0F0
:1028600080933F0780E796E090933E0780933D0773
:1028700090933C0780933B070E94410BE8EEF2E007
:1028800026E033E04FEF5FEF83E0518340838483A2
:10289000858336962E173F07C1F70E942A0B0E94A8
:1028A000D70D809164008E7F8093640080917A00C0
:1028B000806480937A0080917A0086FDFCCFC0917D
:1028C0007800D09179000E940E08AB01BC01CE01C6
:1028D000B0E0A0E0DC01992788278C019D01040F5E
:1028E000151F261F371FC901B80120916400216000
:1028F00020936400611571058105910511F00E9416
:1029000031190E943D0A50E1852E912C67EA262E4E
:102910006BE0362E0AE010E034E0632E712C4CE0C0
:10292000442E512C8FB7F894409106035091070321
:1029300060910803709109038FBF80910A03882377
:1029400009F4CCC010920A0380E090E0892B51F387
:102950000E940000DFCF1092E7023E983F9853CFCD
:10296000772029F0C430D10511F42E9A2F9881E0F8
:102970000E9470069E01D7FF04C0222733272C1B1C
:102980003D0B27703327CE01D7FD0796A3E0959521
:102990008795AA95E1F7D7FF05C00197A801421BCB
:1029A000530B9A01BC017695762F6627779567952C
:1029B0006B5C7C4FB0E0A0E02801421A530A8E3FC6
:1029C0005FEF950709F43CC048E550E0FD01E55F85
:1029D000F94F5F014B01F0E88F0E911C8F3F980774
:1029E000A1F0F501E41BF50BE4916701C41AD50AC7
:1029F000C60ED71EF0E01F01022E01C0220C0A9461
:102A0000EAF7F60160802628208221153105A9F019
:102A1000F501E41BF50BE4916701C41AD50AC80C53
:102A2000D91CF0E01F01042C02C0359427940A94AD
:102A3000E2F7F6016080262820824150510971F6A4
:102A40000196A85ABF4F60587F4FA03BB10509F0CF
:102A5000B6CF0E942A0B8FE090E00E94DC092196FD
:102A6000C931D10509F0E1CE772011F02F9A2D98C8
:102A700080E991E00E94DC090E94DA0981E090E09F
:102A80000E94F50D80FFDBCE8AE090E00E94F50DFC
:102A90009FEF980F9E3F08F0D2CE22E330E03093B4
:102AA00016032093150328E330E03093140320939A
:102AB0001303CBE0D0E0682F83EB97E00E94520A2B
:102AC000CE010E94F50D2196C131D105A1F70E94DA
:102AD0002A0B88EE93E00E94DC09B1CE80910B03B3
:102AE000242F281B822F90910101291748F48F5F12
:102AF000891708F029CF81E083BF889513BE24CFC2
:102B0000D1E0D0930A0340930B0380911703909177
:102B100018030196909318038093170380911C0368
:102B200080931B030E94E10980931C03C0911A0348
:102B3000C130C9F1A8F1C33009F464C0C43009F44C
:102B400088C00E943D0A809117039091180364E1A8
:102B500070E00E94141A892B49F480911D03909112
:102B60001E03019690931E0380931D0380911D0305
:102B700090911E03029724F010921E0310921D03E1
:102B800080911A03823009F4A2C008F065C088233E
:102B900009F46BC0813009F46BC00E942A0BD4CEBB
:102BA0000E94060DCECF80E10E94140B882331F0E5
:102BB0008091190381111DC0C093190380E80E9400
:102BC000140B882339F0809119038823A9F08150D0
:102BD0008093190384E00E94140B882309F4B1CF79
:102BE00080911903882351F0813009F0AACF83E046
:102BF00006C010921903E2CF81E0EACF82E0809311
:102C00001A039FCF80E10E94140B882331F080913A
:102C10001903811119C0D093190380E80E94140B85
:102C2000882339F080911903882389F0815080939B
:102C3000190388E00E94140B882309F482CF0E94B4
:102C40003D0A10921A037DCF10921903E6CF81E05E
:102C5000EECF0E944A0E75CF833009F448C284300B
:102C600009F09BCF0E944A0E98CF0E94060D95CF87
:102C700010931603009315037092140360921303CC
:102C800086E098E00E94F90A10931603009315035A
:102C900050921403409213038EEF97E00E94F90ABA
:102CA0008091190338E0839FC0011124049622E02B
:102CB00030E0309316032093150390931403809310
:102CC00013036EE383EB97E00E94520A66CFD12C88
:102CD000C12CF12CE12CD0E0C0E0E0910C03F0918C
:102CE0000D03CF01F7FD0F9624E0959587952A9562
:102CF000E1F7AE01481B590B4E305105C8F58091E4
:102D00000E0390910F039C0197FF02C0215F3F4F7C
:102D1000B4E035952795BA95E1F7B701621B730BBF
:102D20006E30710528F5AEE0A69F9001A79F300D8B
:102D30001124240F351F220F331F225E3E4FB40192
:102D40000E94281A5C01AC0CBD1CCF01B4010E948A
:102D5000281AF90120814BE058E0B501FE01A4E0FA
:102D6000EE0FFF1FAA95E1F78E0F9F1F0E94EB0841
:102D70002196C930D10509F0B0CFFFEFEF1AFF0A55
:102D800020E1C20ED11C35E0E316F10409F0A3CF17
:102D900028E040E370E060E090E080E00E94010AFB
:102DA000109216031092150310921403109213033D
:102DB0006091130170E090E080E04AE00E94280DED
:102DC00041E050E062ED72E083EB97E00E94E107A2
:102DD00043E050E064ED72E083EB97E00E94E1078E
:102DE000E090AF07F090B007C091AD07D091AE076B
:102DF00020E043E95AE0B701CE010E94EB0880E8E9
:102E00000E941F0B8823A1F080910E0390910F0365
:102E1000803191052CF4019690930F0380930E035B
:102E200020911D0341E15AE0B701CE010E94EB0859
:102E300080E10E941F0B8823A9F080910E039091DE
:102E40000F0381354FEF94072CF0019790930F03F8
:102E500080930E0320911D0343E95AE0B701CE0190
:102E60000E94EB0880E20E941F0B8823A1F0809152
:102E70000C0390910D03803191052CF401969093F1
:102E80000D0380930C0320911D034FE459E0B7011B
:102E9000CE010E94EB0880E40E941F0B8823A9F05A
:102EA00080910C0390910D0381355FEF95072CF015
:102EB000019790930D0380930C0320911D034DE81F
:102EC00058E0B701CE010E94EB0884E00E941F0B7E
:102ED0008823D1F086E091E00E94E90B80E20E9415
:102EE0001F0B609110017091110120910E01309122
:102EF0000F01882309F4C3C0C9010E94BF0C81E0FF
:102F00000E94980C0E94070C88E00E941F0B8823E7
:102F100019F084E080931A038091AC07811102C0FC
:102F20000E94D70DC0EAD7E0F12CE12C84E0D82E26
:102F3000CC24C3948091AC078E151F0409F008F4CB
:102F4000A3C04C814F5F409339072881398130936A
:102F50003607209335078A819B81909338078093A9
:102F60003707D0923A074430C0F110923907609188
:102F70000E0170910F01261737073CF4A9014F5F2E
:102F80005F4F509336074093350740913507509176
:102F900036076417750734F44150510950933607CA
:102FA00040933507609110017091110186179707C2
:102FB0003CF4AC014F5F5F4F5093380740933707A5
:102FC00040913707509138076417750734F4415022
:102FD000510950933807409337074091AD075091FE
:102FE000AE076091B107640F752F711D2617370763
:102FF0007CF5205F3F4F4217530754F54091AF07D0
:103000005091B0072091B207240F352F311D821740
:103010009307F4F4429648175907D4F480911301AA
:10302000815080931301811113C0809171008D7FB5
:1030300080937100C0923F0730923E0720923D0777
:1030400030923C0720923B070E94410BD0921A031A
:1030500086E0E5E3F7E0DE0101900D928A95E1F765
:103060006A817B8120911D0345E45BE08881998121
:103070000E94EB088FEFE81AF80A26965BCFC90189
:103080000E94BF0C80E03CCF8230C8F480911003D6
:103090008823A9F0D0E0C0E0809110038C171D06B2
:1030A00071F06CF00E94760D809110038150809336
:1030B00010038091AC07823010F42196EDCFE0E54B
:1030C000F0E0F0931603E0931503109214031092AE
:1030D00013038DEF9BE00E94F90A60911103709138
:1030E000120390E080E04AE00E94280D56CD109334
:1030F00016030093150370921403609213038FE07C
:103100009CE00E94F90A1093160300931503509255
:1031100014034092130385E09CE00E94F90A809119
:103120001903F8E08F9FC0011124C0CD8F929F92A8
:10313000AF92BF92CF92DF92EF92FF92CF93DF9345
:10314000EC01688179818A819B8161157105810516
:10315000910521F464E279ED8BE597E02DE133EF01
:1031600041E050E00E947A1949015A019B01AC01EB
:10317000A7EAB1E40E9499196B017C01ACEEB4EFAF
:10318000A50194010E94A719C60ED71EE81EF91EBC
:10319000F7FE06C081E0C81AD108E10880E8F80A05
:1031A000C882D982EA82FB82C701B6019F77DF918C
:1031B000CF91FF90EF90DF90CF90BF90AF909F9016
:1031C0008F9008958F929F92AF92BF92CF92DF928D
:1031D000EF92FF9260911401709115018091160198
:1031E00090911701611571058105910521F464E243
:1031F00079ED8BE597E02DE133EF41E050E00E945F
:103200007A1949015A019B01AC01A7EAB1E40E9475
:1032100099196B017C01ACEEB4EFA50194010E94F9
:10322000A719C60ED71EE81EF91EF7FE06C081E0DC
:10323000C81AD108E10880E8F80AC0921401D092B7
:103240001501E0921601F0921701C701B6019F77B0
:10325000FF90EF90DF90CF90BF90AF909F908F90B6
:103260000895609314017093150180931601909353
:1032700017010895BB27FB015527AA27880F991F1F
:10328000AA1FA41710F0A41B83955051B9F7A05D95
:10329000AA3308F0A95DA193009779F7B111B19312
:1032A0001192CB010C945419DC01FC01672F719130
:1032B0007723E1F7329704C07C916D93708362911C
:1032C000AE17BF07C8F30895F999FECF92BD81BD2F
:1032D000F89A992780B50895262FF999FECF1FBA3D
:1032E00092BD81BD20BD0FB6F894FA9AF99A0FBE2F
:1032F00001960895052E97FB1EF400940E949119E3
:1033000057FD07D00E94E31907FC03D04EF40C943C
:10331000911950954095309521953F4F4F4F5F4FF4
:10332000089590958095709561957F4F8F4F9F4F31
:1033300008950E94051AA59F900DB49F900DA49F1B
:10334000800D911D11240895B7FF0C9499190E94C6
:103350009919821B930B08952F923F924F925F927F
:103360006F927F928F929F92AF92BF92CF92DF9295
:10337000EF92FF920F931F93CF93DF93CDB7DEB7FA
:10338000CA1BDB0B0FB6F894DEBF0FBECDBF09948E
:103390002A88398848885F846E847D848C849B84E5
:1033A000AA84B984C884DF80EE80FD800C811B81F3
:1033B000AA81B981CE0FD11D0FB6F894DEBF0FBE22
:1033C000CDBFED010895A1E21A2EAA1BBB1BFD0182
:1033D0000DC0AA1FBB1FEE1FFF1FA217B307E407F4
:1033E000F50720F0A21BB30BE40BF50B661F771F4C
:1033F000881F991F1A9469F760957095809590952C
:103400009B01AC01BD01CF010895A29FB001B39F04
:10341000C001A39F700D811D1124911DB29F700DDD
:10342000811D1124911D0895AA1BBB1B51E107C0EA
:10343000AA1FBB1FA617B70710F0A61BB70B881F44
:10344000991F5A95A9F780959095BC01CD010895D3
:1034500097FB072E16F4009407D077FD09D00E9441
:10346000141A07FC05D03EF4909581959F4F08955E
:10347000709561957F4F0895EE0FFF1F0590F491B1
:10348000E02D09940F931F93CF93DF938230910522
:1034900010F482E090E0E091B907F091BA0730E0D3
:1034A00020E0B0E0A0E0309799F42115310509F44F
:1034B0004AC0281B390B24303105D8F58A819B81FD
:1034C0006115710589F1FB0193838283FE0111C0AF
:1034D000408151810281138148175907E0F0481754
:1034E000590799F4109761F012960C93129713965E
:1034F0001C933296CF01DF91CF911F910F910895C8
:103500000093B9071093BA07F4CF2115310551F094
:103510004217530738F0A901DB019A01BD01DF0111
:10352000F801C1CFEF01F9CF9093BA078093B907A3
:10353000CDCFFE01E20FF31F819391932250310909
:1035400039832883D7CF2091B7073091B807232B31
:1035500041F420911A0130911B013093B807209358
:10356000B70720911801309119012115310541F457
:103570002DB73EB740911C0150911D01241B350B06
:10358000E091B707F091B807E217F307A0F42E1BFC
:103590003F0B2817390778F0AC014E5F5F4F2417B7
:1035A000350748F04E0F5F1F5093B8074093B70799
:1035B000819391939FCFF0E0E0E09CCFCF93DF9396
:1035C0000097E9F0FC01329713821282A091B907AB
:1035D000B091BA07ED0130E020E01097A1F420810E
:1035E0003181820F931F2091B7073091B8072817B8
:1035F000390709F061C0F093B807E093B707DF918E
:10360000CF910895EA01CE17DF07E8F54A815B8183
:103610009E0141155105B1F7E901FB83EA83499108
:103620005991C40FD51FEC17FD0761F4808191817A
:103630000296840F951FE901998388838281938183
:103640009B838A83F0E0E0E012968D919C91139722
:103650000097B9F52D913C911197CD010296820FFB
:10366000931F2091B7073091B8072817390739F60B
:10367000309751F51092BA071092B907B093B80776
:10368000A093B707BCCFD383C28340815181840FFD
:10369000951FC817D90761F44E5F5F4F88819981E4
:1036A000480F591F518340838A819B819383828372
:1036B0002115310509F0B0CFF093BA07E093B907AF
:1036C0009ECFFD01DC01C0CF13821282D7CFB0E0C4
:1036D000A0E0EDE6FBE10C94AE198C01009751F4EB
:1036E000CB010E94421A8C01C801CDB7DEB7E0E1E0
:1036F0000C94CA19FC01E60FF71F9C0122503109F6
:10370000E217F30708F49DC0D901CD91DC91119720
:10371000C617D70798F0C530D10530F3CE0104970E
:103720008617970708F3C61BD70B2297C193D1932F
:103730006D937C93CF010E94DE1AD6CF5B01AC1A49
:10374000BD0A4C018C0E9D1EA091B907B091BA071D
:10375000512C412CF12CE12C109731F58091B707B9
:103760009091B8078815990509F05CC04616570670
:1037700008F058C08091180190911901009741F408
:103780008DB79EB740911C0150911D01841B950B74
:10379000E817F90708F055C0F093B807E093B707AA
:1037A000F90171836083A0CF8D919C91119712963E
:1037B0006C90129713967C901397A815B90559F53C
:1037C0006C0142E0C40ED11CCA14DB0420F1AC0130
:1037D0004A195B09DA011296159780F062827382AA
:1037E00051834083D9016D937C93E114F10471F00E
:1037F000D7011396FC93EE93129776CF22968C0FF7
:103800009D1FF90191838083F301EFCFF093BA07F5
:10381000E093B90769CF4816590608F42C017D01D9
:10382000D3019ACFCB010E94421A7C01009749F044
:10383000AE01B8010E94241CC8010E94DE1A870153
:1038400053CF10E000E050CFFB01DC0102C001903B
:103850000D9241505040D8F70895FB01DC010190D2
:0C3860000D920020E1F70895F894FFCFCE
:10386C000110FFFFFFFF00E100000000000010004E
:10387C0010000164010000000000BB078000020082
:10388C000000000001000000000000000200000029
:10389C000000000000000000020000000100010018
:1038AC00010000000100000000000000000000000A
:1038BC0003000000000000000000000000000000F9
:1038CC0001000300000000000000020000000000E6
:1038DC0000000300000000000300020001000100D2
:1038EC0001000000010001000000020000000000C7
:1038FC0000000000000002000000000000000000BA
:10390C0001000000000003000200000000000000A5
:10391C000100030000000000020000000200000093
:10392C000000010001000000010001000200000085
:10393C000100010003000100000000000000000075
:10394C000300000002000300020000000100000060
:10395C000200000000000000000000000000000059
:10396C000200000003000000000000000000000046
:10397C000300000000000000000000000200000036
:10398C000200000000000000020000000000000027
:10399C000000000000000000020003000000000016
:1039AC000000000003000000000000000000000008
:1039BC0003000000020000000000000000000000F6
:1039CC0002000000000000000000000001000000E8
:1039DC0002000000020000000000000001000000D6
:1039EC0000000000000000000200000002000100C6
:1039FC0002000000000000000200000000000000B7
:103A0C0000000000020000C18081000000000000E6
:103A1C0000CE066608EF06E4063507F3061107002C
:103A2C00000000520AE107250D240D53636F7265E7
:083A3C0020002F0031303000A2
:00000001FF
